:100000000C945D000C947A000C947A000C947A00A5
:100010000C947A000C947A000C947A000C947A0078
:100020000C947A000C94A5010C947A000C947A003C
:100030000C947A000C947A000C947A000C947A0058
:100040000C945B010C947A000C947A000C947A0066
:100050000C947A000C947A000C947A000C947A0038
:100060000C947A000C947A00000000080002010051
:100070000003040700000000000000000000000072
:10008000250028002B0000000000240027002A0083
:10009000040404040404040402020202020203032E
:1000A0000303030301020408102040800102040836
:1000B00010200102040810209C0411241FBECFEF61
:1000C000D8E0DEBFCDBF21E0A0E0B1E001C01D92CD
:1000D000A033B207E1F710E0CDE5D0E004C02197EE
:1000E000FE010E941005CC35D107C9F70E944503D7
:1000F0000C9416050C94000090E0FC01EC55FF4FA9
:10010000249180579F4FFC018491882399F090E0BF
:10011000880F991FFC01EA57FF4FA591B491FC018C
:10012000E458FF4F859194918FB7F894EC91E22BAE
:10013000EC938FBF089590E0FC01E859FF4F2491A4
:10014000FC01EC55FF4F3491FC01E057FF4FE49167
:10015000EE23C9F0222339F0233001F1A8F4213035
:1001600019F1223029F1F0E0EE0FFF1FE458FF4FA4
:10017000A591B4918FB7F894EC91611126C0309598
:100180003E233C938FBF08952730A9F02830C9F053
:10019000243049F7809180008F7D03C080918000DA
:1001A0008F7780938000DFCF84B58F7784BDDBCFDE
:1001B00084B58F7DFBCF8091B0008F778093B000A6
:1001C000D2CF8091B0008F7DF9CF3E2BDACF3FB7F1
:1001D000F89480910F0190911001A0911101B091BC
:1001E000120126B5A89B05C02F3F19F00196A11D4D
:1001F000B11D3FBFBA2FA92F982F8827BC01CD0171
:10020000620F711D811D911D42E0660F771F881FCF
:10021000991F4A95D1F708958F929F92AF92BF92FE
:10022000CF92DF92EF92FF924B015C010E94E700B8
:100230006B017C010E94E7006C197D098E099F0902
:10024000683E734081059105A8F321E0821A910868
:10025000A108B10888EEC80E83E0D81EE11CF11C8D
:1002600081149104A104B10429F7FF90EF90DF906D
:10027000CF90BF90AF909F908F9008950F931F9352
:10028000CF93DF93082F162FD42FC8E06D2F617006
:10029000802F0E949B00D69561E0812F0E949B00D9
:1002A00060E0812F0E949B00C15081F7DF91CF91C8
:1002B0001F910F9108951F920F920FB60F92112464
:1002C0002F933F938F939F93AF93BF9380910B0195
:1002D00090910C01A0910D01B0910E0130910A0195
:1002E00023E0230F2D3758F50196A11DB11D209352
:1002F0000A0180930B0190930C01A0930D01B09320
:100300000E0180910F0190911001A0911101B09107
:1003100012010196A11DB11D80930F019093100150
:10032000A0931101B0931201BF91AF919F918F9152
:100330003F912F910F900FBE0F901F90189526E8B8
:10034000230F0296A11DB11DD2CF1F920F920FB69F
:100350000F9211242F923F924F925F926F927F9251
:100360008F929F92AF92BF92CF92DF92EF92FF92C5
:100370000F931F932F933F934F935F936F937F93AD
:100380008F939F93AF93BF93EF93FF93CF93DF939D
:1003900000D01F92CDB7DEB71092B20030E0A32E8E
:1003A00031E0B32ED12CC12C88248394912C0AE007
:1003B00010E054E6452E512C68EE662E63E0762E52
:1003C0008091080190910901C816D9060CF037C137
:1003D000D501ED91FD915D01FB83EA838385F3896E
:1003E000F983EA81FB81811107C0AA81BB811C9638
:1003F0008C91882309F4C9C0248884818111A3C009
:100400002110A1C0E584F684E114F10481F0848513
:10041000882309F485C020E030E040E85FE367818D
:100420007085818592850E94BF0487FF79C0AA816B
:10043000BB811F968C918F5FAA81BB8152969C9144
:1004400052979F5F52969C935297981710F052962E
:100450001C92EA81FB818289813009F480C008F412
:1004600074C0823009F484C0833009F488C022202B
:1004700011F02FE0322E832D8295807F8F60F82E31
:10048000F981F1110EC0AA81BB8152968C91F401C1
:1004900002C0EE0FFF1F8A95E2F7CF01809590957D
:1004A000F82260E0AA81BB8111968C910E949B008A
:1004B0004F2DEA81FB81608182810E943E0161E0D3
:1004C000AA81BB8113968C910E949B0061E0EA8116
:1004D000FB8181810E949B00AA81BB8152962C9155
:1004E000529751968C91519790E002C095958795BF
:1004F0002A95E2F780FF04C053968C91882329F057
:10050000EA81FB818489882339F060E0AA81BB817C
:1005100013968C910E949B00BFEFCB1ADB0A50CF41
:10052000B8EEEB16B3E0FB0674F483E0E4E6EE16F7
:10053000F1040CF081CF82E0FAE0EF16F1040CF048
:100540007BCF81E079CF84E077CFAA81BB811D96F4
:100550008D919C91B8010E94E804382E88CFEA81E1
:10056000FB8185859685B8010E94E804CB01F2CF16
:10057000AA81BB811D968D919C91B201F5CFEA8134
:10058000FB8185859685B301EFCF82898F5F828B52
:10059000843008F0128AAA81BB815296EC9152975E
:1005A000F0E0EE0FFF1FEA0FFB1FF588F29490EFCB
:1005B000F922BF2DBF60FB2EE981E1110EC0AA8197
:1005C000BB8152968C91F40102C0EE0FFF1F8A95F9
:1005D000E2F7CF0180959095F82260E0AA81BB8177
:1005E00011968C910E949B004F2DEA81FB816081C6
:1005F00082810E943E0161E0AA81BB8113968C91A9
:100600000E949B0061E0EA81FB8181810E949B0046
:10061000AA81BB8152962C91529751968C915197F9
:1006200090E002C0959587952A95E2F780FF74CFF8
:1006300053968C91539781116FCF60E069CF0F90E3
:100640000F900F90DF91CF91FF91EF91BF91AF91FC
:100650009F918F917F916F915F914F913F912F91DA
:100660001F910F91FF90EF90DF90CF90BF90AF90D0
:100670009F908F907F906F905F904F903F902F90C2
:100680000F900FBE0F901F901895789484B58260DC
:1006900084BD84B5816084BD85B5826085BD85B526
:1006A000816085BD80916E00816080936E001092A4
:1006B000810080918100826080938100809181001F
:1006C00081608093810080918000816080938000B0
:1006D0008091B10084608093B1008091B00081600E
:1006E0008093B00080917A00846080937A0080913A
:1006F0007A00826080937A0080917A008160809392
:100700007A0080917A00806880937A001092C1000C
:10071000809114010E947C00809113010E947C0052
:10072000809115010E947C00809116010E947C003E
:10073000109219011092180110921A0110921B01C7
:1007400010921C0110921D0110921E0110921F01A7
:100750001092210110922001109223011092220187
:100760001092240110922501109217011092260177
:10077000109227018FE090E0909329018093280147
:1007800090932B0180932A0190932D0180932C014B
:1007900090932F0180932E01809170008E7F809323
:1007A00070008091B0008C7F8093B0008091B10088
:1007B000877F8093B1008091B6008F7D8093B600D3
:1007C000809170008D7F809370008091B100846073
:1007D0008093B1008091B1008D7F8093B1008091B2
:1007E000B10081608093B1001092B20080917000DE
:1007F000816080937000C1E0DAE080E0C82E80E084
:10080000D82E9FE0E92EF12CC093170110E000E0F4
:100810001093190100931801C0931E0110921F013B
:100820004091220150912301C80130E020E02417BB
:1008300035074CF4BC01D69FC001D79F900D112401
:100840002F5F3F4FF4CF909321018093200180319F
:1008500097420CF44FC0C09327016AEF70E080E02C
:1008600090E00E940C01095A1B4F06368BE21807D4
:1008700079F610921E0110921F01F0922F01E09262
:100880002E01F0922D01E0922C01F0922B01E092CA
:100890002A01F0922901E0922801809124018F60C1
:1008A000809324016AEF70E080E090E00E940C01E8
:1008B00080912401807F8093240110E000E0109358
:1008C000190100931801C0931E0110921F0140915D
:1008D000220150912301C80130E020E024173507A0
:1008E00064F4BC01D69FC001D79F900D11242F5FE7
:1008F0003F4FF4CF10922701B0CF90932101809306
:10090000200180319742ACF0C09327010F5F1F4F49
:100910006AE070E080E090E00E940C01003187E224
:10092000180769F6C114D10409F46ECF0E940000C3
:100930006BCF10922701EACFA3E1B1E082E08C9364
:1009400083E011968C93119784E012968C93129702
:1009500085E013968C93139780910801909109017B
:100960009C012F5F3F4F3093090120930801880FAE
:10097000991FFC01E050FF4FB183A08308950E94AE
:10098000C40408F481E00895990F0008550FAA0BDC
:10099000E0E8FEEF16161706E807F907C0F0121692
:1009A0001306E407F50798F0621B730B840B950B95
:1009B00039F40A2661F0232B242B252B21F40895EA
:1009C0000A2609F4A140A6958FEF811D811D089587
:1009D00097FB072E16F4009407D077FD09D00E94EC
:1009E000FC0407FC05D03EF4909581959F4F089537
:1009F000709561957F4F0895AA1BBB1B51E107C0FD
:100A0000AA1FBB1FA617B70710F0A61BB70B881F9E
:100A1000991F5A95A9F780959095BC01CD0108952D
:100A2000EE0FFF1F0590F491E02D0994F894FFCF8D
:00000001FF
