:1000000010C334C333C332C331C31EC62FC32EC380
:100010002DC32CC32BC32AC329C328C327C3000065
:1000200000000000000000000000000000000000D0
:1000300000F8000000000000003330000000001055
:100040000C06100C0600000000000000000040C07C
:100050007840C0784000043F04043F04040000706E
:1000600088FC08300000001820FF211E0000F00866
:10007000F000E018000000211C031E211E0000F00B
:100080000888700000001E21232419272110101653
:100090000E00000000000000000000000000000052
:1000A00000E01804020000000007182040000002D1
:1000B0000418E00000000040201807000000404045
:1000C00080F0804040000202010F010202000000A7
:1000D00000F0000000000101011F0101010000000B
:1000E00000000000000080B0700000000000000070
:1000F00000000000000000010101010101010000F9
:10010000000000000000003030000000000000008F
:10011000000080601804006018060100000000E084
:1001200010080810E000000F102020100F00001031
:1001300010F8000000000020203F20200000007088
:100140000808088870000030282422213000003080
:100150000888884830000018202020110E00000078
:10016000C02010F8000000070424243F240000F8F9
:100170000888880808000019212020110E0000E0DE
:10018000108888180000000F112020110E00003880
:100190000808C83808000000003F00000000007098
:1001A000880808887000001C222121221C0000E021
:1001B00010080810E0000000312222110F0000009A
:1001C00000C0C0000000000000303000000000004F
:1001D00000800000000000008060000000000000BF
:1001E0008040201008000001020408102000404058
:1001F000404040404000040404040404040000089B
:10020000102040800000002010080402010000704F
:1002100048080808F0000000003036010000C03037
:10022000C828E810E0000718272423140B0000005A
:10023000C038E0000000203C23020227382008F8E4
:10024000888888700000203F202020110E00C030D8
:10025000080808083800071820202010080008F8AF
:1002600008080810E000203F202020100F0008F8A8
:100270008888E8081000203F20202320180008F874
:100280008888E8081000203F200003000000C030EC
:1002900008080838000007182020221E020008F86D
:1002A00008000008F808203F210101213F20000834
:1002B00008F8080800000020203F2020000000006F
:1002C0000808F8080800C08080807F00000008F857
:1002D00088C028180800203F20012638200008F890
:1002E000080000000000203F20202020300008F8F7
:1002F000F800F8F80800203F003F003F200008F811
:1003000030C00008F808203F200007183F00E01028
:1003100008080810E0000F10202020100F0008F837
:1003200008080808F000203F210101010000E0104A
:1003300008080810E0000F18242438504F0008F86F
:10034000888888887000203F2000030C30200070CF
:100350008808080838000038202121221C001808CD
:1003600008F8080818000000203F2000000008F8E6
:1003700008000008F808001F202020201F0008782F
:10038000880000C83808000007380E010000F8088F
:1003900000F80008F800033C0700073C03000818B9
:1003A00068808068180820302C03032C302008381F
:1003B000C800C83808000000203F200000001008D6
:1003C0000808C8380800203826212020180000001E
:1003D00000FE020202000000007F40404000000CCE
:1003E00030C000000000000000010638C00000021C
:1003F0000202FE000000004040407F0000000000BC
:1004000004020202040000000000000000000000DE
:1004100000000000000080808080808080800002DA
:1004200002040000000000000000000000000000C6
:100430008080808000000019242222223F2008F8BA
:10044000008080000000003F112020110E000000FD
:10045000008080800000000E11202020110000008C
:1004600000808088F800000E112020103F2000003E
:10047000808080800000001F222222221300008042
:1004800080F0888888180020203F2020000000008D
:10049000808080808000006B94949493600008F8C2
:1004A000008080800000203F210000203F2000804D
:1004B0009898000000000020203F2020000000004D
:1004C00000809898000000C08080807F000008F8BD
:1004D000000080808000203F24022D302000000892
:1004E00008F8000000000020203F2020000080804D
:1004F000808080808000203F20003F20003F80805F
:10050000008080800000203F210000203F2000006C
:10051000808080800000001F202020201F0080801D
:1005200000808000000080FFA12020110E0000004C
:10053000008080808000000E112020A0FF8080803D
:1005400080008080800020203F21200001000000EA
:1005500080808080800000332424242419000080BF
:1005600080E0808000000000001F202000008080CC
:10057000000000808000001F202020103F2080808D
:1005800080000080808000010E300806010080801D
:100590000080008080800F300C030C300F00008042
:1005A0008000808080000020312E0E31200080806D
:1005B00080000080808080818E701806010000809D
:1005C0008080808080000021302C222130000000BB
:1005D0000000807C020200000000003F404000005C
:1005E0000000FF00000000000000FF00000000020B
:1005F000027C800000000040403F00000000000638
:100600000101020204040000000000000000C8A173
:10061000A81FDA028D144F4C4544205465737400B2
:10062000020711241FBECFE5D2E0DEBFCDBF20E020
:10063000A6E7B0E001C01D92AE3AB207E1F710E0C4
:10064000A0E6B0E0E0E8FEE002C005900D92A6371B
:10065000B107D9F713E0C1E1D3E003C02197FE0150
:1006600003D4C031D107D1F739D308C4C9CCCF9254
:10067000DF92EF92FF920F931F93CF93DF936C0162
:10068000EB017B01E40EF51E10E000E0CE15DF0566
:1006900061F06991D601ED91FC910190F081E02D1E
:1006A000C6010995080F191FF1CFC801DF91CF913D
:1006B0001F910F91FF90EF90DF90CF9008953FB77B
:1006C000F8948091950090919600A0919700B09138
:1006D000980022B708B601FE05C02F3F19F0019619
:1006E000A11DB11D3FBFBA2FA92F982F8827BC018C
:1006F000CD01620F711D811D911D43E0660F771FB3
:10070000881F991F4A95D1F70895CF92DF92EF92F3
:10071000FF92CF93DF936B017C01D1DFEB01CFDF41
:100720006C1B7D0B683E7340A0F0C114D104E10442
:10073000F10439F4DF91CF91FF90EF90DF90CF90EB
:10074000089581E0C81AD108E108F108C851DC4FCA
:10075000E6CFC114D104E104F10409F7EBCFE09135
:10076000A300F091A4002091A5003091A600A9015A
:1007700041705527309719F44115510579F0359599
:100780002795820F931F452B41F0DC012D913C9161
:10079000E20FF31F0190F081E02D099581E090E0D8
:1007A0000895DDCFE0918E00F0918F000994E091E3
:1007B0008C00F0918D000994E0918A00F0918B00FB
:1007C0000994CF93C82FF3DF811106C0EBDFF4DF6C
:1007D00080E4EDDF8C2FEBDF8091AB008F5F8093A7
:1007E000AB00CF910895E8DF80E0E1CF1F93CF9376
:1007F000DF93C82F162FD62FD77080916100D82B8A
:10080000F2DF8D2FD4DF8C2F82958F708061CFDF48
:100810008C2F8F70CCDFC6DFC093AD001093AC007F
:100820001092AB00DF91CF911F9108950F931F930A
:10083000CF93DF93C0E010E86C2F80E0D7DF80918A
:10084000AD00012F081B61F01093AD00B5DF80E40F
:10085000AEDFD0E080E0B5DFDF5F0D13FBCFA2DFBE
:10086000CF5FC43049F760E080E0DF91CF911F9106
:100870000F91BCCF80919E0001C0660F8A95EAF768
:100880008091AC00860F24E030E0261B31098217EE
:10089000130609F034F48093AC006091AC0080E062
:1008A000A5CF84E0861BF7CFAF92BF92CF92DF92A5
:1008B000EF92FF920F931F93CF93DF93A0919C0031
:1008C000B0919D0012961C911297C62FD0E0111185
:1008D0000DC014962C911497AE01421B5109189625
:1008E000ED91FC911997E40FF51F14911396BC90AC
:1008F00000919B00E12EF12C4091AD0020E830E00A
:100900002E193F094217130619F014F06B2DB2DFB0
:100910008091AD008E0D9F2D911D800F911D81380E
:1009200091050CF000E0A0919C00B0919D00149600
:100930008C911497C81BD10971F012968C91129763
:1009400013966C91139770E08823C9F090E07BD2E6
:10095000BE0179D2EC01AB2C2FDF80E428DFCE0181
:10096000282F2C1B211708F438C0CE0DDF1DD12CE9
:100970000D1509F443C080E024DFD394F9CFAE0114
:10098000F4E056954795FA95E1F730E020E090E0E5
:1009900080E04217530781F06901CC0CDD1C1696EC
:1009A000ED91FC911797EC0DFD1DC590D4908C0D29
:1009B0009D1D2F5F3F4FEDCF9E01207F2C173D07E0
:1009C00040F61896ED91FC911997E20FF31FE49110
:1009D0008E0F911D2F5F3F4FF1CF6C012FEFC21A89
:1009E000D20AE0919C00F0919D000190F081E02DF1
:1009F000E80FF91F8491E5DEC601B2CFD3DE609126
:100A0000AC0031E06F5F8091AD003A1528F06B19B2
:100A10008091AD00810F800FE9DEAA94A1109CCFD8
:100A2000DF91CF911F910F91FF90EF90DF90CF90CA
:100A3000BF90AF9008956D3031F1E0919C00F0913E
:100A40009D006A3011F4638115CF24816217D8F0BC
:100A500025812617C0F02091A1003091A200A901A4
:100A600055954795840F951FE0919F00F091A00048
:100A700020FF08C0DC012D913C91E20FF31F019093
:100A8000F081E02D099408951092880088E7809302
:100A9000760081E00895E0918800E13148F4EF5F4D
:100AA000E0938800F0E0EA58FF4F808381E00895EA
:100AB00080E00895DFD1C29AC29BFECF8DE08A9577
:100AC000F1F70000C0988AE08A95F1F700C0C2985B
:100AD000C09A779905C083E08093890080E00895EB
:100AE00081E008958EB98BE29DE09A95F1F70000C0
:100AF0008DB9B29BFECF9AE09A95F1F700C08DB9FF
:100B0000769BF2CF8DE08A95F1F700008FB19FEFD1
:100B10009FB9B89A0895CF92DF92EF92FF920F9308
:100B20001F93CF93DF930091880081E08093890029
:100B30008091760080FD03C083E080938900BBDF55
:100B4000882311F10F5F102FC6E7D0E0DD24DA947F
:100B5000CC24C3947E018FEFE81AF80A80918900B3
:100B6000837009F44AC0C29888818FB980EFBADFD8
:100B7000B8988EEFB7DF9091890080FF12C081E0B6
:100B800090FF82E080938900109288008091890014
:100B9000DF91CF911F910F91FF90EF90DF90CF9059
:100BA0000895892F8570843061F48091760081608A
:100BB00080937600C09289007EDF81112AC08AE08E
:100BC000E1CF9E7F90938900E701115009F0C2CFD9
:100BD00010928800C098C29AB29BFECF8AE08A9594
:100BE000F1F700C0C09A8DE08A95F1F70000759981
:100BF00014C084E080938900CBCFB89880EF72DF77
:100C00008883113021F4DFB88EEF6CDFDDCF1FB8A1
:100C1000FBCF102FC6E7D0E0D8CF80E0B9CFC09A85
:100C2000C29ABA9AB89A8FEF8FB98AE28DB980EFDB
:100C30008EB92ADF70DF882331F06AE070E080E04F
:100C400090E063DDF6CF08951F920F920FB60F92DA
:100C500011242F933F938F939F93AF93BF938091D2
:100C6000910090919200A0919300B09194003091E6
:100C7000900026E0230F2D3768F129E8230F039613
:100C8000A11DB11D2093900080939100909392003C
:100C9000A0939300B093940080919500909196005A
:100CA000A0919700B09198000196A11DB11D80936D
:100CB000950090939600A0939700B0939800BF91F1
:100CC000AF919F918F913F912F910F900FBE0F90F9
:100CD0001F9018950296A11DB11DD4CF81B781BF79
:100CE00078948AB582608ABD8AB581608ABD83B7EF
:100CF000887F836083BF789489B7826089BF80B71B
:100D0000807F80BF80B7806880BF80B7806480BFED
:100D10008CB580648CBD8FEF8DBD80B7876080BF40
:100D200086B18877866886B9379AE0919900F09104
:100D30009A00099558DDCEE0D6E0FE011491812F8E
:100D400036DD811104C02EDD4EDD812F30DD219690
:100D5000F6E0C631DF0789F725DD68DD44DD8FEA7F
:100D600026DD20DD8091610094E089278093610079
:100D70000AE610E08BE1E82E85E0F82E94E5C92E16
:100D800094E0D92E20E2A22E34E0B32E4FDD109352
:100D90009D0000939C0010929B00F092A400E092B2
:100DA000A3001092A6001092A500D092A000C092BD
:100DB0009F001092A2001092A10010929E0060E08D
:100DC00086E014DDC6E1D6E0FE016491662331F0D1
:100DD00087EA90E0C4DC2196892BB1F7C0916000CE
:100DE000CA25C0936000FFDC8C2FE1DCDBDC809146
:100DF00061008B258093610064EF71E080E090E0FA
:100E000084DCC4CFE7EAF0E0138212828FE096E040
:100E100090939A008093990084E495E090938B00DE
:100E200080938A008BE495E090938D0080938C00F2
:100E30008BE895E090938F0080938E0086E690E09B
:100E40009183808308950024552704C0080E591FFC
:100E5000880F991F009729F076956795B8F371056B
:100E6000B9F7802D952F0895EE0FFF1F0590F4918F
:100E7000E02D099481E090E0F89400C0F894FFCF51
:100E800040B000000000D10337031E000802207E9E
:060E90000000000000005C
:00000001FF
