:100000000C945C000C946E000C946E000C946E00CA
:100010000C946E000C946E000C946E000C946E00A8
:100020000C946E000C946E000C946E000C946E0098
:100030000C946E000C946E000C946E000C946E0088
:100040000C9401010C946E000C946E000C946E00E4
:100050000C946E000C946E000C946E000C946E0068
:100060000C946E000C946E00000000080002010069
:100070000003040700000000000000000000000072
:10008000250028002B0000000000240027002A0083
:10009000040404040404040402020202020203032E
:1000A0000303030301020408102040800102040836
:1000B000102001020408102011241FBECFEFD8E049
:1000C000DEBFCDBF21E0A0E0B1E001C01D92AA30AB
:1000D000B207E1F70E944B010C9406020C94000059
:1000E00090E0FC01EC55FF4F2491FC01E057FF4FDD
:1000F0008491882399F090E0880F991FFC01EA57BA
:10010000FF4FA591B491FC01E458FF4F8591949164
:100110008FB7F894EC91E22BEC938FBF089590E0A9
:10012000FC01E859FF4F2491FC01EC55FF4F34913D
:10013000FC01E057FF4FE491EE2309F43CC0222379
:1001400039F1233091F038F42130A9F0223001F553
:1001500084B58F7D12C0273091F02830A1F0243073
:10016000B9F4809180008F7D03C0809180008F77EB
:10017000809380000DC084B58F7784BD09C08091C5
:10018000B0008F7703C08091B0008F7D8093B00066
:10019000F0E0EE0FFF1FE458FF4FA591B4919FB719
:1001A000F894611104C08C913095382302C0EC9111
:1001B0003E2B3C939FBF08953FB7F8948091060172
:1001C00090910701A0910801B091090126B5A89B63
:1001D00005C02F3F19F00196A11DB11D3FBFBA2FD9
:1001E000A92F982F8827820F911DA11DB11DBC0139
:1001F000CD0142E0660F771F881F991F4A95D1F7FE
:1002000008951F920F920FB60F9211242F933F93D0
:100210008F939F93AF93BF938091020190910301BD
:10022000A0910401B09105013091010123E0230F59
:100230002D3720F40196A11DB11D05C026E8230F1E
:100240000296A11DB11D209301018093020190939C
:100250000301A0930401B0930501809106019091E0
:100260000701A0910801B09109010196A11DB11DDE
:100270008093060190930701A0930801B0930901B0
:10028000BF91AF919F918F913F912F910F900FBE92
:100290000F901F901895789484B5826084BD84B5C2
:1002A000816084BD85B5826085BD85B5816085BD71
:1002B00080916E00816080936E0010928100809129
:1002C00081008260809381008091810081608093B1
:1002D0008100809180008160809380008091B100D6
:1002E00084608093B1008091B00081608093B00001
:1002F00080917A00846080937A0080917A00826095
:1003000080937A0080917A00816080937A00809156
:100310007A00806880937A001092C100CFB7F89479
:1003200080910001811124C0EAE9F0E08491EEEAB5
:10033000F0E09491E82FF0E0EE0FFF1FEA57FF4F37
:10034000A591B491EC91E92321F461E08AE00E9447
:100350008F008AE00E9470008CB580618CBD8CB5E6
:1003600080648CBD8DE00E9470008BE00E94700064
:10037000809100018F5F80930001CFBF88E00E94D1
:10038000700060E088E00E948F001EBC00000DB489
:1003900007FEFDCF8EB561E088E00E948F00C0E0CF
:1003A00060E088E00E948F00CEBD00000DB407FE23
:1003B000FDCF8EB561E088E00E948F000E94DC00D6
:1003C0004B015C0184E6C82ED12CE12CF12C0E945B
:1003D000DC00DC01CB0188199909AA09BB09883E18
:1003E0009340A105B10598F321E0C21AD108E108B4
:1003F000F10888EE880E83E0981EA11CB11CC11480
:10040000D104E104F10419F7CF5FCACFF894FFCF0C
:00000001FF
