:020000020000FC
:0200000033C00B
:0200040018954D
:02000800189549
:02000C00189545
:02001000189541
:0200140018953D
:02001800189539
:02001C00189535
:02002000189531
:0200240018952D
:02002800189529
:02002C00189525
:02003000189521
:0200340018951D
:02003800189519
:02003C00189515
:02004000189511
:0200440018950D
:02004800189509
:02004C00189505
:02005000189501
:020054001895FD
:020058001895F9
:02005C001895F5
:020060001895F1
:020064001895ED
:1000680054E05EBF5FEF5DBF95D3259A249A239A2B
:10007800229A209A279A269A2B982A9855D353E0A1
:10008800509327012B982A9A5FD2D4EFE1E0ECD164
:100098002B9A2A9859D2D4EFE1E0E6D12B982A9AE4
:1000A80053D26CD251E05093220151E05093230176
:1000B800D2D2C0E0D1E0EAEDF7E073D350E050933C
:1000C800250151E050932601DAD2D4EFE1E0CCD1FA
:1000D8002B9A2A9839D252D251D251E05093220108
:1000E80051E050932301B7D2C0E0D1E0E6EEF7E04B
:1000F80058D350E05093250151E050932601BFD2C8
:10010800D4EFE1E0B1D1109027011A9410922701A1
:1001180009F0B8CFF1E0B4D150E05093180150E0A5
:1001280050931A0150E050931B0150E050931C016A
:1001380050E050931D01289A0BD0D8ECE0E094D100
:10014800289806D0D8ECE0E08FD1F5CF8895FECF7F
:100158006EE4C0911A016C1718F42B9A2A9802C001
:100168002B982A9A509118015093220150911B0103
:100178005093230170D2CCE0D1E0E2EFF7E011D345
:100188005CE05093250151E05093260178D26091AC
:100198001C01662339F410901A0106E0100E109223
:1001A8001A0106C010901A0106E0101A10921A01DE
:1001B80060911D01662331F410901B011394109275
:1001C8001B0105C010901B011A9410921B0160912D
:1001D8001B01653019F451E050931D0160911B011A
:1001E800662319F450E050931D0160911A01623A98
:1001F80019F451E050931C0160911A01662319F417
:1002080050E050931C016EE4C0911A016C1748F439
:1002180010901A0104E5101A109218012B9A2A98C6
:1002280006C050911A01509318012B982A9A5091A0
:1002380018015093220150911B01509323010BD2B6
:10024800CCE0D1E0E4EFF7E0ACD25CE050932501DC
:1002580051E05093260113C2A13F10F000240895E5
:10026800E6E7F2E0EA0F08F4F395C8950895F07F01
:10027800090909063E4151215E7F09192946464967
:1002880049493101017F01013F4040403F1F204063
:10029800201F3F4038403F63140814630708700864
:1002A800076151494543007F41410002040810207D
:1002B8000041417F000402010204404040404000E8
:1002C8000102040020545454787F48444438384488
:1002D800444420384444487F3854545418087E090C
:1002E80001020C5252523E7F0804047800447D40BB
:1002F800002040443D007F1028440000417F40001A
:100308007C041804787C0804047838444444387C15
:1003180014141408081414187C7C0804040848549D
:10032800545420043F4440203C4040207C1C204042
:10033800201C3C4030403C44281028440C5050506D
:100348003C4464544C44000836410000007F0000DF
:1003580000413608001008081008000609090600C0
:10036800A13F10F000240895EEE7F3E0EA0F08F447
:10037800F395C8950895F0000000000000005F00A4
:10038800000007000700147F147F14242A7F2A1214
:100398002313086462364955225000050300000003
:1003A8001C2241000041221C0014083E08140808C1
:1003B8003E0808005030000008080808080060607F
:1003C800000020100804023E5149453E00427F408B
:1003D8000042615149462141454B311814127F10A2
:1003E80027454545393C4A494930017109050336D5
:1003F80049494936064949291E0036360000005643
:100408003600000814224100141414141400412268
:1004180014080201510906324979413E7E11111131
:100428007E7F494949363E414141227F4141221C54
:100438007F494949417F090909013E4149497A7F74
:100448000808087F00417F41002040413F017F08A4
:100458001422417F404040407F020C027F7F040805
:10046800107F3E4141413E00E395AEEF94E19A95FD
:10047800F1F7AA95D9F7DA95C1F7EA95B1F7089592
:10048800D8EEE3E0F1DFFA95D9F7089560911E01FF
:10049800603550F500911E0110E2011B102E612DF0
:1004A800C5E06C9F00921E0155E050932B011090FF
:1004B8001E01139410921E01A0911E0151DF00929B
:1004C800190151E050931F015091190150932001D7
:1004D8000CD1509120015093190110902B011A94BE
:1004E80010922B0121F729C000911E0110E5011B74
:1004F800102E612DC5E06C9F00921E0155E05093AF
:100508002B0110901E01139410921E01A0911E0140
:10051800A3DE0092190151E050931F015091190177
:1005280050932001E2D0509120015093190110906E
:100538002B011A9410922B0121F751E050931F01BF
:1005480050E050932001D1C057EF5093290152E059
:1005580050932A0151E050931F0150E0509320011D
:10056800C4D01090290120902A011A9410922901D0
:1005780089F72A9420922A0169F708955FEF50932A
:100588002101109021011394109221015091210111
:100598005093220150E0509323015DD051E05093D5
:1005A8001F0151E050932001A0D0609121016335D3
:1005B80040F35FEF509321011090210113941092A2
:1005C8002101509121015093220155E050932301BC
:1005D80042D051E050931F0150E85093200185D03C
:1005E80060912101633540F35FEF50932101109032
:1005F800210113941092210153E550932201509147
:1006080021015093230127D051E050931F015FEF40
:10061800509320016AD060912101653040F35FEF6B
:10062800509321011090210113941092210150E060
:100638005093220150912101509323010CD051E095
:1006480050931F015FEF509320014FD0609121011B
:10065800653040F3089550E050931F0100E8109072
:100668002201102A1092200140D050E050931F011F
:1006780000E410902301102A1092200136C050E0A7
:1006880050932101A0912501B09126016C91613010
:1006980058F1109021011394109221011090250116
:1006A80000912101100EA12D1090260100E0101ECE
:1006B800B12D5C9150931E01E9DE10902501009147
:1006C8002101100EA12D1090260100E0101EB12D61
:1006D80050911E015C93A0912501B0912601609173
:1006E8002101CC916C17A8F2089560911F01613027
:1006F80011F42E9A01C02E9858E0509328012C9896
:100708005090200157FE02C02D9A01C02D9850919B
:100718002001551F509320012C9A109028011A94FB
:100728001092280161F708952F98D4E6E0E09CDE46
:100738002F9A50E050931F0151E250932001D5DFCA
:1007480050E050931F015FEB50932001CEDF50E043
:1007580050931F0154E050932001C7DF50E050939D
:100768001F0154E150932001C0DF50E050931F0156
:100778005CE050932001B9DF50E050931F0150E234
:1007880050932001B2DF50E050931F015CE050937A
:100798002001ABCF50E055B950E058B950E05BB9F3
:1007A8000895C895602DE39509F4F395699306C0FB
:1007B800C895602DE39509F4F395960F603009F418
:1007C8000895C895E39509F4F39509926A95C9F7D0
:1007D80008950B2020446973706C617920310B20D7
:0E07E80020446973706C617920320120012A6F
:00000001FF
