:100000000C9458000C9480000C9480000C94800098
:100010000C9480000C9480000C9480000C94800060
:100020000C9480000C9480000C9480000C94800050
:100030000C9480000C9480000C9480000C94800040
:100040000C947E030C9480000C9480000C9480002F
:100050000C9480000C9480000C9480000C94800020
:100060000C94C8030C9480000000000025002800B8
:100070002B00040404040404040402020202020229
:10008000030303030303010204081020408001025C
:1000900004081020010204081020000000080002DB
:1000A0000100000304070000000000000000E70456
:1000B00011241FBECFEFD8E0DEBFCDBF11E0A0E01E
:1000C000B1E0EAEEFBE002C005900D92AE35B1075B
:1000D000D9F722E0AEE5B1E001C01D92A933B20725
:1000E000E1F710E0C8E5D0E004C02197FE010E94CE
:1000F000ED05C735D107C9F70E9407050C94F30534
:100100000C94000008950895AF92BF92CF92DF92B1
:10011000EF92FF920F931F93CF93DF936C017B01BC
:100120008B01040F151FEB015E01AE18BF08C0174D
:10013000D10759F06991D601ED91FC910190F081C0
:10014000E02DC6010995892B79F7C501DF91CF9183
:100150001F910F91FF90EF90DF90CF90BF90AF90E5
:10016000089590E0FC01E656FF4F2491FC01EA5708
:10017000FF4F3491FC01EE58FF4FE491EE23C9F09C
:10018000222339F0233001F1A8F4213019F1223073
:1001900029F1F0E0EE0FFF1FE859FF4FA591B49150
:1001A0008FB7F894EC91611126C030953E233C93B3
:1001B0008FBF08952730A9F02830C9F0243049F7BF
:1001C000809180008F7D03C0809180008F77809325
:1001D0008000DFCF84B58F7784BDDBCF84B58F7D82
:1001E000FBCF8091B0008F778093B000D2CF809109
:1001F000B0008F7DF9CF3E2BDACF3FB7F8948091D6
:10020000150290911602A0911702B091180226B51E
:10021000A89B05C02F3F19F00196A11DB11D3FBF3E
:10022000BA2FA92F982F8827BC01CD01620F711D0D
:10023000811D911D42E0660F771F881F991F4A9507
:10024000D1F708952091C601260F3327331F21329D
:100250003105ECF42091EA01FC0190E080E02430CB
:1002600069F082E00895A091C6012191AC014A5540
:100270005E4FA40FB52FB11D2C930196861798F3EE
:100280008091C601680F6093C60180E0089581E007
:1002900008951092EA0181E08093EC011092EB0145
:1002A00061E082E10E94B10061E083E10E94B1005F
:1002B000E9EBF0E080818E7F808380818D7F808379
:1002C00088E48093B80085E48093BC000895CF93C0
:1002D000DF9391E09093A5018823B9F0C091B80015
:1002E000D091BA008091BC008A7B8093BC0060E012
:1002F00082E10E94B10060E083E10E94B1000E94AF
:100300004901D093BA00C093B800DF91CF9108950E
:100310000895E091200280911F02E81730F4F0E088
:10032000E058FE4F808190E008958FEF9FEF089591
:100330009091200280911F022FEF3FEF981748F411
:10034000E92FF0E0E058FE4F208130E09F5F90936E
:100350002002C901089580911F0290912002891BFB
:10036000990B0895CF92DF92EF92FF920F931F9314
:10037000CF93DF937C01CB018A0120917F0122235F
:1003800089F0EB016B01C40ED51ECC15DD0569F0BB
:100390006991D701ED91FC910190F081E02DC701A9
:1003A0000995F3CF642F0E942201C801DF91CF91FC
:1003B0001F910F91FF90EF90DF90CF900895CF9312
:1003C000DF931F92CDB7DEB7698320917F0122238F
:1003D000F9F020911D02203258F021E030E0FC01BC
:1003E0003383228390E080E00F90DF91CF910895D6
:1003F00080911E02E82FF0E0E15AFE4F9981908330
:100400008F5F80931E0280931D0281E090E0ECCF0D
:1004100061E0CE0101960E942201F7CFCF92DF92D8
:10042000EF92FF920F931F93CF93DF93D62F672FF7
:10043000FC01C48181E080937F01C0935E01109232
:100440001E0210921D0281E292E00E94DF016D2FD8
:1004500081E292E00E94DF01D0911D02D13208F0CA
:1004600092C00E94FD006B017C018091EA01811124
:1004700065C082E08093EA0181E08093EC018FEF18
:100480008093E90110920E02D0930D02AFE5B1E026
:10049000EDEEF1E080E0D81385C010920F0280915C
:1004A0000F02CC0FC82BC0930F028091EB0181305B
:1004B00009F07CC01092EB010E94FD006B017C01F1
:1004C00080910F028093BB008091A1019091A201C5
:1004D000A091A301B091A401892B8A2B8B2B99F0B9
:1004E0000E94FD000091A1011091A2012091A301A1
:1004F0003091A4016C197D098E099F090617170711
:1005000028073907E0F18091BC0083FDD9CF85EC45
:100510008093BC000E94FD006B017C018091EA0188
:10052000823009F445C08091E9018F3F61F18091EB
:10053000E901803241F18091E90125C08091A1015A
:100540009091A201A091A301B091A401892B8A2BC3
:100550008B2B09F48ACF0E94FD000091A10110911C
:10056000A2012091A3013091A4016C197D098E098B
:100570009F09061717072807390708F076CF8091DB
:10058000A0010E94670110921E0210921D0210929B
:100590007F01DF91CF911F910F91FF90EF90DF903E
:1005A000CF9008959D9191938F5F75CF85EEB0CFD9
:1005B0008091A1019091A201A091A301B091A40109
:1005C000892B8A2B8B2B09F4A9CF0E94FD00009167
:1005D000A1011091A2012091A3013091A4016C19F5
:1005E0007D098E099F09061717072807390708F0A4
:1005F00095CFC5CFCF93DF93CDB7DEB728970FB692
:10060000F894DEBF0FBECDBF98E0E0E0F1E0DE0180
:10061000119601900D929A95E1F7909135029617F7
:1006200010F46FEF690F70E0660F771F21E030E084
:100630002C0F3D1F620F731FFB016081860F8068C6
:10064000682F70E08DE292E028960FB6F894DEBF36
:100650000FBECDBFDF91CF910C940E0270E070649D
:100660000E940E0281E090E00895089590E080E0FD
:100670000895FC0101900020E9F73197AF01481B74
:10068000590BBC018DE292E00C94840085ED8093BF
:10069000BC008091A1019091A201A091A301B09111
:1006A000A4010796A11DB11D23E0B695A7959795C6
:1006B00087952A95D1F72091BC0024FD03C01092A4
:1006C000EA0108954091A1015091A2016091A30116
:1006D0007091A401452B462B472B69F30097A10588
:1006E000B10541F025E32A95F1F700000197A10932
:1006F000B109E1CF8091A0010C9467011F920F9284
:100700000FB60F9211242F933F938F939F93AF9324
:10071000BF938091110290911202A0911302B091A7
:1007200014023091100223E0230F2D3758F5019663
:10073000A11DB11D2093100280931102909312020B
:10074000A0931302B09314028091150290911602A7
:10075000A0911702B09118020196A11DB11D8093BE
:10076000150290931602A0931702B0931802BF913E
:10077000AF919F918F913F912F910F900FBE0F904E
:100780001F90189526E8230F0296A11DB11DD2CF08
:100790001F920F920FB60F9211242F933F934F93F6
:1007A0005F936F937F938F939F93AF93BF93EF93D9
:1007B000FF938091B900887F803609F44AC0F0F534
:1007C000883209F4A7C018F5803109F49BC0B8F449
:1007D000882309F4F9C0883009F494C0FF91EF919F
:1007E000BF91AF919F918F917F916F915F914F9149
:1007F0003F912F910F900FBE0F901F901895883149
:1008000009F488C0803251F78093E90114C0803424
:1008100009F49DC040F48033B9F38833F9F680932E
:10082000E90185ECB0C0803509F485C0883509F44C
:1008300096C0883499F60E944603D0CF883909F4CF
:100840008CC038F5883729F050F4883611F080379D
:1008500029F683E08093EA011092E80157C08838B6
:1008600009F47BC0803919F0803809F0B7CF809146
:10087000E801803208F071C0E091E80181E08E0F5C
:100880008093E8018091BB00F0E0E853FE4F808345
:100890003DC0803B39F0E0F4803A09F479C0883AF1
:1008A00009F09CCF84E08093EA011092C701109276
:1008B000C601E0911B02F0911C0209958091C601CE
:1008C00081110FC081E08093C6011092A60109C07A
:1008D000803C09F4A6CF883C09F4A3CF883B09F0FB
:1008E0007DCFE091C70181E08E0F8093C701F0E0DA
:1008F000EA55FE4F80818093BB009091C7018091A3
:10090000C60129C080910F028093BB0085EC8093C3
:10091000BC0064CF90910E0280910D02981758F59B
:10092000E0910E0281E08E0F80930E02F0E0E35121
:10093000FE4F8081E9CFE0910E0281E08E0F80931F
:100940000E028091BB00F0E0E351FE4F8083909156
:100950000E0280910D029817C8F285E8D8CFE09179
:100960000E0281E08E0F80930E028091BB00F0E0BA
:10097000E351FE4F80838091EC0181115CCF81E0D7
:100980008093EB0184EA8093BC001092EA0126CFA9
:1009900085EC8093BC001092EA018091E8018032DE
:1009A00030F4E091E801F0E0E853FE4F10826091EE
:1009B000E80170E0E0911902F0911A0288EC91E0F0
:1009C00009951092E8010ACF1092E90134CFE1E2D3
:1009D000F2E01382128288EE93E0A0E0B0E084831C
:1009E0009583A683B7838CE091E091838083EDE2C9
:1009F000F2E0138212828EE191E09183808311866E
:100A00008EE3848384E1828784E0838708957894E9
:100A100084B5826084BD84B5816084BD85B5826003
:100A200085BD85B5816085BD80916E0081608093B4
:100A30006E0010928100809181008260809381001D
:100A4000809181008160809381008091800081602D
:100A5000809380008091B10084608093B100809188
:100A6000B00081608093B00080917A0084608093B0
:100A70007A0080917A00826080937A0080917A0077
:100A8000816080937A0080917A00806880937A00F8
:100A90001092C1001092200210921F0210921E02AA
:100AA00010921D020E94490182E890E090931C027E
:100AB00080931B0283E890E090931A0280931902BE
:100AC00080E18093320280913802823018F098E100
:100AD00090933202809335028BE39DE00197F1F70A
:100AE00060913202606270E08DE292E00E940E023C
:100AF0008BE496E40197F1F760913202606270E056
:100B00008DE292E00E940E0283E592E00197F1F7F8
:100B100060913202606270E08DE292E00E940E020B
:100B200060913202606270E08DE292E00E940E02FB
:100B300084E0809333026CE070E08DE292E00E94EA
:100B40000E0261E070E08DE292E00E940E028BE303
:100B50009FE10197F1F780913602882321F060E050
:100B600080E00E94FA0282E08093340266E070E046
:100B70008DE292E00E940E0262E070E08DE292E06F
:100B80000E940E028BE39FE10197F1F760E083E0A2
:100B90000E94FA0286E291E00E94390361E080E05F
:100BA0000E94FA0284E391E00E94390362E080E04F
:100BB0000E94FA0289E491E00E94390363E080E038
:100BC0000E94FA0284E391E00E943903C0E0D0E081
:100BD0002097F1F30E940000FBCFEE0FFF1F05905E
:0A0BE000F491E02D0994F894FFCF82
:100BEA00000040001400540000000000DF01B201C0
:100BFA0036038801AB0198018901000000002E0329
:100C0A0084003603350348656C6C6F2C20776F724D
:100C1A006C6421002A2A2A2A2A2A2A2A2A2A2A2AE1
:100C2A002A2A2A2A2A2A2A2A002A2020202020534D
:0E0C3A00696D756C49444520202020202A0059
:00000001FF
