:100000000C9458000C9480000C9480000C94800098
:100010000C9480000C9480000C9480000C94800060
:100020000C9480000C9480000C9480000C94800050
:100030000C9480000C9480000C9480000C94800040
:100040000C947E030C9480000C9480000C9480002F
:100050000C9480000C9480000C9480000C94800020
:100060000C94C8030C9480000000000025002800B8
:100070002B00040404040404040402020202020229
:10008000030303030303010204081020408001025C
:1000900004081020010204081020000000080002DB
:1000A0000100000304070000000000000000E70456
:1000B00011241FBECFEFD8E0DEBFCDBF11E0A0E01E
:1000C000B1E0EAEEFBE002C005900D92AC36B1075C
:1000D000D9F722E0ACE6B1E001C01D92A734B20727
:1000E000E1F710E0C8E5D0E004C02197FE010E94CE
:1000F000ED05C735D107C9F70E9407050C94F30534
:100100000C94000008950895AF92BF92CF92DF92B1
:10011000EF92FF920F931F93CF93DF936C017B01BC
:100120008B01040F151FEB015E01AE18BF08C0174D
:10013000D10759F06991D601ED91FC910190F081C0
:10014000E02DC6010995892B79F7C501DF91CF9183
:100150001F910F91FF90EF90DF90CF90BF90AF90E5
:10016000089590E0FC01E656FF4F2491FC01EA5708
:10017000FF4F3491FC01EE58FF4FE491EE23C9F09C
:10018000222339F0233001F1A8F4213019F1223073
:1001900029F1F0E0EE0FFF1FE859FF4FA591B49150
:1001A0008FB7F894EC91611126C030953E233C93B3
:1001B0008FBF08952730A9F02830C9F0243049F7BF
:1001C000809180008F7D03C0809180008F77809325
:1001D0008000DFCF84B58F7784BDDBCF84B58F7D82
:1001E000FBCF8091B0008F778093B000D2CF809109
:1001F000B0008F7DF9CF3E2BDACF3FB7F8948091D6
:10020000230290912402A0912502B091260226B5E6
:10021000A89B05C02F3F19F00196A11DB11D3FBF3E
:10022000BA2FA92F982F8827BC01CD01620F711D0D
:10023000811D911D42E0660F771F881F991F4A9507
:10024000D1F708952091D401260F3327331F21328F
:100250003105ECF42091F801FC0190E080E02430BD
:1002600069F082E00895A091D4012191AC014C5431
:100270005E4FA40FB52FB11D2C930196861798F3EE
:100280008091D401680F6093D40180E0089581E0EB
:1002900008951092F80181E08093FA011092F9011B
:1002A00061E082E10E94B10061E083E10E94B1005F
:1002B000E9EBF0E080818E7F808380818D7F808379
:1002C00088E48093B80085E48093BC000895CF93C0
:1002D000DF9391E09093B3018823B9F0C091B80007
:1002E000D091BA008091BC008A7B8093BC0060E012
:1002F00082E10E94B10060E083E10E94B1000E94AF
:100300004901D093BA00C093B800DF91CF9108950E
:100310000895E0912E0280912D02E81730F4F0E06C
:10032000E257FE4F808190E008958FEF9FEF089590
:1003300090912E0280912D022FEF3FEF981748F4F5
:10034000E92FF0E0E257FE4F208130E09F5F90936D
:100350002E02C901089580912D0290912E02891BD1
:10036000990B0895CF92DF92EF92FF920F931F9314
:10037000CF93DF937C01CB018A0120918D01222351
:1003800089F0EB016B01C40ED51ECC15DD0569F0BB
:100390006991D701ED91FC910190F081E02DC701A9
:1003A0000995F3CF642F0E942201C801DF91CF91FC
:1003B0001F910F91FF90EF90DF90CF900895CF9312
:1003C000DF931F92CDB7DEB7698320918D01222381
:1003D000F9F020912B02203258F021E030E0FC01AE
:1003E0003383228390E080E00F90DF91CF910895D6
:1003F00080912C02E82FF0E0E359FE4F9981908321
:100400008F5F80932C0280932B0281E090E0ECCFF1
:1004100061E0CE0101960E942201F7CFCF92DF92D8
:10042000EF92FF920F931F93CF93DF93D62F672FF7
:10043000FC01C48181E080938D01C0936C01109216
:100440002C0210922B028FE292E00E94DF016D2FAE
:100450008FE292E00E94DF01D0912B02D13208F0AE
:1004600092C00E94FD006B017C018091F801811116
:1004700065C082E08093F80181E08093FA018FEFFC
:100480008093F70110921C02D0931B02ADE6B1E0FD
:10049000EBEFF1E080E0D81385C010921D0280914F
:1004A0001D02CC0FC82BC0931D028091F901813031
:1004B00009F07CC01092F9010E94FD006B017C01E3
:1004C00080911D028093BB008091AF019091B0019B
:1004D000A091B101B091B201892B8A2B8B2B99F09D
:1004E0000E94FD000091AF011091B0012091B10177
:1004F0003091B2016C197D098E099F090617170703
:1005000028073907E0F18091BC0083FDD9CF85EC45
:100510008093BC000E94FD006B017C018091F8017A
:10052000823009F445C08091F7018F3F61F18091DD
:10053000F701803241F18091F70125C08091AF0130
:100540009091B001A091B101B091B201892B8A2B99
:100550008B2B09F48ACF0E94FD000091AF0110910E
:10056000B0012091B1013091B2016C197D098E0961
:100570009F09061717072807390708F076CF8091DB
:10058000AE010E94670110922C0210922B02109271
:100590008D01DF91CF911F910F91FF90EF90DF9030
:1005A000CF9008959D9191938F5F75CF85EEB0CFD9
:1005B0008091AF019091B001A091B101B091B201D1
:1005C000892B8A2B8B2B09F4A9CF0E94FD00009167
:1005D000AF011091B0012091B1013091B2016C19BD
:1005E0007D098E099F09061717072807390708F0A4
:1005F00095CFC5CFCF93DF93CDB7DEB728970FB692
:10060000F894DEBF0FBECDBF98E0E0E0F1E0DE0180
:10061000119601900D929A95E1F7909143029617E9
:1006200010F46FEF690F70E0660F771F21E030E084
:100630002C0F3D1F620F731FFB016081860F8068C6
:10064000682F70E08BE392E028960FB6F894DEBF37
:100650000FBECDBFDF91CF910C940E0270E070649D
:100660000E940E0281E090E00895089590E080E0FD
:100670000895FC0101900020E9F73197AF01481B74
:10068000590BBC018BE392E00C94840085ED8093C0
:10069000BC008091AF019091B001A091B101B091E7
:1006A000B2010796A11DB11D23E0B695A7959795B8
:1006B00087952A95D1F72091BC0024FD03C01092A4
:1006C000F80108954091AF015091B0016091B101DE
:1006D0007091B201452B462B472B69F30097A1057A
:1006E000B10541F025E32A95F1F700000197A10932
:1006F000B109E1CF8091AE010C9467011F920F9276
:100700000FB60F9211242F933F938F939F93AF9324
:10071000BF9380911F0290912002A0912102B0917D
:10072000220230911E0223E0230F2D3758F5019647
:10073000A11DB11D20931E0280931F0290932002E1
:10074000A0932102B093220280912302909124026F
:10075000A0912502B09126020196A11DB11D8093A2
:10076000230290932402A0932502B0932602BF9106
:10077000AF919F918F913F912F910F900FBE0F904E
:100780001F90189526E8230F0296A11DB11DD2CF08
:100790001F920F920FB60F9211242F933F934F93F6
:1007A0005F936F937F938F939F93AF93BF93EF93D9
:1007B000FF938091B900887F803609F44AC0F0F534
:1007C000883209F4A7C018F5803109F49BC0B8F449
:1007D000882309F4F9C0883009F494C0FF91EF919F
:1007E000BF91AF919F918F917F916F915F914F9149
:1007F0003F912F910F900FBE0F901F901895883149
:1008000009F488C0803251F78093F70114C0803416
:1008100009F49DC040F48033B9F38833F9F680932E
:10082000F70185ECB0C0803509F485C0883509F43E
:1008300096C0883499F60E944603D0CF883909F4CF
:100840008CC038F5883729F050F4883611F080379D
:1008500029F683E08093F8011092F60157C088389A
:1008600009F47BC0803919F0803809F0B7CF809146
:10087000F601803208F071C0E091F60181E08E0F40
:100880008093F6018091BB00F0E0EA52FE4F808336
:100890003DC0803B39F0E0F4803A09F479C0883AF1
:1008A00009F09CCF84E08093F8011092D50110925A
:1008B000D401E0912902F0912A0209958091D40196
:1008C00081110FC081E08093D4011092B40109C05E
:1008D000803C09F4A6CF883C09F4A3CF883B09F0FB
:1008E0007DCFE091D50181E08E0F8093D501F0E0BE
:1008F000EC54FE4F80818093BB009091D501809194
:10090000D40129C080911D028093BB0085EC8093A7
:10091000BC0064CF90911C0280911B02981758F57F
:10092000E0911C0281E08E0F80931C02F0E0E55004
:10093000FE4F8081E9CFE0911C0281E08E0F809311
:100940001C028091BB00F0E0E550FE4F8083909147
:100950001C0280911B029817C8F285E8D8CFE0915D
:100960001C0281E08E0F80931C028091BB00F0E09E
:10097000E550FE4F80838091FA0181115CCF81E0C8
:100980008093F90184EA8093BC001092F80126CF8D
:1009900085EC8093BC001092F8018091F6018032C2
:1009A00030F4E091F601F0E0EA52FE4F10826091DF
:1009B000F60170E0E0912702F091280286ED91E0C7
:1009C00009951092F6010ACF1092F70134CFEFE2A9
:1009D000F2E01382128288EE93E0A0E0B0E084831C
:1009E0009583A683B7838CE091E091838083EBE3CA
:1009F000F2E0138212828EE191E09183808311866E
:100A00008EE3848384E1828784E0838708957894E9
:100A100084B5826084BD84B5816084BD85B5826003
:100A200085BD85B5816085BD80916E0081608093B4
:100A30006E0010928100809181008260809381001D
:100A4000809181008160809381008091800081602D
:100A5000809380008091B10084608093B100809188
:100A6000B00081608093B00080917A0084608093B0
:100A70007A0080917A00826080937A0080917A0077
:100A8000816080937A0080917A00806880937A00F8
:100A90001092C10010922E0210922D0210922C0280
:100AA00010922B020E94490182E890E090932A0262
:100AB0008093290283E890E0909328028093270294
:100AC00080E18093400280914602823018F098E1E4
:100AD00090934002809343028BE39DE00197F1F7EE
:100AE00060914002606270E08BE392E00E940E022F
:100AF0008BE496E40197F1F760914002606270E048
:100B00008BE392E00E940E0283E592E00197F1F7F9
:100B100060914002606270E08BE392E00E940E02FE
:100B200060914002606270E08BE392E00E940E02EE
:100B300084E0809341026CE070E08BE392E00E94DD
:100B40000E0261E070E08BE392E00E940E028BE304
:100B50009FE10197F1F780914402882321F060E042
:100B600080E00E94FA0282E08093420266E070E038
:100B70008BE392E00E940E0262E070E08BE392E071
:100B80000E940E028BE39FE10197F1F760E083E0A2
:100B90000E94FA0286E291E00E94390361E082E05D
:100BA0000E94FA0284E391E00E94390362E080E04F
:100BB0000E94FA0285E491E00E94390363E082E03A
:100BC0000E94FA028AE591E00E943903C0E0D0E079
:100BD0002097F1F30E940000FBCFEE0FFF1F05905E
:0A0BE000F491E02D0994F894FFCF82
:100BEA00000040001400540000000000DF01B201C0
:100BFA0036038801AB0198018901000000002E0329
:100C0A0084003603350348656C6C6F2C20776F724D
:100C1A006C6421005977726F626F74204172647537
:100C2A00696E6F210041726475696E6F204C434D85
:100C3A0020494943203230303400506F77657220A2
:0C0C4A0042792045632D7975616E210010
:00000001FF
