:020000040000FA
:040000008A11052834
:1000080009004A2083160313861306138312031369
:10001800A0015C202308A100A2012108A500210855
:10002800F9002208FA007D30F500F60189207018E1
:1000380086172108F5002208F6007D30F900FA013C
:100048008920701886130617C830F200F3013C2087
:100058000613C830F200F3013C200A286300322856
:100068000F30F000F00B36280000F50B342808009C
:10007800F30AE330F1000630F000F00B4128F10BF1
:100088003F28F20B3D28F30B3D2808008316031385
:100098009F13831203131F10831603139F111F1539
:1000A8009F141F108312031385018601870108001E
:1000B800831603139F139F111F119F101F10831284
:1000C80003139F131F179F111F129F1220189F15AC
:1000D800A0181F1620199F161F140230F50034208F
:1000E8001F1500001F1976281F10831603139F1170
:1000F8001F159F141F10831203131E08A3008316D5
:1001080003139F13831203130800F001F61FA3289B
:10011800FA1B9028F00908007509F7007609F8001D
:10012800F70A0319F80A7909F5007A09F600F50AB9
:100138000319F60A7708F9007808FA00A528FA1BC7
:10014800080076087A02031C08007A087602031C65
:0E015800B1287908750203180800F0090800A4
:02400E007A3DF9
:00000001FF
