:100000000C9469000C9491000C9491000C94910054
:100010000C9491000C9491000C9491000C9491001C
:100020000C9491000C9491000C9491000C9491000C
:100030000C9491000C9491000C9491000C949100FC
:100040000C94BE080C9491000C948C080C946608D7
:100050000C9491000C9491000C9491000C949100DC
:100060000C9408090C9491000000000800020100A3
:1000700000030407000000000000000032303A31A5
:10008000303A3532004D6172203130203230323317
:100090000000000000250028002B000000000024C4
:1000A0000027002A000404040404040404020202D9
:1000B00002020203030303030301020408102040A9
:1000C0008001020408102001020408102000270A01
:1000D000580D11241FBECFEFD8E0DEBFCDBF23E007
:1000E000A4E9B1E001C01D92A035B207E1F711E02B
:1000F000A0E0B1E0EAEBFFE102C005900D92A43967
:10010000B107D9F710E0C8E6D0E004C02197FE019E
:100110000E94D80DC736D107C9F70E94A70A0C94D0
:10012000D00F0C94000090E0FC01E754FF4F2491A5
:100130008B559F4FFC018491882399F090E0880FA4
:10014000991FFC01E556FF4FA591B491FC01EF56B4
:10015000FF4F859194918FB7F894EC91E22BEC933B
:100160008FBF089508950895AF92BF92CF92DF9206
:10017000EF92FF920F931F93CF93DF936C017B015C
:100180008B01040F151FEB015E01AE18BF08C017ED
:10019000D10759F06991D601ED91FC910190F08160
:1001A000E02DC6010995892B79F7C501DF91CF9123
:1001B0001F910F91FF90EF90DF90CF90BF90AF9085
:1001C0000895FC01538D448D252F30E0842F90E05D
:1001D000821B930B541710F0CF9608950197089542
:1001E000FC01918D828D981761F0A28DAE0FBF2F0B
:1001F000B11D5D968C91928D9F5F9F73928F90E061
:1002000008958FEF9FEF0895FC01918D828D9817CF
:1002100031F0828DE80FF11D858D90E008958FEF0C
:100220009FEF0895FC01918D228D892F90E0805CD5
:100230009F4F821B91098F739927089581E692E061
:100240000E94120121E0892B09F420E0822F0895F9
:1002500080E090E0892B29F00E941E0181110C940E
:1002600000000895FC01A48DA80FB92FB11DA35A59
:10027000BF4F2C91848D90E001968F739927848FC6
:10028000A689B7892C93A089B1898C9183708064E9
:100290008C93938D848D981306C00288F389E02D8A
:1002A00080818F7D80830895EF92FF920F931F933B
:1002B000CF93DF93EC0181E0888F9B8D8C8D981319
:1002C0001AC0E889F989808185FF15C09FB7F89425
:1002D000EE89FF896083E889F98980818370806471
:1002E00080839FBF81E090E0DF91CF911F910F91BC
:1002F000FF90EF900895F62E0B8D10E00F5F1F4FCB
:100300000F731127E02E8C8D8E110CC00FB607FCD9
:10031000FACFE889F989808185FFF5CFCE010E9467
:100320003201F1CFEB8DEC0FFD2FF11DE35AFF4FA2
:10033000F0829FB7F8940B8FEA89FB8980818062F5
:10034000CFCFCF93DF93EC01888D8823B9F0AA89B2
:10035000BB89E889F9898C9185FD03C0808186FD80
:100360000DC00FB607FCF7CF8C9185FFF2CF8081CF
:1003700085FFEDCFCE010E943201E9CFDF91CF9111
:10038000089590E0FC01E859FF4F2491FC01E754E7
:10039000FF4F3491FC01EB55FF4FE491EE23C9F080
:1003A000222339F0233001F1A8F4213019F1223051
:1003B00029F1F0E0EE0FFF1FEF56FF4FA591B4912A
:1003C0008FB7F894EC91611126C030953E233C9391
:1003D0008FBF08952730A9F02830C9F0243049F79D
:1003E000809180008F7D03C0809180008F77809303
:1003F0008000DFCF84B58F7784BDDBCF84B58F7D60
:10040000FBCF8091B0008F778093B000D2CF8091E6
:10041000B0008F7DF9CF3E2BDACF3FB7F8948091B3
:10042000DD019091DE01A091DF01B091E00126B5E0
:10043000A89B05C02F3F19F00196A11DB11D3FBF1C
:10044000BA2FA92F982F8827BC01CD01620F711DEB
:10045000811D911D42E0660F771F881F991F4A95E5
:10046000D1F708958F929F92AF92BF92CF92DF9271
:10047000EF92FF924B015C010E940D026B017C0127
:100480000E940D026C197D098E099F09683E734018
:1004900081059105A8F321E0821A9108A108B1080D
:1004A00088EEC80E83E0D81EE11CF11C8114910473
:1004B000A104B10429F7FF90EF90DF90CF90BF9097
:1004C000AF909F908F90089508952091B501260FC9
:1004D0003327331F21323105ECF420913702FC0120
:1004E00090E080E0243069F082E00895A091B501A9
:1004F0002191AC014B565E4FA40FB52FB11D2C932B
:100500000196861798F38091B501680F6093B50145
:1005100080E0089581E008951092370281E0809391
:1005200036021092110261E082E10E94C10161E095
:1005300083E10E94C101E9EBF0E080818E7F80833E
:1005400080818D7F808388E48093B80085E48093E8
:10055000BC000895CF93DF9391E09093940188239A
:10056000B9F0C091B800D091BA008091BC008A7BEC
:100570008093BC0060E082E10E94C10160E083E101
:100580000E94C1010E948C02D093BA00C093B800AF
:10059000DF91CF9108958F929F92AF92BF92CF92A9
:1005A000DF92EF92FF920F931F93CF93DF93D0913F
:1005B0006002D13208F0D7C0182FC0915F020E94AC
:1005C0000D026B017C018091370281116BC082E0CA
:1005D00080933702109336028FEF8093350210928A
:1005E0003402D0933302AFE3B2E0E3E1F2E080E023
:1005F000D81391C01092120280911202CC0FC82B16
:10060000C093120280911102813009F088C01092CB
:1006100011020E940D026B017C01809112028093F5
:10062000BB008091390290913A02A0913B02B091B7
:100630003C02892B8A2B8B2BA1F00E940D0200918A
:10064000390210913A0220913B0230913C026C1920
:100650007D098E099F09061717072807390708F42F
:1006600042C08091BC0083FDD8CF85EC8093BC0054
:100670000E940D026B017C0180913702823009F4E7
:1006800050C0809135028F3F09F46FC080913502D0
:10069000803209F46CC080913502803309F469C05E
:1006A00084E026C08091390290913A02A0913B02E9
:1006B000B0913C02892B8A2B8B2B09F484CF0E94AA
:1006C0000D028090390290903A02A0903B02B090C7
:1006D0003C026C197D098E099F0986169706A806AB
:1006E000B90608F070CF809138020E94AA0285E016
:1006F00010923E021092600210923D02DF91CF9163
:100700001F910F91FF90EF90DF90CF90BF90AF902F
:100710009F908F9008959D9191938F5F69CF85EE03
:10072000A5CF8091390290913A02A0913B02B091FD
:100730003C02892B8A2B8B2B09F49ECF0E940D0241
:100740000091390210913A0220913B0230913C0213
:100750006C197D098E099F090617170728073907A5
:1007600008F08ACFC0CF81E0C3CF80E0C1CF82E064
:10077000BFCF83E0BDCF0895E091F0018091EF01FC
:10078000E81730F4F0E0EF50FE4F808190E00895DC
:100790008FEF9FEF08959091F0018091EF012FEF7F
:1007A0003FEF981748F4E92FF0E0EF50FE4F20811B
:1007B00030E09F5F9093F001C90108958091EF01AF
:1007C0009091F001891B990B0895CF92DF92EF92DF
:1007D000FF920F931F93CF93DF937C01CB018A018C
:1007E00020913D02222389F0EB016B01C40ED51E3E
:1007F000CC15DD0569F06991D701ED91FC9101906F
:10080000F081E02DC7010995F3CF642F0E946502A6
:10081000C801DF91CF911F910F91FF90EF90DF9072
:10082000CF900895CF93DF931F92CDB7DEB7698342
:1008300020913D022223F9F020916002203258F0ED
:1008400021E030E0FC013383228390E080E00F90D0
:10085000DF91CF91089580913E02E82FF0E0E15CB6
:10086000FD4F998190838F5F80933E028093600259
:1008700081E090E0ECCF61E0CE0101960E9465023C
:10088000F7CF90E080E00895CF93DF93EC018B8168
:100890008823A1F0888191E090933D0280935F02CC
:1008A00010923E021092600281E00E94CB0291E021
:1008B000811190E0892FDF91CF9108951092F0017E
:1008C0001092EF0110923E02109260020E948C0280
:1008D00082EB90E09093E4018093E30183EB90E05E
:1008E0009093E2018093E10181E08B83CE010E942D
:1008F0004404982F8111CECFDDCFFC01908190531D
:100900009A3008F090E0818180532AE0929F800D18
:10091000112408952F923F924F925F926F927F928F
:100920008F929F92AF92BF92CF92DF92EF92FF92FF
:100930000F931F93CF93DF935C011B016A01F12C8E
:10094000E12CD50114968D919C9186010E191F09F9
:100950008017910708F48C01F501D0810E940D02E7
:100960002B013C0180913702811172C0C02F0132EE
:1009700008F0C0E2F1E0F093370221E0C601801BED
:10098000910BE816F90608F420E0209336028FEF69
:1009900080933502109234028C0F80933302A1E0D1
:1009A000A093120280911202DD0FD82BD093120275
:1009B00080911102813009F090C0109211020E94C2
:1009C0000D022B013C01809112028093BB008091AB
:1009D000390290913A02A0913B02B0913C02892BDE
:1009E0008A2B8B2BA1F00E940D02209139023091AD
:1009F0003A0240913B0250913C0264197509860904
:100A00009709261737074807590708F442C080910D
:100A1000BC0083FDD8CFB5ECB093BC000E940D02A2
:100A20002B013C0180913702813009F45AC080913A
:100A300034028C1710F4C0913402A3E1B2E0E1EF6C
:100A4000F1E080E08C1751F19D9191938F5FFACF87
:100A50008091390290913A02A0913B02B0913C0200
:100A6000892B8A2B8B2B09F47DCF0E940D022091BC
:100A7000390230913A0240913B0250913C02641994
:100A8000750986099709261737074807590708F097
:100A900069CF809138020E94AA02C0E01092F00152
:100AA000C093EF01C017110609F057C041018E0C29
:100AB0009F1CE401CE01881999098017910798F5C8
:100AC000D50111968D919C91DC01ED91FC910284F0
:100AD000F385E02D09958993EDCFE5EEE093BC0019
:100AE0009DCF8091390290913A02A0913B02B09142
:100AF0003C02892B8A2B8B2B09F494CF0E940D0288
:100B00002091390230913A0240913B0250913C02CF
:100B10006419750986099709261737074807590781
:100B200008F080CFB6CFE00EF11EEC14FD0408F4FF
:100B300008CF81E0DF91CF911F910F91FF90EF904F
:100B4000DF90CF90BF90AF909F908F907F906F90ED
:100B50005F904F903F902F90089580E0EBCF1F93D0
:100B6000CF93DF93DC011496ED91FC91E417F50728
:100B700010F490E01FC0122FEA01FC0181819281E4
:100B8000208131E030933D0220935F0210923E02BB
:100B900010926002DC01ED91FC910280F381E02D66
:100BA0000995C817D90729F7812F0E94CB0291E038
:100BB0008111DFCF892FDF91CF911F910895CF93BE
:100BC000DF9300D0CDB7DEB7198221E041E050E0DD
:100BD000BE016F5F7F4F8091ED019091EE010E9409
:100BE000AF0541E050E0BE016E5F7F4F8091ED01A7
:100BF0009091EE010E948A048A8190E0880F892FEB
:100C0000881F990B21E082270F900F90DF91CF91E1
:100C10000895CF93DF93EC0160E08E810E94C101C3
:100C200061E08E810E94C10160E08E810E94C1015D
:100C30008BE891E00197F1F7DF91CF910895CF9282
:100C4000DF92EF92FF920F931F93CF93DF936C018C
:100C50007C0187E0E80EF11CD0E0C0E0062F10E038
:100C6000B8010C2E02C0759567950A94E2F7617081
:100C7000F70181917F010E94C1012196C430D10505
:100C800079F7C601DF91CF911F910F91FF90EF90FF
:100C9000DF90CF900C940906CF92DF92EF92FF92F3
:100CA0000F931F93CF93DF93EC01F62E642F8C816B
:100CB0000E94C1018D818F3F19F060E00E94C10147
:100CC0000F2D10E08F8584FF25C06E0187E0C80ED0
:100CD000D11CF12CE12CB8010E2C02C07595679542
:100CE0000A94E2F76170F60181916F010E94C101DF
:100CF000FFEFEF1AFF0A88E0E816F10461F7CE0172
:100D0000DF91CF911F910F91FF90EF90DF90CF90E7
:100D10000C940906B80184E0759567958A95E1F70A
:100D2000CE010E941F066F2DCE01DF91CF911F9142
:100D30000F91FF90EF90DF90CF900C941F0640E052
:100D4000682F8AE093E00C944C0681E00E949F0695
:100D50008BE39FE10197F1F70895CF93DF93823002
:100D600029F49091190398609093190380931D03BF
:100D700010921E0380E480931F0380E18093200380
:100D800080E58093210380910E030E94930080915F
:100D90000F038F3F11F00E949300809110030E9477
:100DA0009300CAE0D3E09E012A503340809119039A
:100DB00084FD0AC084E090E02196281739073CF4AE
:100DC0008E810E949300EFCF88E090E0F5CF8BE317
:100DD0009DE00197F1F760E080910E030E94C10150
:100DE00060E0809110030E94C10180910F038F3F4A
:100DF00019F060E00E94C1018091190384FD34C0A4
:100E000063E08AE093E00E941F06CBE4D6E4CE01C3
:100E10000197F1F763E08AE093E00E941F062197B3
:100E2000F1F763E08AE093E00E941F0683E592E019
:100E30000197F1F762E08AE093E00E941F0680913B
:100E4000190380620E949F0684E080931A038CE05D
:100E50000E949F060E94A50682E080931B0386E005
:100E6000DF91CF910C949F0680620E949F068BE4D5
:100E700096E40197F1F78091190380620E949F0622
:100E800083E592E00197F1F78091190380620E9457
:100E90009F06D5CFEC010E94A506E1E080911D03DD
:100EA0008111E0E0E195F0E0E65FFC4F84898E5F20
:100EB00080680E949F064C815D81688179818AE00B
:100EC00093E00E94B40061E08DE00E94C10168ECF3
:100ED00070E080E090E00E94320260E08DE00E94CD
:100EE000C10168EC70E080E090E00E943202EBCF3C
:100EF00041E00E944C0681E090E00895FC010190E1
:100F00000020E9F73197AF01481B590BBC018AE07B
:100F100093E00C94B400CF92DF92EF92FF920F9384
:100F20001F93CF93DF93CDB7DEB7A1970FB6F89499
:100F3000DEBF0FBECDBF182F84E491E0613021F0F9
:100F4000623021F486E491E00E947E071A3020F49A
:100F500088E491E00E947E07212F30E050E040E0DD
:100F600019A28E010F5D1F4F8AE0C82ED12CE12CF3
:100F7000F12CCA01B901A70196010E94B60D605D6E
:100F8000F80162938F01211531054105510589F75B
:100F9000309761F001900020E9F73197AF01401BD5
:100FA000510BB8018AE093E00E94B400A1960FB6FD
:100FB000F894DEBF0FBECDBFDF91CF911F910F918F
:100FC000FF90EF90DF90CF900895EF92FF920F93F4
:100FD0001F93CF93DF93EC017B01198218821B8250
:100FE0001A821D821C82FB0101900020E9F73197D3
:100FF0008F01061B170BB8016F5F7F4F90E080E0F9
:101000000E94030F0097B9F0998388831B830A839A
:101010002C813D81232B11F4FC0110821D830C8354
:10102000B70188819981DF91CF911F910F91FF9036
:10103000EF900C94C90F88819981009711F00E945C
:101040007A0E198218821D821C821B821A82DF91FD
:10105000CF911F910F91FF90EF90089585ED8093B0
:10106000BC008091390290913A02A0913B02B0916C
:101070003C020796A11DB11D23E0B695A795979553
:1010800087952A95D1F72091BC0024FD03C01092CA
:10109000370208954091390250913A0260913B0223
:1010A00070913C02452B462B472B69F30097A10515
:1010B000B10541F025E32A95F1F700000197A10958
:1010C000B109E1CF809138020C94AA021F920F92CD
:1010D0000FB60F9211242F933F934F935F936F930B
:1010E0007F938F939F93AF93BF93EF93FF9381E68B
:1010F00092E00E943201FF91EF91BF91AF919F91D9
:101100008F917F916F915F914F913F912F910F90B0
:101110000FBE0F901F9018951F920F920FB60F924F
:1011200011242F938F939F93EF93FF93E09171027C
:10113000F09172028081E0917702F091780282FD55
:101140001BC0908180917A028F5F8F7320917B0208
:10115000821741F0E0917A02F0E0EF59FD4F958F50
:1011600080937A02FF91EF919F918F912F910F9031
:101170000FBE0F901F9018958081F4CF1F920F9291
:101180000FB60F9211242F933F938F939F93AF939A
:10119000BF938091D9019091DA01A091DB01B091C8
:1011A000DC013091D80123E0230F2D3758F501964B
:1011B000A11DB11D2093D8018093D9019093DA012C
:1011C000A093DB01B093DC018091DD019091DE0101
:1011D000A091DF01B091E0010196A11DB11D8093A6
:1011E000DD019093DE01A093DF01B093E001BF9198
:1011F000AF919F918F913F912F910F900FBE0F90C4
:101200001F90189526E8230F0296A11DB11DD2CF7D
:101210001F920F920FB60F9211242F933F934F936B
:101220005F936F937F938F939F93AF93BF93EF934E
:10123000FF938091B900887F803609F44AC0F0F5A9
:10124000883209F4A7C018F5803109F49BC0B8F4BE
:10125000882309F4F9C0883009F494C0FF91EF9114
:10126000BF91AF919F918F917F916F915F914F91BE
:101270003F912F910F900FBE0F901F9018958831BE
:1012800009F488C0803251F78093350214C080344D
:1012900009F49DC040F48033B9F38833F9F68093A4
:1012A000350285ECB0C0803509F485C0883509F475
:1012B00096C0883499F60E942E08D0CF883909F458
:1012C0008CC038F5883729F050F4883611F0803713
:1012D00029F683E0809337021092D70157C08838EF
:1012E00009F47BC0803919F0803809F0B7CF8091BC
:1012F000D701803208F071C0E091D70181E08E0FF4
:101300008093D7018091BB00F0E0E954FE4F8083C9
:101310003DC0803B39F0E0F4803A09F479C0883A66
:1013200009F09CCF84E0809337021092B6011092AE
:10133000B501E091E301F091E40109958091B501D7
:1013400081110FC081E08093B5011092950109C011
:10135000803C09F4A6CF883C09F4A3CF883B09F070
:101360007DCFE091B60181E08E0F8093B601F0E071
:10137000EB56FE4F80818093BB009091B601809127
:10138000B50129C0809112028093BB0085EC809347
:10139000BC0064CF9091340280913302981758F5C5
:1013A000E091340281E08E0F80933402F0E0ED5E34
:1013B000FD4F8081E9CFE091340281E08E0F809370
:1013C00034028091BB00F0E0ED5EFD4F8083909190
:1013D0003402809133029817C8F285E8D8CFE091A3
:1013E000340281E08E0F809334028091BB00F0E0E4
:1013F000ED5EFD4F80838091360281115CCF81E0EC
:101400008093110284EA8093BC001092370226CFA9
:1014100085EC8093BC00109237028091D701803216
:1014200030F4E091D701F0E0E954FE4F1082609172
:10143000D70170E0E091E101F091E20187EB91E0EA
:1014400009951092D7010ACF1092350234CFE1E608
:10145000F2E01382128288EE93E0A0E0B0E0848391
:101460009583A683B78328E131E03183208325EC7F
:1014700030E03587248724EC30E03787268720EC5E
:1014800030E0318B208B21EC30E0338B228B22EC4F
:1014900030E0358B248B26EC30E0378B268B118E99
:1014A000128E138E148EEEEFF2E01382128284837A
:1014B0009583A683B7838AE291E0918380836AE46F
:1014C00071E082E293E00E94E5076EE471E088E259
:1014D00093E00E94E50762E571E08EE293E00E94EE
:1014E000E50766E571E084E393E00E94E5076AE5BD
:1014F00071E08AE393E00E94E5076EE571E080E425
:1015000093E00E94E50762E671E086E493E00E94C2
:10151000E507EAE0F3E0138212828CE391E0918325
:1015200080838CE084838FEF85838BE0868385E0E6
:10153000878384E0808783E0818782E082871386C7
:10154000148615861686178681E00C94AD06CF9317
:10155000DF93CDB7DEB72B970FB6F894DEBF0FBE83
:10156000CDBF789484B5826084BD84B5816084BD2C
:1015700085B5826085BD85B5816085BD80916E0031
:10158000816080936E001092810080918100826062
:10159000809381008091810081608093810080919F
:1015A00080008160809380008091B100846080938E
:1015B000B1008091B00081608093B00080917A008A
:1015C000846080937A0080917A00826080937A00B0
:1015D00080917A00816080937A0080917A0080689F
:1015E00080937A001092C100E0917102F091720232
:1015F00082E08083E0916D02F0916E021082E091B2
:101600006F02F09170028FEC808310927902E0916A
:101610007502F091760286E08083E0917302F0918A
:101620007402808180618083E0917302F091740282
:10163000808188608083E0917302F09174028081E0
:1016400080688083E0917302F091740280818F7DC5
:1016500080838DE00E94930082E00E94AD060E948C
:10166000A5068091ED019091EE01009711F00E9486
:101670007A0E86E090E00E94DE0D7C0188E6F7019C
:1016800080838EEF92E092838183138280E290E0E8
:1016900095838483F092EE01E092ED011092F001C7
:1016A0001092EF0110923E02109260020E948C0292
:1016B00082EB90E09093E4018093E30183EB90E070
:1016C0009093E2018093E10181E0F7018383C701F8
:1016D0000E9444049E012F5F3F4F790166E671E04E
:1016E000882309F496C00E94DF0581118CC04BE06D
:1016F00050E065E870E0C7010E946A0DCE010A96CD
:101700000E947D04082FE981E154E331D8F40E2EC4
:10171000000CFF0BE257F44F0C94D80D1B0CA20BDE
:10172000A20B2F0CA20BA10BA20BA20BA20B0F0C56
:10173000A20BA20B220C2D0C2B0CA20BA20BA20BAA
:10174000290C12E0CE0105960E947D04D82E48E0B7
:1017500050E06CE770E0C7010E946A0DC7010E946B
:101760007D04C82ECE0104960E947D04B82ECE01C1
:1017700007960E947D04382F86E0F70111928A9522
:10178000E9F72AE0832F622F0E94AA0D982F880F75
:10179000890F880F830F8A838B2D0E94AA0D982FA3
:1017A000880F890F880F8B0D8B838C2D0E94AA0DBB
:1017B000982F880F890F880F8C0D8C838D2D0E9498
:1017C000AA0D982F880F890F880F8D0D8E83812F7A
:1017D0000E94AA0D982F990F890F880F180F1F8349
:1017E000802F0E94AA0D982F880F890F880F800FD5
:1017F000888721E048E050E0B7018091ED019091A9
:10180000EE010E94AF050E94DF0581112AC065E745
:1018100071E0C7010E94E507C7010E944A078A815B
:1018200011E0813609F48ECF8B8117E08E3609F0F6
:1018300089CF16E087CF8B8118E0823709F082CFFD
:1018400014E080CF8B8115E0823709F07BCF13E065
:1018500079CF19E077CF1AE075CF1BE073CF1CE08A
:1018600071CF86E891E00E947E076CE271E080E033
:1018700090E00E9432020E94A50692E0D92E00E07C
:1018800010E025E0C22E37E0B32E61E08DE00E942B
:10189000C1018091EC01811124C0C092EC01E09162
:1018A0000001F0910101EE0FFF1FE85FFE4F808104
:1018B000B9828A8321E042E050E0B7018091ED01D6
:1018C0009091EE010E94AF0580910001909101017D
:1018D0000196863091050CF0E6C09093010180934B
:1018E00000018091EC0181508093EC0168EC70E084
:1018F00080E090E00E94320219828090ED01909089
:10190000EE0120E041E050E0B701C4010E94AF05C4
:10191000882331F047E050E0B701C4010E948A04F7
:1019200089818F779A81FB81ED817E816F81482F3C
:1019300050E024E0559547952A95E1F7242F220F92
:10194000220F421B440F480F4093E501292F30E03E
:1019500044E0359527954A95E1F7822F880F880F47
:10196000281B220F290F2093E6018F2F90E054E0CF
:10197000959587955A95E1F7982F990F990F891B9F
:10198000880F8F0F8093E701D092EB014E2F50E02C
:10199000F4E055954795FA95E1F7842F880F880F65
:1019A000481B440F4E0F4093EA01272F30E0A4E07C
:1019B00035952795AA95E1F7822F880F880F281B68
:1019C000220F270F2093E901862F90E0B4E0959530
:1019D0008795BA95E1F7982F990F990F891B880F72
:1019E0006053860F8093E801E1E080911D0381112F
:1019F000E0E0E195F0E0E65FFC4F84898E5F80686F
:101A00000E949F06409132035091330360912E0350
:101A100070912F038AE093E00E94B40082E991E084
:101A20000E947E0760E08091EA010E948B0761E0DE
:101A30008091E9010E948B0761E08091E8010E949A
:101A40008B07E0911D03E23088F5E150F0E0E65F9E
:101A5000FC4F84898C5F80680E949F0660E08091C3
:101A6000E7010E948B0762E08091E6010E948B07EC
:101A700062E08091E5010E948B0760E08DE00E94AA
:101A8000C1016CE271E080E090E00E943202011539
:101A9000110509F4FACE0E941E01882309F4F5CE3F
:101AA0000E940000F2CE82E090E017CFE1E0CECFBE
:101AB000CF93DF93CCE4D3E0269788819981009778
:101AC00011F00E947A0E83E0C232D807A9F7DF91A5
:101AD000CF910895FB01DC0102C005900D924150A9
:101AE0005040D8F708952F923F924F925F926F9295
:101AF0007F928F929F92AF92BF92CF92DF92EF929E
:101B0000FF920F931F93CF93DF93CDB7DEB7CA1B1E
:101B1000DB0B0FB6F894DEBF0FBECDBF09942A8849
:101B2000398848885F846E847D848C849B84AA84F1
:101B3000B984C884DF80EE80FD800C811B81AA817E
:101B4000B981CE0FD11D0FB6F894DEBF0FBECDBF49
:101B5000ED010895991B79E004C0991F961708F0CC
:101B6000961B881F7A95C9F780950895A1E21A2ED1
:101B7000AA1BBB1BFD010DC0AA1FBB1FEE1FFF1F31
:101B8000A217B307E407F50720F0A21BB30BE40B81
:101B9000F50B661F771F881F991F1A9469F76095C8
:101BA0007095809590959B01AC01BD01CF01089582
:101BB000EE0FFF1F0590F491E02D09940F931F93F2
:101BC000CF93DF938230910510F482E090E0E091B2
:101BD0004E03F0914F0330E020E0B0E0A0E03097FA
:101BE00099F42115310509F44AC0281B390B24301A
:101BF0003105D8F58A819B816115710589F1FB0159
:101C000093838283FE0111C040815181028113813F
:101C100048175907E0F04817590799F4109761F0F1
:101C200012960C93129713961C933296CF01DF9164
:101C3000CF911F910F91089500934E0310934F037E
:101C4000F4CF2115310551F04217530738F0A9019F
:101C5000DB019A01BD01DF01F801C1CFEF01F9CF2E
:101C600090934F0380934E03CDCFFE01E20FF31FFD
:101C7000819391932250310939832883D7CF2091C2
:101C80004C0330914D03232B41F4209104013091FA
:101C9000050130934D0320934C03209102013091B4
:101CA00003012115310541F42DB73EB740910601DE
:101CB00050910701241B350BE0914C03F0914D032B
:101CC000E217F307A0F42E1B3F0B2817390778F013
:101CD000AC014E5F5F4F2417350748F04E0F5F1F72
:101CE00050934D0340934C03819391939FCFF0E029
:101CF000E0E09CCFCF93DF930097E9F0FC013297AF
:101D000013821282A0914E03B0914F03ED0130E097
:101D100020E01097A1F420813181820F931F209140
:101D20004C0330914D032817390709F061C0F09337
:101D30004D03E0934C03DF91CF910895EA01CE1754
:101D4000DF07E8F54A815B819E0141155105B1F736
:101D5000E901FB83EA8349915991C40FD51FEC1720
:101D6000FD0761F4808191810296840F951FE9013E
:101D700099838883828193819B838A83F0E0E0E06A
:101D800012968D919C9113970097B9F52D913C91E6
:101D90001197CD010296820F931F20914C03309131
:101DA0004D032817390739F6309751F510924F0334
:101DB00010924E03B0934D03A0934C03BCCFD3833A
:101DC000C28340815181840F951FC817D90761F4E0
:101DD0004E5F5F4F88819981480F591F518340831F
:101DE0008A819B81938382832115310509F0B0CFCD
:101DF000F0934F03E0934E039ECFFD01DC01C0CF73
:101E000013821282D7CFB0E0A0E0E9E0FFE00C94AB
:101E1000750D8C01009751F4CB010E94DE0D8C01F1
:101E2000C801CDB7DEB7E0E10C94910DFC01E60FDF
:101E3000F71F9C0122503109E217F30708F49DC0F7
:101E4000D901CD91DC911197C617D70798F0C5300D
:101E5000D10530F3CE0104978617970708F3C61B08
:101E6000D70B2297C193D1936D937C93CF010E949E
:101E70007A0ED6CF5B01AC1ABD0A4C018C0E9D1EAA
:101E8000A0914E03B0914F03512C412CF12CE12C29
:101E9000109731F580914C0390914D038815990569
:101EA00009F05CC04616570608F058C08091020140
:101EB00090910301009741F48DB79EB740910601C0
:101EC00050910701841B950BE817F90708F055C0DE
:101ED000F0934D03E0934C03F90171836083A0CF2D
:101EE0008D919C91119712966C90129713967C90FD
:101EF0001397A815B90559F56C0142E0C40ED11C21
:101F0000CA14DB0420F1AC014A195B09DA0112960C
:101F1000159780F06282738251834083D9016D935B
:101F20007C93E114F10471F0D7011396FC93EE93C6
:101F3000129776CF22968C0F9D1FF9019183808393
:101F4000F301EFCFF0934F03E0934E0369CF4816B0
:101F5000590608F42C017D01D3019ACFCB010E94D0
:101F6000DE0D7C01009749F0AE01B8010E94C00F60
:101F7000C8010E947A0E870153CF10E000E050CFD5
:101F8000FB01DC0102C001900D9241505040D8F796
:101F90000895FB01DC0101900D920020E1F7089506
:101FA00010E0C8E6D0E004C0FE010E94D80D2196E2
:0A1FB000C936D107C9F7F894FFCF36
:101FBA0002000000500380000000800010001100A1
:101FCA0012001300000000005401B400E100A10156
:101FDA001201F0000401000000001204E5034104AC
:101FEA00BB03DE03CB03BC03000000007807B40088
:101FFA00410464022F003A00300053756E004D6FA1
:10200A006E00547565005765640054687500467221
:10201A0069005361740052544320496E6974204523
:10202A0052524F5200525443204E4F542052756E12
:10203A006E696E6721005254432052756E6E696E46
:04204A00670020000B
:00000001FF
