:100000000C945E000C9486000C9486000C94860080
:100010000C9486000C9486000C9486000C94860048
:100020000C9486000C9486000C9486000C94860038
:100030000C9486000C9486000C9486000C94860028
:100040000C941A040C9486000C9486000C94860080
:100050000C9486000C9486000C9486000C94860008
:100060000C9464040C948600000000080002010057
:100070000003040700000000000000000000000072
:10008000250028002B0000000000240027002A0083
:10009000040404040404040402020202020203032E
:1000A0000303030301020408102040800102040836
:1000B0001020010204081020CC05F20811241FBEF4
:1000C000CFEFD8E0DEBFCDBF22E0A8E4B1E001C0B1
:1000D0001D92A436B207E1F711E0A0E0B1E0E4EC34
:1000E000F6E102C005900D92A834B107D9F710E0EF
:1000F000CDE5D0E004C02197FE010E945D09CC351A
:10010000D107C9F70E9424060C94550B0C940000EB
:1001100090E0FC01EC55FF4F249180579F4FFC016C
:100120008491882399F090E0880F991FFC01EA5789
:10013000FF4FA591B491FC01E458FF4F8591949134
:100140008FB7F894EC91E22BEC938FBF089508954C
:100150000895AF92BF92CF92DF92EF92FF920F93EA
:100160001F93CF93DF936C017B018B01040F151F4D
:10017000EB015E01AE18BF08C017D10759F06991B5
:10018000D601ED91FC910190F081E02DC601099519
:10019000892B79F7C501DF91CF911F910F91FF90C6
:1001A000EF90DF90CF90BF90AF90089590E0FC016A
:1001B000E859FF4F2491FC01EC55FF4F3491FC01AD
:1001C000E057FF4FE491EE23C9F0222339F02330AA
:1001D00001F1A8F4213019F1223029F1F0E0EE0FFD
:1001E000FF1FE458FF4FA591B4918FB7F894EC919D
:1001F000611126C030953E233C938FBF0895273070
:10020000A9F02830C9F0243049F7809180008F7D13
:1002100003C0809180008F7780938000DFCF84B50A
:100220008F7784BDDBCF84B58F7DFBCF8091B0000D
:100230008F778093B000D2CF8091B0008F7DF9CFBF
:100240003E2BDACF3FB7F8948091910190919201C3
:10025000A0919301B091940126B5A89B05C02F3FB2
:1002600019F00196A11DB11D3FBFBA2FA92F982FDC
:100270008827BC01CD01620F711D811D911D42E0D7
:10028000660F771F881F991F4A95D1F70895089523
:1002900020916901260F3327331F21323105ECF4F9
:1002A0002091E301FC0190E080E0243069F082E0DD
:1002B0000895A09169012191AC01475B5E4FA40FA5
:1002C000B52FB11D2C930196861798F38091690183
:1002D000680F6093690180E0089581E008951092AD
:1002E000E30181E08093E2011092DD0161E082E1AF
:1002F0000E94D60061E083E10E94D600E9EBF0E0C5
:1003000080818E7F808380818D7F808388E480934D
:10031000B80085E48093BC000895CF93DF9391E00B
:10032000909348018823B9F0C091B800D091BA00E9
:100330008091BC008A7B8093BC0060E082E10E94D7
:10034000D60060E083E10E94D6000E946F01D09346
:10035000BA00C093B800DF91CF9108950895E0915D
:10036000EA018091E901E81730F4F0E0E551FE4F31
:10037000808190E008958FEF9FEF08959091EA01BA
:100380008091E9012FEF3FEF981748F4E92FF0E053
:10039000E551FE4F208130E09F5F9093EA01C90153
:1003A00008958091E9019091EA01891B990B0895C4
:1003B000CF92DF92EF92FF920F931F93CF93DF9331
:1003C0007C01CB018A0120919901222389F0EB0164
:1003D0006B01C40ED51ECC15DD0569F06991D701FE
:1003E000ED91FC910190F081E02DC7010995F3CFCB
:1003F000642F0E944801C801DF91CF911F910F9196
:10040000FF90EF90DF90CF900895CF93DF931F92EE
:10041000CDB7DEB76983209199012223F9F02091AD
:10042000BC01203258F021E030E0FC01338322830C
:1004300090E080E00F90DF91CF91089580919A0134
:10044000E82FF0E0E556FE4F998190838F5F80930F
:100450009A018093BC0181E090E0ECCF61E0CE0195
:1004600001960E944801F7CF90E080E00895CF9375
:10047000DF93EC0160E08E810E94D60061E08E8106
:100480000E94D60060E08E810E94D6008BE891E049
:100490000197F1F7DF91CF910895CF92DF92EF921C
:1004A000FF920F931F93CF93DF936C017C0187E042
:1004B000E80EF11CD0E0C0E0062F10E0B8010C2ED1
:1004C00002C0759567950A94E2F76170F701819112
:1004D0007F010E94D6002196C430D10579F7C6016C
:1004E000DF91CF911F910F91FF90EF90DF90CF9010
:1004F0000C943702CF92DF92EF92FF920F931F93EB
:10050000CF93DF93EC01F62E642F8C810E94D600EE
:100510008D818F3F19F060E00E94D6000F2D10E012
:100520008F8584FF25C06E0187E0C80ED11CF12C99
:10053000E12CB8010E2C02C0759567950A94E2F77C
:100540006170F60181916F010E94D600FFEFEF1AF2
:10055000FF0A88E0E816F10461F7CE01DF91CF9140
:100560001F910F91FF90EF90DF90CF900C94370286
:10057000B80184E0759567958A95E1F7CE010E94F0
:100580004D026F2DCE01DF91CF911F910F91FF9002
:10059000EF90DF90CF900C944D0240E0682F8EE1F9
:1005A00092E00C947A02CF93DF93823029F49091F9
:1005B0002D02986090932D028093310210923202A6
:1005C00080E48093330280E18093340280E580935D
:1005D0003502809122020E948800809123028F3F81
:1005E00011F00E948800809124020E948800CEE1D0
:1005F000D2E09E012E51324080912D0284FD0AC02E
:1006000084E090E02196281739073CF48E810E94FF
:100610008800EFCF88E090E0F5CF8BE39DE0019775
:10062000F1F760E0809122020E94D60060E08091A4
:1006300024020E94D600809123028F3F19F060E0CF
:100640000E94D60080912D0284FD39C063E08EE1C6
:1006500092E00E944D02CBE4D6E4CE010197F1F77F
:1006600063E08EE192E00E944D022197F1F763E092
:100670008EE192E00E944D0283E592E00197F1F74E
:1006800062E08EE192E00E944D0280912D02806234
:100690000E94CD0284E080932E028CE00E94CD0265
:1006A00081E00E94CD028BE39FE10197F1F782E0A8
:1006B00080932F0286E0DF91CF910C94CD0280626F
:1006C0000E94CD028BE496E40197F1F780912D0210
:1006D00080620E94CD0283E592E00197F1F780915C
:1006E0002D0280620E94CD02D0CF41E00E947A02AA
:1006F00081E090E00895FC0101900020E9F7319736
:10070000AF01481B590BBC018EE192E00C94A9008B
:10071000CF92DF92EF92FF920F931F93CF93DF93CD
:10072000CDB7DEB7A1970FB6F894DEBF0FBECDBF31
:10073000182F84E291E0613021F0623021F486E2EA
:1007400091E00E947B031A3020F488E291E00E943D
:100750007B03212F30E050E040E019A28E010F5DB5
:100760001F4F8AE0C82ED12CE12CF12CCA01B9010F
:10077000A70196010E943B09605DF80162938F0119
:10078000211531054105510589F7309761F0019038
:100790000020E9F73197AF01401B510BB8018EE102
:1007A00092E00E94A900A1960FB6F894DEBF0FBE9A
:1007B000CDBFDF91CF911F910F91FF90EF90DF9010
:1007C000CF90089585ED8093BC008091E5019091D4
:1007D000E601A091E701B091E8010796A11DB11DC6
:1007E00023E0B695A795979587952A95D1F72091FF
:1007F000BC0024FD03C01092E30108954091E5017F
:100800005091E6016091E7017091E801452B462B7C
:10081000472B69F30097A105B10541F025E32A951F
:10082000F1F700000197A109B109E1CF8091E4013E
:100830000C948D011F920F920FB60F9211242F93DB
:100840003F938F939F93AF93BF9380918D0190912E
:100850008E01A0918F01B091900130918C0123E025
:10086000230F2D3758F50196A11DB11D20938C0142
:1008700080938D0190938E01A0938F01B09390018E
:100880008091910190919201A0919301B091940176
:100890000196A11DB11D8093910190939201A093A7
:1008A0009301B0939401BF91AF919F918F913F912C
:1008B0002F910F900FBE0F901F90189526E8230FD1
:1008C0000296A11DB11DD2CF1F920F920FB60F92AB
:1008D00011242F933F934F935F936F937F938F9345
:1008E0009F93AF93BF93EF93FF938091B900887F5D
:1008F000803609F44AC0F0F5883209F4A7C018F52B
:10090000803109F49BC0B8F4882309F4F9C0883019
:1009100009F494C0FF91EF91BF91AF919F918F9196
:100920007F916F915F914F913F912F910F900FBEEB
:100930000F901F901895883109F488C0803251F7C4
:100940008093E10114C0803409F49DC040F48033E9
:10095000B9F38833F9F68093E10185ECB0C08035B6
:1009600009F485C0883509F496C0883499F60E9448
:10097000E203D0CF883909F48CC038F5883729F0E4
:1009800050F4883611F0803729F683E08093E30134
:1009900010928B0157C0883809F47BC0803919F058
:1009A000803809F0B7CF80918B01803208F071C098
:1009B000E0918B0181E08E0F80938B018091BB00D1
:1009C000F0E0E559FE4F80833DC0803B39F0E0F414
:1009D000803A09F479C0883A09F09CCF84E080938A
:1009E000E30110926A0110926901E0919701F09180
:1009F000980109958091690181110FC081E0809370
:100A000069011092490109C0803C09F4A6CF883CD5
:100A100009F4A3CF883B09F07DCFE0916A0181E022
:100A20008E0F80936A01F0E0E75BFE4F8081809338
:100A3000BB0090916A018091690129C08091DE011B
:100A40008093BB0085EC8093BC0064CF9091E00163
:100A50008091DF01981758F5E091E00181E08E0F59
:100A60008093E001F0E0E354FE4F8081E9CFE09114
:100A7000E00181E08E0F8093E0018091BB00F0E007
:100A8000E354FE4F80839091E0018091DF0198173D
:100A9000C8F285E8D8CFE091E00181E08E0F809325
:100AA000E0018091BB00F0E0E354FE4F8083809131
:100AB000E20181115CCF81E08093DD0184EA8093C3
:100AC000BC001092E30126CF85EC8093BC0010920D
:100AD000E30180918B01803230F4E0918B01F0E0F2
:100AE000E559FE4F108260918B0170E0E091950115
:100AF000F09196018BE691E0099510928B010ACF57
:100B00001092E10134CFEF92FF920F931F93CF9396
:100B1000DF93EC017B01198218821B821A821D82ED
:100B20001C82FB0101900020E9F731978F01061B21
:100B3000170BB8016F5F7F4F90E080E00E94880A3A
:100B40000097B9F0998388831B830A832C813D81A8
:100B5000232B11F4FC0110821D830C83B7018881C3
:100B60009981DF91CF911F910F91FF90EF900C949D
:100B70004E0B88819981009711F00E94FF0919821C
:100B800018821D821C821B821A82DF91CF911F91D5
:100B90000F91FF90EF900895E2E1F2E0138212824C
:100BA00088EE93E0A0E0B0E084839583A683B783CA
:100BB0008AE091E0918380836AE271E086E392E0CB
:100BC0000E9483056EE271E08CE392E00E9483054F
:100BD00062E371E082E492E00E94830566E371E0E3
:100BE00088E492E00E9483056AE371E08EE492E07B
:100BF0000E9483056EE371E084E592E00E94830524
:100C000062E471E08AE592E00E948305EEE1F2E0A1
:100C1000138212828CE191E0918380838CE0848343
:100C20008FEF85838BE0868385E0878384E08087F0
:100C300083E0818782E08287138614861586168674
:100C4000178681E00C94D302789484B5826084BDC9
:100C500084B5816084BD85B5826085BD85B58160C0
:100C600085BD80916E00816080936E00109281003E
:100C700080918100826080938100809181008160F9
:100C800080938100809180008160809380008091BA
:100C9000B10084608093B1008091B0008160809346
:100CA000B00080917A00846080937A0080917A000D
:100CB000826080937A0080917A00816080937A00CC
:100CC00080917A00806880937A001092C10010921F
:100CD000EA011092E9010E946F0187EA90E0909387
:100CE00098018093970188EA90E090939601809311
:100CF000950182E00E94D30281E00E94CD028BE345
:100D00009FE10197F1F7D1E025EE722E35EC632ECD
:100D100000E010E042E0242E55245A9456E0452E7F
:100D200098E6392ECAE00E9422016B017C0184EF13
:100D3000882E99249394A12CB12C0E9422016C1925
:100D40007D098E099F09683E734081059105A8F3CE
:100D500021E0821A9108A108B10888EEC80E83E04C
:100D6000D81EE11CF11C81149104A104B10429F7DF
:100D7000D09399013092BB0110929A011092BC015C
:100D800060E082E192E00E940502B090BC0180E246
:100D90008B1508F48CC00E9422016B017C018091AC
:100DA000E30181115FC02092E301D093E2015092F0
:100DB000E1011092E001B092DF01EBE9F1E0ADEB6F
:100DC000B1E0B812E4C01092DE018091DE01806DC6
:100DD0008093DE018091DD01813009F0DCC010924A
:100DE000DD010E9422016B017C018091DE01809374
:100DF000BB008091E5019091E601A091E701B091DF
:100E0000E801892B8A2B8B2B99F00E94220180907C
:100E1000E5019090E601A090E701B090E8016C191F
:100E20007D098E099F0986169706A806B906D8F18E
:100E30008091BC0083FDD9CF6092BC000E9422014A
:100E40006B017C018091E301823009F4A7C080919D
:100E5000E1018F3F61F18091E101803241F18091A8
:100E6000E10125C08091E5019091E601A091E701A3
:100E7000B091E801892B8A2B8B2B09F490CF0E942B
:100E800022012091E5013091E6014091E701509166
:100E9000E8016C197D098E099F0926173707480755
:100EA000590708F07CCF8091E4010E948D011092D7
:100EB0009A011092BC01109299010E9422016B01CB
:100EC0007C018091E30181118BC0D093E301D09329
:100ED000E2015092E1011092E0014092DF01D093D3
:100EE000DE018091DE01806D8093DE018091DD0165
:100EF000813009F04EC11092DD010E9422016B0188
:100F00007C018091DE018093BB008091E50190918E
:100F1000E601A091E701B091E801892B8A2B8B2B88
:100F2000A1F00E9422018090E5019090E601A0903E
:100F3000E701B090E8016C197D098E099F098616BA
:100F40009706A806B90608F46CC08091BC0083FD22
:100F5000D8CF6092BC000E9422016B017C0180917D
:100F6000E301813009F418C18091E001873008F075
:100F700035C18091E001EDEBF1E0ABEEB1E090E046
:100F8000981709F453C021912D939F5FF9CF919148
:100F90009D938F5F16CF7092BC0050CF8091E5017A
:100FA0009091E601A091E701B091E801892B8A2B8D
:100FB0008B2B09F447CF0E9422018090E50190908D
:100FC000E601A090E701B090E8016C197D098E0957
:100FD0009F0986169706A806B90608F033CF63CF97
:100FE0008091E5019091E601A091E701B091E801BF
:100FF000892B8A2B8B2B09F464CF0E9422018090CD
:10100000E5019090E601A090E701B090E8016C192D
:101010007D098E099F0986169706A806B90608F06D
:1010200050CF8091E4010E948D0180E01092EA018E
:101030008093E90182E192E00E94BE01982F92958F
:1010400097708F709C9F800D112480930B0282E11A
:1010500092E00E94BE01982F92959F708F709C9F86
:10106000800D112480930C0282E192E00E94BE0167
:10107000982F929593708F709C9F800D1124809370
:101080000D0282E192E00E94BE01982F92959F701E
:101090008F70F82E9C9FF00C1124F092110282E1C7
:1010A00092E00E94BE01982F92959F708F709C9F36
:1010B000800D11248093100282E192E00E94BE0113
:1010C000982F92959F708F709C9F800D1124809314
:1010D0000F0282E192E00E94BE01982F92959F70CC
:1010E0008F709C9F800D112480930E02E1E080910F
:1010F00031028111E0E0E195F0E0E25EFD4F84898C
:101100008E5F80680E94CD0226E0F29EF0011124DD
:10111000EA5CFD4F44815581608171818EE192E0EE
:101120000E94A90086E491E00E947B0360E0809128
:1011300010020E94880361E080910F020E948803E0
:1011400061E080910E020E948803E0913102E2305A
:1011500008F046C0E150F0E0E25EFD4F84898C5F0C
:1011600080680E94CD0260E080910D020E94880399
:1011700062E080910C020E94880362E080910B0281
:101180000E9488030115110509F4CDCD0E940000CD
:10119000C7CD7092BC00DFCE8091E5019091E60151
:1011A000A091E701B091E801892B8A2B8B2B09F4E0
:1011B000D6CE0E9422018090E5019090E601A09099
:1011C000E701B090E8016C197D098E099F09861628
:1011D0009706A806B90608F0C2CE23CF87E0CBCE8B
:1011E000E1E0B9CFCF93DF93C0E6D2E026978881C4
:1011F0009981009711F00E94FF0982E0C633D80759
:10120000A9F7DF91CF9108952F923F924F925F926D
:101210006F927F928F929F92AF92BF92CF92DF9206
:10122000EF92FF920F931F93CF93DF93CDB7DEB76B
:10123000CA1BDB0B0FB6F894DEBF0FBECDBF0994FF
:101240002A88398848885F846E847D848C849B8456
:10125000AA84B984C884DF80EE80FD800C811B8164
:10126000AA81B981CE0FD11D0FB6F894DEBF0FBE93
:10127000CDBFED010895A1E21A2EAA1BBB1BFD01F3
:101280000DC0AA1FBB1FEE1FFF1FA217B307E40765
:10129000F50720F0A21BB30BE40BF50B661F771FBD
:1012A000881F991F1A9469F760957095809590959D
:1012B0009B01AC01BD01CF010895EE0FFF1F05900A
:1012C000F491E02D09940F931F93CF93DF93823015
:1012D000910510F482E090E0E0916202F0916302E7
:1012E00030E020E0B0E0A0E0309799F4211531051E
:1012F00009F44AC0281B390B24303105D8F58A81FE
:101300009B816115710589F1FB0193838283FE0145
:1013100011C0408151810281138148175907E0F0C3
:101320004817590799F4109761F012960C93129789
:1013300013961C933296CF01DF91CF911F910F919D
:1013400008950093620210936302F4CF21153105D2
:1013500051F04217530738F0A901DB019A01BD0192
:10136000DF01F801C1CFEF01F9CF909363028093C1
:101370006202CDCFFE01E20FF31F819391932250C1
:10138000310939832883D7CF2091600230916102DF
:10139000232B41F42091020130910301309361022B
:1013A0002093600220910001309101012115310547
:1013B00041F42DB73EB74091040150910501241B23
:1013C000350BE0916002F0916102E217F307A0F49F
:1013D0002E1B3F0B2817390778F0AC014E5F5F4F8B
:1013E0002417350748F04E0F5F1F5093610240935A
:1013F0006002819391939FCFF0E0E0E09CCFCF9388
:10140000DF930097E9F0FC01329713821282A091DA
:101410006202B0916302ED0130E020E01097A1F488
:1014200020813181820F931F2091600230916102EF
:101430002817390709F061C0F0936102E093600258
:10144000DF91CF910895EA01CE17DF07E8F54A81D1
:101450005B819E0141155105B1F7E901FB83EA83E8
:1014600049915991C40FD51FEC17FD0761F4808194
:1014700091810296840F951FE90199838883828167
:1014800093819B838A83F0E0E0E012968D919C919A
:1014900013970097B9F52D913C911197CD010296C4
:1014A000820F931F20916002309161022817390743
:1014B00039F6309751F51092630210926202B093A0
:1014C0006102A0936002BCCFD383C283408151816B
:1014D000840F951FC817D90761F44E5F5F4F88814D
:1014E0009981480F591F518340838A819B8193833F
:1014F00082832115310509F0B0CFF0936302E093A8
:1015000062029ECFFD01DC01C0CF13821282D7CFD1
:10151000B0E0A0E0EEE8FAE00C9406098C01009738
:1015200051F4CB010E9463098C01C801CDB7DEB72D
:10153000E0E10C942209FC01E60FF71F9C01225008
:101540003109E217F30708F49DC0D901CD91DC9170
:101550001197C617D70798F0C530D10530F3CE01E3
:1015600004978617970708F3C61BD70B2297C193DA
:10157000D1936D937C93CF010E94FF09D6CF5B017D
:10158000AC1ABD0A4C018C0E9D1EA0916202B09156
:101590006302512C412CF12CE12C109731F58091F4
:1015A0006002909161028815990509F05CC04616A9
:1015B000570608F058C080910001909101010097F2
:1015C00041F48DB79EB74091040150910501841BF1
:1015D000950BE817F90708F055C0F0936102E09306
:1015E0006002F90171836083A0CF8D919C91119766
:1015F00012966C90129713967C901397A815B905C4
:1016000059F56C0142E0C40ED11CCA14DB0420F170
:10161000AC014A195B09DA011296159780F06282D3
:10162000738251834083D9016D937C93E114F1045B
:1016300071F0D7011396FC93EE93129776CF229612
:101640008C0F9D1FF90191838083F301EFCFF093FD
:101650006302E093620269CF4816590608F42C0130
:101660007D01D3019ACFCB010E9463097C010097D1
:1016700049F0AE01B8010E94450BC8010E94FF0964
:10168000870153CF10E000E050CFFB01DC0102C026
:1016900001900D9241505040D8F70895FB01DC01B4
:1016A00001900D920020E1F7089510E0CDE5D0E023
:1016B00004C0FE010E945D092196CE35D107C9F70D
:0416C000F894FFCFCC
:1016C400000064028000000000000502D80134021A
:1016D400AE01D101BE01AF01000000007503A900F5
:1016E400340247012F003A00300053756E004D6FED
:1016F4006E00547565005765640054687500467241
:0817040069005361740020002C
:00000001FF
