:020000000B28CB
:10000800DE00030E8312A1000A08A20043280C2870
:1000180083010E280730831299008501203083164A
:1000280085009501831290101016901683160C14F3
:100038000B178B17831210143330A500BB30A400A4
:10004800DF30A300A30B2628A40B2628A50B2628FF
:100058002D28831290140D30A500AF30A400B630BF
:10006800A300A30B3528A40B3528A50B35280000C1
:1000780001308312A300230885062F280B280C1CA7
:10008800462847284C280C101030A0002008850668
:0E00980022088A00210E8300DE0E5E0E090093
:00000001FF
