:100000000C94DD020C9405030C9405030C94050379
:100010000C9405030C9405030C9405030C94050340
:100020000C9405030C9405030C9405030C94050330
:100030000C9405030C9405030C9405030C94050320
:100040000C94350B0C9405030C9405030C940503D8
:100050000C9405030C9405030C9405030C94050300
:100060000C9405030C94050300000000003E5B4F58
:100070005B3E3E6B4F6B3E1C3E7C3E1C183C7E3C08
:10008000181C577D571C1C5E7F5E1C00183C180016
:10009000FFE7C3E7FF0018241800FFE7DBE7FF30A6
:1000A000483A060E2629792926407F050507407F14
:1000B00005253F5A3CE73C5A7F3E1C1C08081C1C87
:1000C0003E7F14227F22145F5F005F5F06097F017D
:1000D0007F006689956A606060606094A2FFA29468
:1000E00008047E040810207E201008082A1C080836
:1000F0001C2A08081E101010100C1E0C1E0C303884
:100100003E3830060E3E0E06000000000000005F84
:1001100000000007000700147F147F14242A7F2AA0
:100120001223130864623649562050000807030062
:10013000001C2241000041221C002A1C7F1C2A08AE
:10014000083E080800807030000808080808000011
:1001500060600020100804023E5149453E00427F85
:10016000400072494949462141494D331814127FD4
:100170001027454545393C4A494931412111090774
:100180003649494936464949291E000014000000F5
:1001900040340000000814224114141414140041C7
:1001A00022140802015909063E415D594E7C121184
:1001B000127C7F494949363E414141227F414141BC
:1001C0003E7F494949417F090909013E4141517337
:1001D0007F0808087F00417F41002040413F017FA8
:1001E000081422417F404040407F021C027F7F0470
:1001F00008107F3E4141413E7F090909063E4151B9
:10020000215E7F09192946264949493203017F01A8
:10021000033F4040403F1F2040201F3F4038403FA9
:10022000631408146303047804036159494D4300BF
:100230007F4141410204081020004141417F0402F6
:10024000010204404040404000030708002054548D
:1002500078407F284444383844444428384444286B
:100260007F385454541800087E090218A4A49C78BE
:100270007F0804047800447D40002040403D007F1A
:100280001028440000417F40007C047804787C08FA
:100290000404783844444438FC18242418182424CE
:1002A00018FC7C08040408485454542404043F44B3
:1002B000243C4040207C1C2040201C3C4030403CE2
:1002C00044281028444C9090907C4464544C440042
:1002D00008364100000077000000413608000201A6
:1002E0000204023C2623263C1EA1A161123A404092
:1002F000207A38545455592155557941225454780F
:1003000042215554784020545579400C1E527212A7
:100310003955555559395454545939555454580030
:1003200000457C410002457D420001457C407D1234
:1003300011127DF0282528F07C5455450020545496
:100340007C547C0A097F4932494949323A44444441
:100350003A324A4848303A4141217A3A424020787C
:10036000009DA0A07D3D4242423D3D4040403D3C7D
:1003700024FF2424487E4943662B2FFC2F2BFF09A2
:1003800029F620C0887E0903205454794100004496
:100390007D413048484A32384040227A007A0A0A81
:1003A000727D0D19317D2629292F282629292926F4
:1003B00030484D4020380808080808080808382F39
:1003C00010C8ACBA2F102834FA00007B00000814C3
:1003D0002A142222142A14085500550055AA55AA99
:1003E00055AAFF55FF55FF000000FF00101010FF39
:1003F00000141414FF001010FF00FF1010F010F094
:10040000141414FC001414F700FF0000FF00FF1484
:1004100014F404FC141417101F10101F101F1414D0
:10042000141F00101010F0000000001F101010101A
:100430001F10101010F010000000FF10101010100E
:1004400010101010FF10000000FF140000FF00FF4C
:1004500000001F10170000FC04F4141417101714E8
:1004600014F404F40000FF00F7141414141414140A
:10047000F700F7141414171410101F101F1414147D
:10048000F4141010F010F000001F101F0000001FE7
:1004900014000000FC140000F010F01010FF10FF1A
:1004A000141414FF141010101F00000000F010FFAF
:1004B000FFFFFFFFF0F0F0F0F0FFFFFF0000000093
:1004C00000FFFF0F0F0F0F0F3844443844FC4A4A17
:1004D0004A347E02020606027E027E0263554941CC
:1004E000633844443C04407E201E2006027E020203
:1004F00099A5E7A5991C2A492A1C4C7201724C3017
:100500004A4D4D303048784830BC625A463D3E49ED
:100510004949007E0101017E2A2A2A2A2A44445F91
:10052000444440514A444040444A51400000FF0185
:1005300003E080FF000008086B6B08361236243693
:10054000060F090F060000181800000010100030F8
:1005500040FF0101001F01011E00191D1712003C80
:100560003C3C3C00000000000000000800020100CC
:10057000000304070000000000000000000000006D
:10058000250028002B0000000000240027002A007E
:100590000404040404040404020202020202030329
:1005A0000303030301020408102040800102040831
:1005B0001020010204081020F90D11241FBECFEFF6
:1005C000D8E0DEBFCDBF13E0A0E0B1E0E6EFFCE194
:1005D00002C005900D92A633B107D9F723E0A6E338
:1005E000B3E001C01D92A93CB207E1F712E0CDEDE6
:1005F000D2E004C02197FE010E94540ECC3DD107E9
:10060000C9F70E947F0B0C94790E0C940000909116
:10061000BA039F3F59F49091BB039F3F39F48EBDBD
:1006200000000DB407FEFDCF8EB5089528E030E040
:1006300040E8E091C503F091C60350819091C80352
:10064000909595239083E091C303F091C40390911A
:10065000C703582F542389F05081952B9083E09144
:10066000C503F091C60390815091C803952B9083E8
:10067000469521503109E9F60895508190959523CA
:10068000EDCF90E0FC01EC55FA4F249180579A4F42
:10069000FC018491882399F090E0880F991FFC0158
:1006A000EA57FA4FA591B491FC01E458FA4F8591AD
:1006B00094918FB7F894EC91E22BEC938FBF08954F
:1006C000AF92BF92CF92DF92EF92FF920F931F9360
:1006D000CF93DF936C017B018B01040F151FEB019E
:1006E0005E01AE18BF08C017D10759F06991D60155
:1006F000ED91FC910190F081E02DC6010995892BC7
:1007000079F7C501DF91CF911F910F91FF90EF9085
:10071000DF90CF90BF90AF90089590E0FC01E85932
:10072000FA4F2491FC01EC55FA4F3491FC01E0574B
:10073000FA4FE491EE23C9F0222339F0233001F17E
:10074000A8F4213019F1223029F1F0E0EE0FFF1F5B
:10075000E458FA4FA591B4918FB7F894EC916111D8
:1007600026C030953E233C938FBF08952730A9F0D3
:100770002830C9F0243049F7809180008F7D03C074
:10078000809180008F7780938000DFCF84B58F7752
:1007900084BDDBCF84B58F7DFBCF8091B0008F7798
:1007A0008093B000D2CF8091B0008F7DF9CF3E2BE7
:1007B000DACFCF93C82F60E08091BC030E948D03F5
:1007C0008091BE0318161CF460E00E948D038C2FEC
:1007D0000E9407038091BE03181624F461E0CF91B4
:1007E0000C948D03CF910895CF93C82F87FDCFE749
:1007F000C093BF0381E20E94D9038C2F80680E94BE
:10080000D90380E2CF910C94D9038E3008F08E503A
:100810008770806480937C0080917A0080648093EC
:100820007A0080917A0086FDFCCF809178009091CB
:10083000790008953FB7F89480913B0390913C0371
:10084000A0913D03B0913E0326B5A89B05C02F3F64
:1008500019F00196A11DB11D3FBFBA2FA92F982FE6
:100860008827BC01CD01620F711D811D911D42E0E1
:10087000660F771F881F991F4A95D1F708958F92A9
:100880009F92AF92BF92CF92DF92EF92FF92CF935F
:100890008091BD0318166CF560E00E948D030E94E4
:1008A0001A044B015C0184EFC82EDD24D394E12CA3
:1008B000F12C0E941A04681979098A099B09683E7B
:1008C000734081059105A8F321E0C21AD108E1081F
:1008D000F10888EE880E83E0981EA11CB11CC1149B
:1008E000D104E104F10429F761E08091BD030E9485
:1008F0008D03C091C003C83008F0C7E0C093C003A7
:1009000081E20E94D9038C2F80610E94D90380E28A
:100910000E94D9038091BF030E94F40380E20E94E9
:10092000D9038CE0CF91FF90EF90DF90CF90BF90F4
:10093000AF909F908F900C94D903EF92FF920F93FA
:100940001F93CF93DF939091C103992339F0809146
:10095000C2038F5F8917B0F58093C20300E011E0F6
:10096000C0E08C2F80640E94D90380E80E94D903E4
:1009700061E08091BC030E948D038091BE03181634
:100980001CF460E00E948D037801D4E5F7018191A9
:100990007F010E940703D150C9F78091BE0318164A
:1009A0001CF461E00E948D03CF5F0C5A1F4FC630CC
:1009B000C1F680E4DF91CF911F910F91FF90EF90EE
:1009C0000C94D9031092C2030E943F04C7CFFC01CC
:1009D000D90177FD3CC08085918568177907BCF502
:1009E00057FD35C0828593854817590784F5868958
:1009F000823071F18330C9F1813031F48FE290E0BF
:100A0000861B970BBA01AC016435710500F54033C4
:100A10005105E8F4CA0123E0959587952A95E1F7F9
:100A200024E5289FF001299FF00D1124E60FF71F00
:100A3000E050FF4F30814770552781E090E001C0C2
:100A4000880F4A95EAF7AB2BB9F0832B8083089582
:100A500083E590E09C01261B370BB9018FE290E003
:100A60009C01241B350BA901CFCF83E590E0841BAB
:100A7000950BAB01BC01C8CF80958323E7CF0895C8
:100A8000FC016370668B848195812681378161309A
:100A900039F0633029F09187808733872287089562
:100AA000318720879387828708952F923F924F92B4
:100AB0005F926F927F928F929F92AF92BF92CF92EE
:100AC000DF92EF92FF920F931F93CF93DF93CDB7F7
:100AD000DEB76A970FB6F894DEBF0FBECDBF9A8F10
:100AE000898F7A8369834A01D22E18870F83370151
:100AF000BC2CDC0159962D913C915A97211531055A
:100B000009F015C118968D919C911997681779076E
:100B10000CF0D7C11A968D919C91481759070CF08B
:100B2000D0C14C2C512CB6E0CB9E600D711D112410
:100B30007C876B87161617060CF0C3C1EA2DF0E010
:100B4000FA87E98793E0EE0FFF1F9A95E1F7F88B9C
:100B5000EF87CF01840F951F181619060CF0B1C14D
:100B6000A98DBA8D58968C91811104C0BFEABD152C
:100B700008F4D394A98DBA8DED91FC91119702845C
:100B8000F385E02DCD010995B5E0DB9EC001112470
:100B9000E981FA81FC83EB83312C212C9C012859BB
:100BA0003F4F388F2F8B4A2D50E05E8B4D8BEF8956
:100BB000F88DE20DF31D44919E828D82D12CC12CC3
:100BC00069817A81620D731D7A8B698B842F90E025
:100BD0009C8B8B8BE98DFA8DA081B18140FF82C007
:100BE000F1E0BF126FC0AF126DC01C96ED91FC9189
:100BF0002F813885A4014C0D5D1D69897A89898D05
:100C00009A8D0995EB89FC89F595E7954E2F5FEF55
:100C1000C51AD50A6D817E818D899E89680F791FDD
:100C20007E836D8398E0C916D10481F6AFEF2A1A4E
:100C30003A0AEB81FC81E40DF51DFC83EB83F5E0C2
:100C40002F16310409F0B3CF2F81388526153705CB
:100C5000B9F0A98DBA8DED91FC91B1E0BB1257C0EE
:100C6000AB1255C069817A816B5F7F4F0088F18933
:100C7000E02D830128E030E0A401898D9A8D09954B
:100C8000A98DBA8DED91FC9111970688F789E02D19
:100C9000CD016A960FB6F894DEBF0FBECDBFDF91CF
:100CA000CF911F910F91FF90EF90DF90CF90BF9069
:100CB000AF909F908F907F906F905F904F903F90FC
:100CC0002F9009941E96ED91FC91EF80F884098590
:100CD0001A8592014D815E816B817C81898D9A8D0F
:100CE000099590CF2F8138852615370509F48ACFCD
:100CF00031E0B31207C0A31205C01C96ED91FC9120
:100D0000930178CF1E96ED91FC917301E0CF6B8536
:100D10007C85641975090684F785E02D73010F85BC
:100D200018899201A401898D9A8D0995A9CFF9019D
:100D300034969491329745915491D91AB7E0DB9E3D
:100D4000400D511D1124F901259134913C8B2B8BC1
:100D5000FA0125903490FA013296749031963491CC
:100D6000398B329664903196449041E04C1518F0DE
:100D70004A1508F07FC0662D062C000C770B7C838B
:100D80006B83842D042C000C990B9E838D83A98D7D
:100D9000BA8DED91FC9111970284F385E02DCD0180
:100DA0000995512CD12CC12CEA2DF0E0FA87E98766
:100DB0002B2D30E03C872B87A401440D511D47FCAF
:100DC0005A95588F4F8B69817A81660D711D67FC2A
:100DD0007A957E876D877989C71608F051CF2C2DBB
:100DE00030E04D815E81420F531FA985BA854A9F2D
:100DF000C0014B9F900D5A9F900D1124FC01E80DEE
:100E0000F91DF88BEF87852D612C4F89588D420F86
:100E1000531F5E8B4D8B671408F050C044244394DD
:100E2000480E877041F4C1010196EB89FC89E20DFF
:100E3000F31DD4901C01D7FE19C0A98DBA8DED9178
:100E4000FC91662D70E0B1E0BB1219C0AB1217C067
:100E50002D853E85620F731F0484F585E02D2F815B
:100E600038854D895E89898D9A8D0995DD0C63944D
:100E7000842DD1CF1E821D821C821B8288CF4B8184
:100E80005C81640F751FAB85BC856A9FC0016B9F39
:100E9000900D7A9F900D112469817A81680F791FD6
:100EA0000684F785E02DEF80F88409851A859D0179
:100EB0004F855889898D9A8D0995D8CF570CC39441
:100EC0008ACF6A960FB6F894DEBF0FBECDBFDF9112
:100ED000CF911F910F91FF90EF90DF90CF90BF9037
:100EE000AF909F908F907F906F905F904F903F90CA
:100EF0002F9008958F929F92AF92CF92EF92FF9290
:100F00000F931F93CF93DF93EC01262F898D9A8D3A
:100F1000009709F051C06A30D1F41D861C868D8976
:100F200048E0849F900111248E859F85820F931F36
:100F30009F878E8781E090E0DF91CF911F910F9185
:100F4000FF90EF90CF90AF909F908F9008956D306D
:100F500089F3CC88AD888F898823C1F08C859D85E5
:100F600036E0C39E800D911D112448855985481790
:100F7000590764F44E855F851D861C8638E0A39E64
:100F8000C0011124840F951F9F878E87EA88FB88F4
:100F9000088919894E855F856C857D85CE010E9403
:100FA00055052C898C859D8546E0249F800D911DDB
:100FB00011249D878C87BECF6A3069F41D861C86FC
:100FC000FC013696E4912D898E859F85E29F800DE8
:100FD000911D1124ADCF6D3009F4ACCFFC013496D6
:100FE0003491631708F4A6CF3196E491E61708F41C
:100FF000A1CFFC01329685909490462F431B342F4D
:1010000047E0349F800C911C1124F40132963491F6
:101010003196E4913323A9F1EE2399F1CC88F401C0
:101020003596E491AD884F89442301F10E2E000CD2
:10103000FF0BE30FF11DCE9EA001CF9E500D11249A
:101040006C857D85460F571F688579856417750700
:101050006CF44E855F851D861C86FC013696E491F6
:10106000AE9E400D511D11245F874E87EA88FB8894
:10107000088919894E855F856C857D85CE010E9422
:101080005505F4013496E4912C898C859D85E29F69
:10109000800D911D11248DCF6F927F928F929F9220
:1010A000AF92BF92CF92DF92EF92FF920F931F9376
:1010B000CF93DF93EC016B015A0139014801E881BC
:1010C000F9810284F385E02D0995E881F981028890
:1010D000F389E02D87019301A501B601CE010995A1
:1010E000A501480D591D41505109E881F981028837
:1010F000F389E02D9301B601CE010995E881F981CC
:101100000088F189E02D9401A501B601CE01099571
:10111000C60CD71CB60161507109E881F9810088BD
:10112000F189E02D9401A501CE010995E881F981AD
:101130000688F789E02DCE01DF91CF911F910F91A5
:10114000FF90EF90DF90CF90BF90AF909F908F90E7
:101150007F906F9009946F927F928F929F92AF923F
:10116000BF92CF92DF92EF92FF920F931F93CF9394
:10117000DF935C01EB016A01490138018701DC0161
:10118000ED91FC916217730719F5641675062CF042
:10119000962D872D3A01C92ED82E9601261937098A
:1011A0002F5F3F4F048CF58DE02DA301BE01C501DB
:1011B0000995DF91CF911F910F91FF90EF90DF90F4
:1011C000CF90BF90AF909F908F907F906F90089539
:1011D0004615570591F42617370724F0892D4B0142
:1011E000C22FD82F9E01281939092F5F3F4F068C37
:1011F000F78DE02DA601B401DACF0284F385E02D4E
:101200000995D501ED91FC910488F589E02D8301C4
:101210009401A601BE01C5010995D501ED91FC918E
:101220000688F789E02DC501DF91CF911F910F91BD
:10123000FF90EF90DF90CF90BF90AF909F908F90F6
:101240007F906F900994EF92FF920F931F93DC01B0
:101250001A960D911C911B9718962D913C911997F8
:10126000ED91FC9100A0F1A1E02D7B0150E040E068
:1012700070E060E009951F910F91FF90EF90089545
:101280004F925F926F927F928F929F92AF92BF9296
:10129000CF92DF92EF92FF920F931F93CF93DF9342
:1012A0006C012B015A0139014801DC01ED91FC91DF
:1012B0000284F385E02D0995E201640C751CD601CA
:1012C000ED91FC91C615D7055CF40088F189E02DFD
:1012D00087019401A501BE01C60109952196EFCFB2
:1012E0000688F789E02DC601DF91CF911F910F91FC
:1012F000FF90EF90DF90CF90BF90AF909F908F9036
:101300007F906F905F904F9009948F929F92AF92D1
:10131000BF92CF92DF92EF92FF920F931F93CF93E2
:10132000DF93EC015B014A016901E881F9810284E4
:10133000F385E02D099595012C0D3D1D21503109B6
:10134000E881F9810488F589E02D78018401A40100
:10135000B501CE010995E881F9810688F789E02D6C
:10136000CE01DF91CF911F910F91FF90EF90DF9011
:10137000CF90BF90AF909F908F9009948F929F9243
:10138000AF92BF92CF92DF92EF92FF920F931F9393
:10139000CF93DF93EC015B014A0169017801E88199
:1013A000F9810284F385E02D0995C80CD91C8601CA
:1013B00001501109E881F9810488F589E02D950132
:1013C000A401B501CE010995E881F9810688F78964
:1013D000E02DCE01DF91CF911F910F91FF90EF9003
:1013E000DF90CF90BF90AF909F908F900994089519
:1013F000EF92FF920F931F93DC01ED91FC9100A0FF
:10140000F1A1E02D09951F910F91FF90EF900895A4
:101410000F931F93DC01ED91FC91068CF78DE02D6D
:1014200009951F910F9108950F931F93DC01ED9182
:10143000FC91048CF58DE02D09951F910F91089575
:10144000DC01ED91FC910084F185E02D09942F924F
:101450003F924F925F926F927F928F929F92AF9244
:10146000BF92CF92DF92EF92FF920F931F93CF9391
:10147000DF9300D000D000D0CDB7DEB73C016A01C9
:101480003E832D83FC82EB825801A41AB50AB7FE75
:1014900003C0B194A194B1088D809E80861A970AEA
:1014A00097FE03C09194819491088A149B045CF088
:1014B000902F812F0D811E819D838E839C2D8D2DDC
:1014C0006B01692F782F0C151D055CF09D818E81B5
:1014D0007E836D83692F782F902F812F8601C92EEF
:1014E000D82E1601201A310A2B012D813E81421A75
:1014F000530A57FE03C0519441945108710137FEBD
:1015000003C03FEFE31AF30AF594E7948D819E81BF
:10151000861797075CF5A1E0B0E0BA83A983C016EF
:10152000D1064CF1D301ED91FC910484F585E02DB9
:101530002B813C81A8016D817E818A149B041CF063
:101540004D815E81B801C3010995E418F508F7FEE5
:101550000AC02D813E8189819A81280F391F3E83DF
:101560002D83E20CF31C0F5F1F4FD9CF2FEF3FEFFE
:101570003A832983D4CF26960FB6F894DEBF0FBEE8
:10158000CDBFDF91CF911F910F91FF90EF90DF9032
:10159000CF90BF90AF909F908F907F906F905F9013
:1015A0004F903F902F900895089590E080E0089527
:1015B0008F929F92AF92BF920F931F93CF93DF931F
:1015C000CDB7DEB7A1970FB6F894DEBF0FBECDBF83
:1015D00019A2423008F44AE08E010F5D1F4F842E9D
:1015E000912CB12CA12CA50194010E942A0EE62F6A
:1015F000B901CA01EA3044F5E05DD801EE938D01EE
:10160000232B242B252B79F790E080E0109769F0AD
:10161000FD0101900020E9F73197AF014A1B5B0BF8
:10162000BD018FE993E00E946003A1960FB6F89484
:10163000DEBF0FBECDBFDF91CF911F910F91BF9045
:10164000AF909F908F900895E95CD7CFFC010190F7
:101650000020E9F73197AF01481B590BBC018FE916
:1016600093E00C9460030E94740E1F920F920FB6C9
:101670000F9211242F933F938F939F93AF93BF9318
:101680008091370390913803A0913903B0913A03C8
:101690003091360323E0230F2D3758F50196A11D15
:1016A000B11D209336038093370390933803A093A2
:1016B0003903B0933A0380913B0390913C03A0918E
:1016C0003D03B0913E030196A11DB11D80933B03E4
:1016D00090933C03A0933D03B0933E03BF91AF9121
:1016E0009F918F913F912F910F900FBE0F901F9060
:1016F000189526E8230F0296A11DB11DD2CFCF93D6
:10170000DF93CDB7DEB728970FB6F894DEBF0FBED4
:10171000CDBF789484B5826084BD84B5816084BD7A
:1017200085B5826085BD85B5816085BD80916E007F
:10173000816080936E0010928100809181008260B0
:1017400080938100809181008160809381008091ED
:1017500080008160809380008091B10084608093DC
:10176000B1008091B00081608093B00080917A00D8
:10177000846080937A0080917A00826080937A00FE
:1017800080917A00816080937A0080917A008068ED
:1017900080937A001092C10080917A0084608093D7
:1017A0007A0080917A008D7F80937A0080917A0010
:1017B0008E7F80937A008091BA038F3F01F59091DC
:1017C000BB039F3FE1F42FB72983F89480913F0337
:1017D000882309F4F7C080913F038F5F80933F0314
:1017E00039813FBF8CB58C7F8CBD8DB58E7F8DBD13
:1017F0008CB5837F8CBD8CB58F7D8CBD3AC00E942B
:1018000041038091BB030E9441038091BB03082EDA
:10181000000C990BFC01E057FA4FE491F0E0EE0F59
:10182000FF1FE458FA4F259134913093C60320935B
:10183000C503FC01EC55FA4FE491E093C803809195
:10184000BA03082E000C990BFC01E057FA4FE49103
:10185000F0E0EE0FFF1FE458FA4F259134913093DA
:10186000C4032093C303FC01EC55FA4FE491E093C9
:10187000C7038091BC030E9441038091BD031816E9
:1018800014F40E9441038091BE03181614F40E94C0
:10189000410384E08093C00388E28093BF031092E9
:1018A000C1031092C2030E943F040E949D048CE376
:1018B0000E94F403E0E0F1E088EF91E0DF019C0199
:1018C0001D9221503040E1F71092AC031092AB030F
:1018D0001092AE031092AD0359E2252E312C8FE009
:1018E0000E940504880F991F7C013FEFE31AF30A59
:1018F000F0929E03E0929D038EE00E9405048130E9
:101900009240D4F78EE00E94050481159240D4F3F2
:101910000E941A042B013C0110929C0310929B031D
:101920006701CC0CDD1CCC0CDD1CC60105979E8329
:101930008D83D12CC12C91E09983812C912C540161
:1019400000919B0310919C03053511050CF05FC0BD
:101950008EE00E94050498878F8390939A0380936A
:101960009903A981A1110AC0813092403CF0EFEFA8
:10197000CE1ADE0A0E941A044B015C01F1E0F983E1
:101980002F813885213032400CF419828F8198855F
:1019900025E0959587952A95E1F798878F83F8013B
:1019A000EC5BFC4F808392E0E916F10420F08D811E
:1019B0009E810197F1F70F5F1F4F10939C030093D7
:1019C0009B03BECFEAE9F5E08491EEEAF5E094915D
:1019D000E82FF0E0EE0FFF1FEA57FA4FA591B49100
:1019E000EC91E92321F461E08AE00E948D038AE012
:1019F0000E9441038CB580618CBD8CB580648CBD28
:101A00008DE00E9441038BE00E944103E4CE0E94DE
:101A10001A04641975098609970928EE33E040E035
:101A200050E00E942A0E29833A834B835C838418FA
:101A30009508A608B708A0E0B1E0E8EFF1E01D9234
:101A40003197E9F71092AC031092AB031092AE03FA
:101A50001092AD03EE24E394F12C08E110E023E5AD
:101A600030E048E150E070E060E08FE993E00E94F0
:101A7000AB088091440347E250E0481B510981E0E4
:101A800090E090939C0380939B0320919B03309163
:101A90009C032535310514F5F901EC5BFC4F808181
:101AA00067E270E0681B71097E836D83B901615044
:101AB0007109EE24E394F12C0D811E818FE993E0EE
:101AC0000E94AB0880919B0390919C030196909398
:101AD0009C0380939B034D815E81D7CF81E090E092
:101AE0009093AC038093AB031092AE031092AD03BE
:101AF000D60120E432E44FE050E00E944C0EA501F4
:101B000094010E942A0ECA01B9014AE00E94D80A33
:101B100084E293E00E94260BAAE2B0E0B093AC030B
:101B2000A093AB031092AE031092AD034AE069811B
:101B30007A818B819C810E94D80A88E293E00E947E
:101B4000260B0E941A046B017C0180914003909146
:101B50004103A0914203B0914303A7019601281BC2
:101B6000390B4A0B5B0B60E472E48FE090E00E945B
:101B70002A0ECA01B901C0924003D0924103E092FB
:101B80004203F0924303E1E0F0E0F093AC03E09312
:101B9000AB033092AE032092AD034AE00E94D80A14
:101BA0008CE293E00E94260B3092AC032092AB03B0
:101BB0003092AE032092AD0368E07CE481E090E0D7
:101BC00029813A814B815C810E942A0ECA01B901A8
:101BD0004AE00E94D80A81E393E00E94260B0E940B
:101BE0009D0420E030E0232B09F479CE0E94000010
:101BF00076CEEFE9F3E01382128224E530E03583FC
:101C0000248380E390E097838683318720879387BE
:101C10008287168A158614861786168681E0858B3C
:101C2000848B2FEF3FEF338B228B318B208B878B75
:101C3000108E128E118E8CEF92E09183808386E05D
:101C4000838F87E0848F85E0858F83E0868F84E0B3
:101C5000878F0895A1E21A2EAA1BBB1BFD010DC0A0
:101C6000AA1FBB1FEE1FFF1FA217B307E407F5074C
:101C700020F0A21BB30BE40BF50B661F771F881F28
:101C8000991F1A9469F760957095809590959B01BE
:101C9000AC01BD01CF010895B7FF0C945A0E0E940C
:101CA0005A0E821B930B0895EE0FFF1F0590F491BF
:101CB000E02D09940E94650EA59F900DB49F900D94
:101CC000A49F800D911D11240895A29FB001B39F80
:101CD000C001A39F700D811D1124911DB29F700D35
:101CE000811D1124911D089581E090E0F8940C94D9
:061CF000790EF894FFCF0D
:101CF60000000000000000000000000000000000DE
:101D060000000000000000000000000000000000CD
:101D1600000000000000C0E0F0F8FCFCFEFFFCE064
:101D260000000000000000000000000000000000AD
:101D3600000000000000000000000000000000009D
:101D4600000000000000000000000000000000008D
:101D56000000000000F8F8F8F8F8F8F8F8F8F8F8D5
:101D6600F8F0F0E0E0C080C0FCFFFFFFFF7F3F7FA0
:101D7600FFFFFFFFFF000000000000000000000062
:101D8600000000000000000000000000000000004D
:101D9600000000000000000000000000000000003D
:101DA600000000000000000000000F1F3F7FFFFF43
:101DB600FFFFFFFFFFFFE7C7C7878F9F9FFFFFFF5D
:101DC600C1C0E0FCFFFFFFFFFFFCFCFCFCFEFEFECB
:101DD600FCFCF8F8F0E0C0C00000000000000000C5
:101DE60000000000000000000000000000000000ED
:101DF60000000000000000000000000000000000DD
:101E06000080C0E0F1FBFFFFFFFFFF7F1F0F0F8782
:101E1600E7FFFFFF1F1F3FF9F8F8F8F8F8F8FDFF96
:101E2600FFFFFFFFFFFFFFFF7F3F0F0701000000DF
:101E3600000000000000000000000000000000009C
:101E4600000000000000000000000000000000008C
:101E5600000000F0FEFFFFFFFFFFFFFFFFFFFFFE9A
:101E66007E3F3F0F1FFFFFFFFCF0E0F1FFFFFFFF8C
:101E7600FFFCF00101010101010101000000000069
:101E8600000000000000000000000000000000004C
:101E9600000000000000000000000000000000003C
:101EA6000000000000000003030303030303030113
:101EB60001010100000000000000030F1F3F7F7FAB
:101EC600FFFFFFFF7F7F1F030000000000000000F0
:101ED60000000000000000000000000000000000FC
:101EE6000000000000000000000000007A07600308
:101EF600D50AD40AE704F709200AF809140A080AD9
:101F0600270AF70940053F05BE0985094009230947
:101F1600AB084C0820487A00206D530020465053E9
:061F26000020535053009F
:00000001FF
