:020000040000FA
:060000008A110A12052816
:10000800090069205B2083160313871287112230A9
:100018008312031394000F30A0000130A2002008BF
:10002800A100A401282020089300A00320080F3C69
:10003800031820280F30A000F430F2000130F3003C
:100048004D20112863002628210AF7007E20A300EE
:10005800241C30288030A304861306138612061247
:1000680086110611861006108713220303198717B5
:1000780023188617A318061723198616A319061618
:10008800231A8615A31A0615231B8614A31B061408
:100098000800F30A6C30F1000B30F000F00B522826
:1000A800F10B5028F20B4E28F30B4E28080083164C
:1000B800031386130613861206128611061186107C
:1000C80006108713831203130800831603139F1364
:1000D800831203131F1083160317880189018312E3
:1000E8000317881387138312031385018601870179
:1000F80089010800113077020318003477088B3E15
:10010800F70000300318013E8A0077088200103497
:100118003F3406345B344F3466346D347D340734F1
:100128007F346F3477347C3439345E3479347134C5
:04400E00D22FFF3F6F
:00000001FF
