:020000040000FA
:040000008A11052834
:100008000900242039208316031386010713871754
:100018008312031315202108A20086000C28630010
:1000280013280130A0001B202308A10008008C1E03
:100038001B281A08A300981C232818121816080051
:10004800831603139F13831203131F1083160317BA
:1000580088018901831203178813871383120313F6
:100068008501860187018901080002308316031380
:100078009A00831603178715831603131815181289
:0C0088009816831203139817181608002E
:04400E00D22FFF3F6F
:00000001FF
