:100000000C945D000C9485000C9485000C94850084
:100010000C9485000C9485000C9485000C9485004C
:100020000C9485000C9485000C9485000C9485003C
:100030000C9485000C9485000C9485000C9485002C
:100040000C9443030C9485000C9485000C9485005B
:100050000C9485000C9485000C9485000C9485000C
:100060000C9485000C94850000000008000201003B
:100070000003040700000000000000000000000072
:10008000250028002B0000000000240027002A0083
:10009000040404040404040402020202020203032E
:1000A0000303030301020408102040800102040836
:1000B00010200102040810206E0411241FBECFEF8F
:1000C000D8E0DEBFCDBF11E0A0E0B1E0E8E9F9E0A3
:1000D00002C005900D92AA35B107D9F721E0AAE533
:1000E000B1E001C01D92AB37B207E1F710E0CDE5FA
:1000F000D0E004C02197FE010E94C404CC35D10792
:10010000C9F70E948D030C94CA040C94000090E07F
:10011000FC01EC55FF4F249180579F4FFC018491C7
:10012000882399F090E0880F991FFC01EA57FF4F50
:10013000A591B491FC01E458FF4F859194918FB73C
:10014000F894EC91E22BEC938FBF089590E0FC01C2
:10015000E859FF4F2491FC01EC55FF4F3491FC010D
:10016000E057FF4FE491EE23C9F0222339F023300A
:1001700001F1A8F4213019F1223029F1F0E0EE0F5D
:10018000FF1FE458FF4FA591B4918FB7F894EC91FD
:10019000611126C030953E233C938FBF08952730D0
:1001A000A9F02830C9F0243049F7809180008F7D74
:1001B00003C0809180008F7780938000DFCF84B56B
:1001C0008F7784BDDBCF84B58F7DFBCF8091B0006E
:1001D0008F778093B000D2CF8091B0008F7DF9CF20
:1001E0003E2BDACF3FB7F89480915F019091600188
:1001F000A0916101B091620126B5A89B05C02F3F77
:1002000019F00196A11DB11D3FBFBA2FA92F982F3C
:100210008827BC01CD01620F711D811D911D42E037
:10022000660F771F881F991F4A95D1F708958F92FF
:100230009F92AF92BF92CF92DF92EF92FF924B01CB
:100240005C010E94F2006B017C010E94F2006C19BB
:100250007D098E099F09683E734081059105A8F3C9
:1002600021E0821A9108A108B10888EEC80E83E047
:10027000D81EE11CF11C81149104A104B10429F7DA
:10028000FF90EF90DF90CF90BF90AF909F908F90B6
:100290000895AF92BF92CF92DF92EF92FF920F93A9
:1002A0001F93CF93DF936C017B018B01040F151F0C
:1002B000EB015E01AE18BF08C017D10759F0699174
:1002C000D601ED91FC910190F081E02DC6010995D8
:1002D000892B79F7C501DF91CF911F910F91FF9085
:1002E000EF90DF90CF90BF90AF900895089590E089
:1002F00080E008958F929F92AF92BF920F931F93C9
:10030000CF93DF93CDB7DEB7A1970FB6F894DEBFDA
:100310000FBECDBF19A2423008F44AE08E010F5D36
:100320001F4F842E912CB12CA12CA50194010E9469
:10033000A204E62FB901CA01EA3044F5E05DD80114
:10034000EE938D01232B242B252B79F790E080E071
:10035000109769F0FD0101900020E9F73197AF0196
:100360004A1B5B0BBD0183E691E00E944901A19607
:100370000FB6F894DEBF0FBECDBFDF91CF911F91B6
:100380000F91BF90AF909F908F900895E95CD7CF69
:10039000FC0101900020E9F73197AF01481B590B90
:1003A000BC0183E691E00C944901CF93DF93EC010B
:1003B00060E08E810E94A60061E08E810E94A6000E
:1003C00060E08E810E94A6008BE891E00197F1F732
:1003D000DF91CF910895CF92DF92EF92FF920F932A
:1003E0001F93CF93DF936C017C0187E0E80EF11C33
:1003F000D0E0C0E0062F10E0B8010C2E02C07595C9
:1004000067950A94E2F76170F70181917F010E947C
:10041000A6002196C430D10579F7C601DF91CF91AE
:100420001F910F91FF90EF90DF90CF900C94D5012A
:10043000CF92DF92EF92FF920F931F93CF93DF93B0
:10044000EC01F62E642F8C810E94A6008D818F3FD7
:1004500019F060E00E94A6000F2D10E08F8584FF48
:1004600025C06E0187E0C80ED11CF12CE12CB8012B
:100470000E2C02C0759567950A94E2F76170F6013B
:1004800081916F010E94A600FFEFEF1AFF0A88E03A
:10049000E816F10461F7CE01DF91CF911F910F9122
:1004A000FF90EF90DF90CF900C94D501B80184E0DD
:1004B000759567958A95E1F7CE010E94EB016F2D46
:1004C000CE01DF91CF911F910F91FF90EF90DF90C0
:1004D000CF900C94EB0140E0682F83E691E00C9400
:1004E0001802CF93DF93823029F4909172019860C3
:1004F00090937201809376011092770180E480934B
:10050000780180E18093790180E580937A01809180
:1005100067010E948700809168018F3F11F00E945F
:100520008700809169010E948700C3E6D1E09E01A7
:10053000235631408091720184FD0AC084E090E02E
:100540002196281739073CF48E810E948700EFCF4F
:1005500088E090E0F5CF8BE39DE00197F1F760E054
:10056000809167010E94A60060E0809169010E946D
:10057000A600809168018F3F19F060E00E94A600FC
:100580008091720184FD39C063E083E691E00E94AE
:10059000EB01CBE4D6E4CE010197F1F763E083E60B
:1005A00091E00E94EB012197F1F763E083E691E08F
:1005B0000E94EB0183E592E00197F1F762E083E6A8
:1005C00091E00E94EB018091720180620E946B02B7
:1005D00084E0809373018CE00E946B0281E00E94B2
:1005E0006B028BE39FE10197F1F782E08093740146
:1005F00086E0DF91CF910C946B0280620E946B02C7
:100600008BE496E40197F1F78091720180620E9479
:100610006B0283E592E00197F1F7809172018062AD
:100620000E946B02D0CF90917601891710F08FEF66
:10063000890FE82FF0E0ED59FE4F848980680C9413
:100640006B0241E00E94180281E090E00895CF9291
:10065000DF92EF92FF926B017C0141E06DE283E655
:1006600091E00E94180266277727CB016C197D095B
:100670008E099F094AE00E947A010196FF90EF904F
:10068000DF90CF9008951F920F920FB60F92112412
:100690002F933F938F939F93AF93BF9380915B0171
:1006A00090915C01A0915D01B0915E0130915A0181
:1006B00023E0230F2D3758F50196A11DB11D20937E
:1006C0005A0180935B0190935C01A0935D01B0930C
:1006D0005E0180915F0190916001A0916101B091F4
:1006E00062010196A11DB11D80935F01909360018D
:1006F000A0936101B0936201BF91AF919F918F91DF
:100700003F912F910F900FBE0F901F90189526E8E4
:10071000230F0296A11DB11DD2CF789484B58260BB
:1007200084BD84B5816084BD85B5826085BD85B595
:10073000816085BD80916E00816080936E00109213
:10074000810080918100826080938100809181008E
:10075000816080938100809180008160809380001F
:100760008091B10084608093B1008091B00081607D
:100770008093B00080917A00846080937A008091A9
:100780007A00826080937A0080917A008160809301
:100790007A0080917A00806880937A001092C1007C
:1007A00082E00E94710280E00E9413038CE091E0DD
:1007B0000E94C8014AE060E074E080E090E00E949E
:1007C0007A0160ED77E080E090E00E94170180E020
:1007D0000E94130388E191E00E94C801C12CD12C32
:1007E000760181E00E941303C6010E948C04C816A2
:1007F00021F06C2DC6010E9494044AE0C701B601A5
:100800000E947A018CE291E00E94C8014AE0C7018F
:10081000B6010E947A0180E591E00E94C80164EF70
:1008200071E080E090E00E9417018FEFC81AD80AAB
:10083000E80AF80A85E0C816D104E104F10489F653
:1008400080E00E94130380E391E00E94C801C12C64
:10085000D12C760181E00E941303C6010E948C0412
:10086000C82F83E491E00E94C8014AE0C701B601A5
:100870000E947A0187E491E00E94C8016C2F70E029
:1008800090E080E04AE00E947A018DE491E00E94CD
:10089000C80168EE73E080E090E00E9417018FEFDE
:1008A000C81AD80AE80AF80AC11484E0D806E10494
:1008B000F10481F680E00E94130382E591E00E943A
:1008C000C801C0E0D0E068EE73E080E090E00E94F4
:1008D00017012097C1F30E940000F5CFE3E6F1E095
:1008E0001382128284E091E0918380838CE0848380
:1008F0008FEF85838BE0868385E0878384E0808724
:1009000083E0818782E082871386148615861686A7
:10091000178681E00C947102F999FECF92BD81BDDA
:10092000F89A992780B50895262FF999FECF1FBA16
:1009300092BD81BD20BD0FB6F894FA9AF99A0FBE08
:1009400001960895A1E21A2EAA1BBB1BFD010DC042
:10095000AA1FBB1FEE1FFF1FA217B307E407F5076F
:1009600020F0A21BB30BE40BF50B661F771F881F4B
:10097000991F1A9469F760957095809590959B01E1
:10098000AC01BD01CF010895EE0FFF1F0590F4915A
:08099000E02D0994F894FFCF5B
:1009980000000000210349017701760145455020F8
:1009A80073697A65203D20005772697474696E67AF
:1009B80020454550524F4D2E2E2E0A00202D200046
:1009C80052656164696E6720454550524F4D2E2E21
:1009D8002E0A0041443D002056616C3D0020202035
:0A09E8000A00454E442E2E2E0A0090
:00000001FF
