:020000020000FC
:100000000AC018951895189518951895189518956B
:0400100044C018953B
:100016005FE95DBF3CD07894B89ABA985FD051E05A
:100026005093670051B5506451BD7ED00090670073
:100036000A940092670060916700662399F451E084
:10004600509360002DD050916300509361006CE393
:10005600C09161006C1710F0C09A01C0C09851E0C1
:1000660050936700E2CF8895FECF9FE09A95F1F70F
:10007600BA95D9F70895E395ABE79CE09A95F1F721
:10008600AA95D9F7DA95C1F7EA95B1F7089550E040
:1000960058BB08951DD055D058B75D7F58BF12C0C4
:1000A6005091600057B93D9A3E98329A3198B2E025
:1000B600DCDF379A369A3699FECF379855B150938A
:1000C60063000895509164005FBF509165001895D4
:1000D600509365005FB75093640008955091660091
:1000E6005E7F0FF4516050936600F894A89550E037
:1000F60054BF58E151BD50E051BD5090660050FCD0
:1001060078940895509166005D7F0FF45260509385
:100116006600F894A89558E151BD59E651BD509036
:10012600660051FC7894089553E055BD5FE354BBD7
:10013600E9DF51E050936200609162006130E1F3C3
:10014600089550E055BF50E055BDC8DF50E05093CC
:0401560062000895A6
:00000001FF
