:020000020000FC
:100000000FC0189518951895189518951895189566
:0E001000189518951895189518951895189527
:1000200052E05EBF5FE55DBF32D0B89A51E05093B9
:10003000600051E05093610050E0509362000090E6
:100040006000039400926000C09AD4EFE1E013D006
:10005000C098D4EFE1E00FD0009061000AE0000EFC
:10006000009261000090620000E0001E00926200B9
:10007000E6CF8895FECFE395AEEF94E19A95F1F740
:10008000AA95D9F7DA95C1F7EA95B1F7089550E046
:0400900058BB0895BC
:00000001FF
