:100000000C94CA030C94F2030C94F2030C94F203C4
:100010000C94F2030C94F2030C94F2030C94F2038C
:100020000C94F2030C94F2030C94F2030C94F2037C
:100030000C94F2030C94F2030C94F2030C94F2036C
:100040000C94E7150C94F2030C94B5150C948F15D1
:100050000C94F2030C94F2030C94F2030C94F2034C
:100060000C9431160C94F20300000000003E5B4F2C
:100070005B3E3E6B4F6B3E1C3E7C3E1C183C7E3C08
:10008000181C577D571C1C5E7F5E1C00183C180016
:10009000FFE7C3E7FF0018241800FFE7DBE7FF30A6
:1000A000483A060E2629792926407F050507407F14
:1000B00005253F5A3CE73C5A7F3E1C1C08081C1C87
:1000C0003E7F14227F22145F5F005F5F06097F017D
:1000D0007F006689956A606060606094A2FFA29468
:1000E00008047E040810207E201008082A1C080836
:1000F0001C2A08081E101010100C1E0C1E0C303884
:100100003E3830060E3E0E06000000000000005F84
:1001100000000007000700147F147F14242A7F2AA0
:100120001223130864623649562050000807030062
:10013000001C2241000041221C002A1C7F1C2A08AE
:10014000083E080800807030000808080808000011
:1001500060600020100804023E5149453E00427F85
:10016000400072494949462141494D331814127FD4
:100170001027454545393C4A494931412111090774
:100180003649494936464949291E000014000000F5
:1001900040340000000814224114141414140041C7
:1001A00022140802015909063E415D594E7C121184
:1001B000127C7F494949363E414141227F414141BC
:1001C0003E7F494949417F090909013E4141517337
:1001D0007F0808087F00417F41002040413F017FA8
:1001E000081422417F404040407F021C027F7F0470
:1001F00008107F3E4141413E7F090909063E4151B9
:10020000215E7F09192946264949493203017F01A8
:10021000033F4040403F1F2040201F3F4038403FA9
:10022000631408146303047804036159494D4300BF
:100230007F4141410204081020004141417F0402F6
:10024000010204404040404000030708002054548D
:1002500078407F284444383844444428384444286B
:100260007F385454541800087E090218A4A49C78BE
:100270007F0804047800447D40002040403D007F1A
:100280001028440000417F40007C047804787C08FA
:100290000404783844444438FC18242418182424CE
:1002A00018FC7C08040408485454542404043F44B3
:1002B000243C4040207C1C2040201C3C4030403CE2
:1002C00044281028444C9090907C4464544C440042
:1002D00008364100000077000000413608000201A6
:1002E0000204023C2623263C1EA1A161123A404092
:1002F000207A38545455592155557941225454780F
:1003000042215554784020545579400C1E527212A7
:100310003955555559395454545939555454580030
:1003200000457C410002457D420001457C407D1234
:1003300011127DF0282528F07C5455450020545496
:100340007C547C0A097F4932494949323A44444441
:100350003A324A4848303A4141217A3A424020787C
:10036000009DA0A07D3D4242423D3D4040403D3C7D
:1003700024FF2424487E4943662B2FFC2F2BFF09A2
:1003800029F620C0887E0903205454794100004496
:100390007D413048484A32384040227A007A0A0A81
:1003A000727D0D19317D2629292F282629292926F4
:1003B00030484D4020380808080808080808382F39
:1003C00010C8ACBA2F102834FA00007B00000814C3
:1003D0002A142222142A14085500550055AA55AA99
:1003E00055AAFF55FF55FF000000FF00101010FF39
:1003F00000141414FF001010FF00FF1010F010F094
:10040000141414FC001414F700FF0000FF00FF1484
:1004100014F404FC141417101F10101F101F1414D0
:10042000141F00101010F0000000001F101010101A
:100430001F10101010F010000000FF10101010100E
:1004400010101010FF10000000FF140000FF00FF4C
:1004500000001F10170000FC04F4141417101714E8
:1004600014F404F40000FF00F7141414141414140A
:10047000F700F7141414171410101F101F1414147D
:10048000F4141010F010F000001F101F0000001FE7
:1004900014000000FC140000F010F01010FF10FF1A
:1004A000141414FF141010101F00000000F010FFAF
:1004B000FFFFFFFFF0F0F0F0F0FFFFFF0000000093
:1004C00000FFFF0F0F0F0F0F3844443844FC4A4A17
:1004D0004A347E02020606027E027E0263554941CC
:1004E000633844443C04407E201E2006027E020203
:1004F00099A5E7A5991C2A492A1C4C7201724C3017
:100500004A4D4D303048784830BC625A463D3E49ED
:100510004949007E0101017E2A2A2A2A2A44445F91
:10052000444440514A444040444A51400000FF0185
:1005300003E080FF000008086B6B08361236243693
:10054000060F090F060000181800000010100030F8
:1005500040FF0101001F01011E00191D1712003C80
:100560003C3C3C0000000000EF03038002CF03008E
:10057000C130ED0464031281E803850078CB0539AE
:100580002C003402F70120EA020000C00123C1015F
:1005900010C5023E28C701863601483701003A01DE
:1005A00055B1020018B603088227F20100260101A6
:1005B000E00F0F312B0C0E084EF1370710030E0918
:1005C00000E10F000E1403110731C148080F0C3170
:1005D000360F118029800000000000240027002A27
:1005E00000000000080002010000030407000000F2
:1005F0000000000000446F6E652100526F756E644C
:100600006564207265637473202866696C6C656428
:100610002920202000526F756E6465642072656326
:10062000747320286F75746C696E652920200054DE
:100630007269616E676C6573202866696C6C6564AD
:10064000292020202020202000547269616E676CD0
:10065000657320286F75746C696E652920202020D1
:10066000202000436972636C657320286F75746C79
:10067000696E6529202020202020202000436972F7
:10068000636C6573202866696C6C65642920202082
:100690002020202020200052656374616E676C6505
:1006A00073202866696C6C65642920202020202036
:1006B0000052656374616E676C657320286F757492
:1006C0006C696E6529202020202000486F72697AAD
:1006D0002F56657274204C696E657320202020208F
:1006E00020202020004C696E6573202020202020CF
:1006F00020202020202020202020202020200054E6
:1007000065787420202020202020202020202020F8
:1007100020202020202020200053637265656E2059
:1007200066696C6C202020202020202020202020A2
:1007300020200042656E63686D61726B202020206E
:1007400020202020202020202020202054696D659A
:1007500020286D6963726F7365636F6E647329001F
:100760000102040810204080010204081020010248
:100770000408102000000000250028002B000404BD
:100780000404040404040202020202020303030339
:1007900003034C1711241FBECFEFD8E0DEBFCDBF3F
:1007A00012E0A0E0B1E0E4EAF5E402C005900D92A9
:1007B000AA31B107D9F723E0AAE1B2E001C01D9246
:1007C000A637B207E1F713E0CAECD3E004C02197E3
:1007D000FE010E94C522C93CD107C9F70E94191821
:1007E0000C94D0220C940000AF92BF92CF92DF9273
:1007F000EF92FF920F931F93CF93DF936C017B01D6
:100800008B01040F151FEB015E01AE18BF08C01766
:10081000D10759F06991D601ED91FC910190F081D9
:10082000E02DC6010995892B79F7C501DF91CF919C
:100830001F910F91FF90EF90DF90CF90BF90AF90FE
:100840000895FC01538D448D252F30E0842F90E0D6
:10085000821B930B541710F0CF96089501970895BB
:10086000FC01918D828D981761F0A28DAE0FBF2F84
:10087000B11D5D968C91928D9F5F9F73928F90E0DA
:1008800008958FEF9FEF0895FC01918D828D981749
:1008900031F0828DE80FF11D858D90E008958FEF86
:1008A0009FEF0895FC01918D228D892F90E0805C4F
:1008B0009F4F821B91098F739927089585E992E0D4
:1008C0000E94520421E0892B09F420E0822F089530
:1008D00080E090E0892B29F00E945E0481110C9445
:1008E00000000895FC01A48DA80FB92FB11DA35AD3
:1008F000BF4F2C91848D90E001968F739927848F40
:10090000A689B7892C93A089B1898C918370806462
:100910008C93938D848D981306C00288F389E02D03
:1009200080818F7D80830895EF92FF920F931F93B4
:10093000CF93DF93EC0181E0888F9B8D8C8D981392
:100940001AC0E889F989808185FF15C09FB7F8949E
:10095000EE89FF896083E889F989808183708064EA
:1009600080839FBF81E090E0DF91CF911F910F9135
:10097000FF90EF900895F62E0B8D10E00F5F1F4F44
:100980000F731127E02E8C8D8E110CC00FB607FC53
:10099000FACFE889F989808185FFF5CFCE010E94E1
:1009A0007204F1CFEB8DEC0FFD2FF11DE35AFF4FD9
:1009B000F0829FB7F8940B8FEA89FB89808180626F
:1009C000CFCF0F931F93CF93DF938C01D0E0C0E084
:1009D000F801EC0FFD1F6491662341F085E992E078
:1009E0000E949404892B11F02196F2CFCE01DF9161
:1009F000CF911F910F910895CF93DF93EC01888DD4
:100A00008823B9F0AA89BB89E889F9898C9185FD89
:100A100003C0808186FD0DC00FB607FCF7CF8C9117
:100A200085FFF2CF808185FFEDCFCE010E94720459
:100A3000E9CFDF91CF91089590E0FC01EF51FA4F9B
:100A40002491FC01E05AF84F3491FC01E258F84F30
:100A5000E491EE23C9F0222339F0233001F1A8F408
:100A6000213019F1223029F1F0E0EE0FFF1FEC5890
:100A7000F84FA591B4918FB7F894EC91611126C00D
:100A800030953E233C938FBF08952730A9F028303E
:100A9000C9F0243049F7809180008F7D03C0809198
:100AA00080008F7780938000DFCF84B58F7784BDFF
:100AB000DBCF84B58F7DFBCF8091B0008F778093A3
:100AC000B000D2CF8091B0008F7DF9CF3E2BDACF2E
:100AD000CF93DF9390E0FC01E05AF84F24918258C5
:100AE000984FFC0184918823D1F090E0880F991FE2
:100AF000FC01E952FA4FA591B491FC01EC58F84F72
:100B0000C591D49161110EC09FB7F8948C91E22FDA
:100B1000E0958E238C932881E223E8839FBFDF91A9
:100B2000CF9108958FB7F894EC91E22BEC938FBF9F
:100B3000F6CF3FB7F8948091910290919202A091E4
:100B40009302B091940226B5A89B05C02F3F19F0DF
:100B50000196A11DB11D3FBFBA2FA92F982F88273D
:100B6000BC01CD01620F711D811D911D42E0660F18
:100B7000771F881F991F4A95D1F708958F929F92EA
:100B8000AF92BF92CF92DF92EF92FF924B015C0146
:100B90000E9499056B017C010E9499056C197D09E1
:100BA0008E099F09683E734081059105A8F321E0F5
:100BB000821A9108A108B10888EEC80E83E0D81EF9
:100BC000E11CF11C81149104A104B10429F7FF90E8
:100BD000EF90DF90CF90BF90AF909F908F9008954F
:100BE00020914202260F3327331F21323105ECF4C6
:100BF00020916602FC0190E080E0243069F082E000
:100C00000895A09142022191AC014E5D5D4FA40F69
:100C1000B52FB11D2C930196861798F3809142024F
:100C2000680F6093420280E0089581E0089508957E
:100C30008FEF9FEF08958FEF9FEF089580911B0234
:100C400090E09195819591090895CF93DF93CB0121
:100C5000EA01642F0E94F005CE01DF91CF91089543
:100C6000CF93DF931F92CDB7DEB7698361E0CE01EA
:100C700001960E94F00581E090E00F90DF91CF9106
:100C80000895FC01A5A1B6A18C9192A589238C930E
:100C9000A5A1B6A18C9191A5892B8C9308950F9352
:100CA0001F93CF93DF93EC018B018DA981110DC0B0
:100CB0001EBD0DB407FEFDCF0EBD0DB407FEFDCF6A
:100CC000DF91CF911F910F9108958130E9F480E178
:100CD000E9A1FAA1908117FF14C02DA1922B908356
:100CE000EBA1FCA190812FA1922B9083EBA1FCA101
:100CF000908128A592239083000F111F815041F706
:100D0000DFCF2EA19223EBCFEF8DF8A11083CE0180
:100D10000E944106EF8DF8A10083CE01DF91CF91B3
:100D20001F910F910C944106FC0185A9811105C00A
:100D30006EBD0DB407FEFDCF08958130E1F488E06B
:100D4000A1A1B2A19C9167FF13C025A1922B9C93F6
:100D5000A3A1B4A19C9127A1922B9C93660FA3A160
:100D6000B4A19C9120A592239C93815049F70895AA
:100D700026A19223ECCFA78DB0A16C93CF010C9448
:100D80004106CF93DF93EC01ED8DFE8D80819CA910
:100D900089238083CE010E949406ED8DFE8D808193
:100DA0009BA9892B8083DF91CF910895AF92BF9249
:100DB000CF92DF92EF92FF920F931F93CF93DF9327
:100DC000EC015B016A01215031097901E60EF71E41
:100DD00001501109040F151F6AE20E94C106B501F6
:100DE000CE010E944F06B701CE010E944F066BE272
:100DF000CE010E94C106B601CE010E944F06B80185
:100E0000CE010E944F066CE2CE01DF91CF911F917F
:100E10000F91FF90EF90DF90CF90BF90AF900C9428
:100E2000C106FC0185A9811104C091A182A19CBDCC
:100E30008DBD08951F93CF93DF93EC01162FE881AA
:100E4000F9810284F385E02D0995112371F06DADD0
:100E5000CE010E94C106E881F9810688F789E02D5C
:100E6000CE01DF91CF911F9109946EADF1CFAF927A
:100E7000BF92CF92DF92EF92FF920F931F93CF9387
:100E8000DF93EC0177FD38C088859985681779076D
:100E90009CF557FD31C08A859B854817590764F535
:100EA00069017A015B01E881F9810284F385E02D13
:100EB000CE010995E881F98102A4F3A5E02D01E0B6
:100EC00010E021E030E0A701B501CE010995B6019F
:100ED000CE010E944F06E881F9810688F789E02D4E
:100EE000CE01DF91CF911F910F91FF90EF90DF9096
:100EF000CF90BF90AF900994DF91CF911F910F9148
:100F0000FF90EF90DF90CF90BF90AF9008958F92B9
:100F10009F92AF92BF92CF92DF92EF92FF920F9388
:100F20001F93CF93DF93EC0149015701E881F981C9
:100F300002A4F3A5E02D09959401D8010E94A722EF
:100F40006B017C01C114D104E104F10409F490C0E7
:100F50008DA9811115C081E0C81AD108E108F108F6
:100F60008FEFC816D806E806F80609F481C0BEBCA3
:100F70000DB407FEFDCFAEBC0DB407FEFDCFEBCF29
:100F8000813009F045C081E0C81AD108E108F108B4
:100F90008FEFC816D806E806F80609F469C09B2D3D
:100FA00088E0E9A1FAA1208197FF2CC03DA1232B65
:100FB0002083EBA1FCA120813FA1232B2083EBA167
:100FC000FCA1208138A523232083990F815049F764
:100FD0009A2D88E0E9A1FAA1208197FF16C03DA1D2
:100FE000232B2083EBA1FCA120813FA1232B208375
:100FF000EBA1FCA1208138A523232083990F8150E8
:1010000049F7C1CF3EA12323D3CF3EA12323E9CF6C
:10101000BA1016C0CC0CDD1CEE1CFF1CEF8DF8A125
:10102000B08281E0C81AD108E108F1088FEFC81634
:10103000D806E806F806E1F0CE010E944106F1CF9D
:1010400081E0C81AD108E108F1088FEFC816D80668
:10105000E806F80669F0EF8DF8A1B082CE010E9493
:101060004106EF8DF8A1A082CE010E944106E8CF93
:10107000DF91CF911F910F91FF90EF90DF90CF9074
:10108000BF90AF909F908F9008958F929F92AF9254
:10109000BF92CF92DF92EF92FF920F931F93CF9365
:1010A000DF935C014B016A01E90177FD52C0DC016D
:1010B00018968D919C91681779070CF04AC020977B
:1010C00009F447C037FF07C0C9010196C80ED91EF1
:1010D000D195C195D109F50182859385C816D906A8
:1010E000C4F5A6014C0F5D1F9A012150310937FD4F
:1010F00030C0D7FE03C0EA01D12CC12C2817390714
:101100001CF0EC01CC19DD09D501ED91FC910284B4
:10111000F385E02DC501099578018E0121E030E0CD
:10112000A601B401C5010E948707D501ED91FC918C
:101130000688F789E02DC501DF91CF911F910F91AE
:10114000FF90EF90DF90CF90BF90AF909F908F90E7
:101150000994DF91CF911F910F91FF90EF90DF9055
:10116000CF90BF90AF909F908F9008958F929F9255
:10117000AF92BF92CF92DF92EF92FF920F931F93A5
:10118000CF93DF935C016B014A01E90157FD52C027
:10119000DC011A968D919C91481759070CF04AC0B2
:1011A000209709F447C037FF07C0C9010196C80E50
:1011B000D91ED195C195D109F50180859185C816B3
:1011C000D906C4F5A6014C0F5D1F9A0121503109C3
:1011D00037FD30C0D7FE03C0EA01D12CC12C28173F
:1011E00039071CF0EC01CC19DD09D501ED91FC911A
:1011F0000284F385E02DC5010995780101E010E036
:101200009E01A401B601C5010E948707D501ED9199
:10121000FC910688F789E02DC501DF91CF911F91E0
:101220000F91FF90EF90DF90CF90BF90AF909F9085
:101230008F900994DF91CF911F910F91FF90EF90C4
:10124000DF90CF90BF90AF909F908F9008958F9236
:101250009F92AF92BF92CF92DF92EF92FF920F9345
:101260001F93CF93DF934C016B015A01E901209743
:1012700009F46CC00115110509F468C037FF07C0F7
:10128000C9010196C80ED91ED195C195D109F401A5
:10129000A085B185CA16DB060CF058C017FF07C041
:1012A000C8010196A80EB91E119501951109F40106
:1012B00082859385A816B9060CF048C0F601EC0F9C
:1012C000FD1FAF014150510957FD40C0B501600FEE
:1012D000711F9B012150310937FD38C0D7FE03C073
:1012E000EF01D12CC12CB7FE03C08B01B12CA12C76
:1012F0004A175B071CF0ED01CC19DD0928173907E7
:101300001CF08C010A191B09D401ED91FC91028497
:10131000F385E02DC40109959E01A501B601C40124
:101320000E948707D401ED91FC910688F789E02D92
:10133000C401DF91CF911F910F91FF90EF90DF904B
:10134000CF90BF90AF909F908F900994DF91CF91F5
:101350001F910F91FF90EF90DF90CF90BF90AF90D3
:101360009F908F900895EF92FF920F931F93CF93CA
:10137000DF9377FD32C0DC011896ED91FC916E177A
:101380007F075CF52115310541F137FF07C0F901F1
:1013900031964E0F5F1F319521953109DC011A9668
:1013A000ED91FC914E175F07C4F4EA01C20FD31F01
:1013B000DE011197B7FD11C057FF03C09E0150E039
:1013C00040E0AE17BF071CF09F01241B350B7801CE
:1013D000890121E030E00E948707DF91CF911F91C2
:1013E0000F91FF90EF9008952F923F924F925F924E
:1013F0006F927F928F929F92AF92BF92CF92DF9225
:10140000EF92FF920F931F93CF93DF93CDB7DEB789
:101410002C970FB6F894DEBF0FBECDBF3C017C8386
:101420006B835C874B871801270181E090E05C01AA
:10143000A41AB50ACA01919581959109AC01440F8E
:10144000551F5A834983C80101969E838D83F12CD1
:10145000E12C88248394912C922F91709F83227089
:101460002887AB014F5F5F4F5A8749878B859C85E3
:10147000E816F9060CF07AC0CB84DC84B7FC0CC00B
:101480006C0191E0C91AD10849815A814E5F5F4FC2
:101490005A834983A40EB51E5FEFE51AF50A82E070
:1014A000880E911CA80CB91CCE14DF0464F19F8136
:1014B000992399F09601220F331F4D815E81240FED
:1014C000351F82014B815C814C195D09B701660DA6
:1014D000771D83E393E00E94B3095885552399F063
:1014E0009601220F331F8D819E81280F391F8201A3
:1014F0004B815C814C195D09B3016E197F0983E34F
:1015000093E00E94B3094B855C854C155D0559F14C
:101510005F81552391F0940122503109220D331D32
:10152000820149855A854E195F096B857C85660D58
:10153000771D83E393E00E94B3098885882399F09F
:10154000940122503109220D331DB3014B855C8576
:10155000641B750B820149855A854E195F0983E327
:1015600093E00E94B309DC86CB8680CF2C960FB621
:10157000F894DEBF0FBECDBFDF91CF911F910F91C9
:10158000FF90EF90DF90CF90BF90AF909F908F90A3
:101590007F906F905F904F903F902F900895EF92C3
:1015A000FF920F931F93CF93DF9357FD31C0DC0160
:1015B0001A96ED91FC914E175F0754F521153105F0
:1015C00039F137FF07C0F90131966E0F7F1F319552
:1015D00021953109DC011896ED91FC916E177F077A
:1015E000BCF4EB01C20FD31FDE011197B7FD10C091
:1015F00077FF03C09E0170E060E0AE17BF071CF0EC
:101600009F01261B370B780101E010E00E9487073D
:10161000DF91CF911F910F91FF90EF9008958F92DE
:101620009F92AF92BF92CF92DF92EF92FF920F9371
:101630001F93CF93DF9347012115310509F44BC068
:101640000115110509F447C037FF07C0F9013196AC
:101650006E0F7F1F319521953109DC011896AD90F1
:10166000BC906A157B05BCF517FF07C0F8013196E1
:101670004E0F5F1F119501951109DC011A96ED912E
:10168000FC914E175F073CF56B01C20ED31EE601BD
:101690002197D7FD20C07A01E00EF11ED7011197E6
:1016A000B7FD19C077FF03C0960170E060E057FFF7
:1016B00003C0870150E040E0CA15DB051CF095012E
:1016C000261B370BAE17BF071CF08F01041B150B31
:1016D00074010E948707DF91CF911F910F91FF90B6
:1016E000EF90DF90CF90BF90AF909F908F90089534
:1016F000EF92FF920F931F93CF93DF93EC0177FD4F
:1017000022C08885998568177907ECF457FD1BC0BE
:101710008A859B8548175907B4F47901E881F981D6
:1017200002A4F3A5E02D01E010E021E030E0CE01BD
:101730000995B701CE01DF91CF911F910F91FF90D5
:10174000EF900C944F06DF91CF911F910F91FF9076
:10175000EF9008952F923F924F925F926F927F92F7
:101760008F929F92AF92BF92CF92DF92EF92FF92B1
:101770000F931F93CF93DF9300D000D0CDB7DEB788
:101780006C015B015C834B8381E090E04C01841A27
:10179000950A2A01519441945108440C551CF12C8E
:1017A000E12C66246394712C422F44704983522F9C
:1017B00052705A83822F8870282E2170322E4B81CE
:1017C0005C81E416F5060CF083C097FC09C041501B
:1017D00051095C834B8352E0450E511C840C951CCF
:1017E0008FEFE81AF80A92E0690E711C860C971CBC
:1017F00049814423C1F098014B815C814A0D5B1DF6
:10180000B6016E0D7F1D83E393E00E94780B980173
:10181000A5014E0D5F1D6B817C816C0D7D1D83E3E9
:1018200093E00E94780B5A815523C9F09801A501D5
:101830008B819C81481B590BB6016E0D7F1D83E384
:1018400093E00E94780B9801A5014E195F096B8106
:101850007C816C0D7D1D83E393E00E94780B222038
:10186000C9F09801A5014E0D5F1DB6018B819C81C9
:10187000681B790B83E393E00E94780B98014B81FE
:101880005C814A0D5B1DB6016E197F0983E393E00D
:101890000E94780B332009F492CF9801A5014E19CC
:1018A0005F09B6018B819C81681B790B83E393E010
:1018B0000E94780B9801A5018B819C81481B590BD4
:1018C000B6016E197F0983E393E00E94780B77CF0E
:1018D0000F900F900F900F90DF91CF911F910F916C
:1018E000FF90EF90DF90CF90BF90AF909F908F9040
:1018F0007F906F905F904F903F902F900895CF937F
:10190000DF93EC010E9411078FA987FD06C0EB8DC4
:10191000FC8D80819AA989238083DF91CF910895DE
:101920000895AF92BF92CF92DF92EF92FF920F9302
:101930001F93CF93DF93EC01E62E8A01A22E0E9423
:1019400011078FA987FD06C0EB8DFC8D80819AA9B8
:1019500089238083ED8DFE8D80819CA989238083DE
:101960006E2DCE010E949406ED8DFE8D80819BA987
:10197000892B8083D12CC12CB12CCA14DB04E4F454
:101980008DA97801823079F488A9882361F0F80163
:10199000619171917F01CE010E944F06FFEFCF1A36
:1019A000DF0A8701EACFFFEFEF1AFF0AF80164911F
:1019B000CE010E949406F2CF8FA987FD06C0EB8D61
:1019C000FC8D808199A9892B8083DF91CF911F9114
:1019D0000F91FF90EF90DF90CF90BF90AF90089560
:1019E000611106C060E220E050E040E00C94910CF0
:1019F00061E2F9CF0F931F93CF93DF931F92CDB77F
:101A0000DEB78C016370DC0156966C93569762309A
:101A100009F468C0633009F46AC0613009F456C043
:101A200088E4898380EF90E019969C938E931897B1
:101A300080E491E01B969C938E931A97C8010E94B4
:101A40001107D801D7968C91D79787FD09C05B966F
:101A5000ED91FC915C978081D2969C918923808343
:101A6000D8015D96ED91FC915E978081D4969C9112
:101A70008923808366E3C8010E949406D8015D969D
:101A8000ED91FC915E978081D3969C91D397892BA1
:101A90008083D5968C91823061F16981C8010E9462
:101AA0009406D801D7968C91D79787FD09C05B968D
:101AB000ED91FC915C978081D1969C91892B8083DC
:101AC0000F90DF91CF911F910F91089588E2898344
:101AD00080E491E0F8019187808780EF90E0938720
:101AE0008287ACCF88E8898380EF90E09DCF88EE35
:101AF000EECFF80180A9882381F269817A81C8013B
:101B00000E944F06CECFFC0187A987FD06C0A38D9A
:101B1000B48D9C9181A9892B8C9308950895FC0123
:101B20006370668B8481958126813781613039F0BD
:101B3000633029F091878087338722870895318722
:101B400020879387828708952F923F924F925F92CA
:101B50006F927F928F929F92AF92BF92CF92DF92BD
:101B6000EF92FF920F931F93CF93DF93CDB7DEB722
:101B70006A970FB6F894DEBF0FBECDBF9A8F898FDC
:101B80007A8369834A01D22E18870F833701BC2CD0
:101B9000DC0159962D913C915A972115310509F098
:101BA00015C118968D919C911997681779070CF0BB
:101BB000D7C11A968D919C91481759070CF0D0C146
:101BC0004C2C512CB6E0CB9E600D711D11247C87EE
:101BD0006B87161617060CF0C3C1EA2DF0E0FA87E2
:101BE000E98793E0EE0FFF1F9A95E1F7F88BEF87F7
:101BF000CF01840F951F181619060CF0B1C1A98DDD
:101C0000BA8D58968C91811104C0BFEABD1508F4B5
:101C1000D394A98DBA8DED91FC9111970284F3852F
:101C2000E02DCD010995B5E0DB9EC0011124E981CD
:101C3000FA81FC83EB83312C212C9C0128593F4FE6
:101C4000388F2F8B4A2D50E05E8B4D8BEF89F88DAE
:101C5000E20DF31D44919E828D82D12CC12C6981AD
:101C60007A81620D731D7A8B698B842F90E09C8B37
:101C70008B8BE98DFA8DA081B18140FF82C0F1E0AC
:101C8000BF126FC0AF126DC01C96ED91FC912F81F9
:101C90003885A4014C0D5D1D69897A89898D9A8DDD
:101CA0000995EB89FC89F595E7954E2F5FEFC51AED
:101CB000D50A6D817E818D899E89680F791F7E830B
:101CC0006D8398E0C916D10481F6AFEF2A1A3A0A5B
:101CD000EB81FC81E40DF51DFC83EB83F5E02F1611
:101CE000310409F0B3CF2F81388526153705B9F0B7
:101CF000A98DBA8DED91FC91B1E0BB1257C0AB122A
:101D000055C069817A816B5F7F4F0088F189E02D32
:101D1000830128E030E0A401898D9A8D0995A98D71
:101D2000BA8DED91FC9111970688F789E02DCD01D0
:101D30006A960FB6F894DEBF0FBECDBFDF91CF918C
:101D40001F910F91FF90EF90DF90CF90BF90AF90D9
:101D50009F908F907F906F905F904F903F902F90CB
:101D600009941E96ED91FC91EF80F88409851A85FF
:101D700092014D815E816B817C81898D9A8D09955F
:101D800090CF2F8138852615370509F48ACF31E0A9
:101D9000B31207C0A31205C01C96ED91FC919301EC
:101DA00078CF1E96ED91FC917301E0CF6B857C8519
:101DB000641975090684F785E02D73010F8518896C
:101DC0009201A401898D9A8D0995A9CFF9013496C4
:101DD0009491329745915491D91AB7E0DB9E400D0A
:101DE000511D1124F901259134913C8B2B8BFA0163
:101DF00025903490FA013296749031963491398B53
:101E0000329664903196449041E04C1518F04A1592
:101E100008F07FC0662D062C000C770B7C836B834B
:101E2000842D042C000C990B9E838D83A98DBA8D73
:101E3000ED91FC9111970284F385E02DCD01099578
:101E4000512CD12CC12CEA2DF0E0FA87E9872B2DFB
:101E500030E03C872B87A401440D511D47FC5A9567
:101E6000588F4F8B69817A81660D711D67FC7A9559
:101E70007E876D877989C71608F051CF2C2D30E009
:101E80004D815E81420F531FA985BA854A9FC001CB
:101E90004B9F900D5A9F900D1124FC01E80DF91DE8
:101EA000F88BEF87852D612C4F89588D420F531F7A
:101EB0005E8B4D8B671408F050C044244394480E49
:101EC000877041F4C1010196EB89FC89E20DF31D95
:101ED000D4901C01D7FE19C0A98DBA8DED91FC914B
:101EE000662D70E0B1E0BB1219C0AB1217C02D8592
:101EF0003E85620F731F0484F585E02D2F813885A0
:101F00004D895E89898D9A8D0995DD0C6394842DA8
:101F1000D1CF1E821D821C821B8288CF4B815C81A7
:101F2000640F751FAB85BC856A9FC0016B9F900DC8
:101F30007A9F900D112469817A81680F791F068438
:101F4000F785E02DEF80F88409851A859D014F857E
:101F50005889898D9A8D0995D8CF570CC3948ACF0B
:101F60006A960FB6F894DEBF0FBECDBFDF91CF915A
:101F70001F910F91FF90EF90DF90CF90BF90AF90A7
:101F80009F908F907F906F905F904F903F902F9099
:101F900008958F929F92AF92CF92EF92FF920F93FC
:101FA0001F93CF93DF93EC01262F898D9A8D009795
:101FB00009F051C06A30D1F41D861C868D8948E035
:101FC000849F900111248E859F85820F931F9F8788
:101FD0008E8781E090E0DF91CF911F910F91FF906C
:101FE000EF90CF90AF909F908F9008956D3089F3D0
:101FF000CC88AD888F898823C1F08C859D8536E09B
:10200000C39E800D911D1124488559854817590795
:1020100064F44E855F851D861C8638E0A39EC00152
:102020001124840F951F9F878E87EA88FB88088973
:1020300019894E855F856C857D85CE010E94A40D32
:102040002C898C859D8546E0249F800D911D11244F
:102050009D878C87BECF6A3069F41D861C86FC0183
:102060003896E4912D898E859F85E29F800D911D84
:102070001124ADCF6D3009F4ACCFFC01349634910E
:10208000631708F4A6CF3296E491E61708F4A1CFBF
:10209000FC01329685909490462F431B342F47E0E5
:1020A000349F800C911C1124F401329634913196A6
:1020B000E4913323A9F1EE2399F1CC88F40135960C
:1020C000E491AD884F89442301F10E2E000CFF0BE3
:1020D000E30FF11DCE9EA001CF9E500D11246C8503
:1020E0007D85460F571F68857985641775076CF4E1
:1020F0004E855F851D861C86FC013896E491AE9E58
:10210000400D511D11245F874E87EA88FB8808899E
:1021100019894E855F856C857D85CE010E94A40D51
:10212000F4013496E4912C898C859D85E29F800D85
:10213000911D11248DCF6F927F928F929F92AF92BB
:10214000BF92CF92DF92EF92FF920F931F93CF93A4
:10215000DF93EC016B015A0139014801E881F981F3
:102160000284F385E02D0995E881F9810288F389DD
:10217000E02D87019301A501B601CE010995A501C6
:10218000480D591D41505109E881F9810288F389B0
:10219000E02D9301B601CE010995E881F98100880F
:1021A000F189E02D9401A501B601CE010995C60C77
:1021B000D71CB60161507109E881F9810088F18965
:1021C000E02D9401A501CE010995E881F9810688E9
:1021D000F789E02DCE01DF91CF911F910F91FF90F4
:1021E000EF90DF90CF90BF90AF909F908F907F90B7
:1021F0006F9009946F927F928F929F92AF92BF924D
:10220000CF92DF92EF92FF920F931F93CF93DF93C2
:102210005C01EB016A01490138018701DC01ED91A4
:10222000FC916217730719F5641675062CF0962D4C
:10223000872D3A01C92ED82E9601261937092F5F0E
:102240003F4F048CF58DE02DA301BE01C50109951A
:10225000DF91CF911F910F91FF90EF90DF90CF9082
:10226000BF90AF909F908F907F906F90089546158C
:10227000570591F42617370724F0892D4B01C22FFB
:10228000D82F9E01281939092F5F3F4F068CF78DF3
:10229000E02DA601B401DACF0284F385E02D099583
:1022A000D501ED91FC910488F589E02D830194011D
:1022B000A601BE01C5010995D501ED91FC910688E5
:1022C000F789E02DC501DF91CF911F910F91FF900C
:1022D000EF90DF90CF90BF90AF909F908F907F90C6
:1022E0006F9009942F923F924F925F926F927F92DC
:1022F0008F929F92AF92BF92CF92DF92EF92FF9216
:102300000F931F93CF93DF93EC015B014A013901D7
:1023100018012701760189019A01AB01BC0183E311
:1023200093E00E94FA1082019101A301B40183E3BA
:1023300093E00E94FA1085019E01A201B10183E39E
:1023400093E00E94FA10DF91CF911F910F91FF90BF
:10235000EF90DF90CF90BF90AF909F908F907F9045
:102360006F905F904F903F902F900895EF92FF9263
:102370000F931F93DC011A960D911C911B971896D1
:102380002D913C911997ED91FC9100A0F1A1E02DC8
:102390007B0150E040E070E060E009951F910F91F3
:1023A000FF90EF9008954F925F926F927F928F927D
:1023B0009F92AF92BF92CF92DF92EF92FF920F93D4
:1023C0001F93CF93DF936C012B015A013901480110
:1023D000DC01ED91FC910284F385E02D0995E20189
:1023E000640C751CD601ED91FC91C615D7055CF403
:1023F0000088F189E02D87019401A501BE01C60185
:1024000009952196EFCF0688F789E02DC601DF9167
:10241000CF911F910F91FF90EF90DF90CF90BF90E1
:10242000AF909F908F907F906F905F904F900994A6
:102430008F929F92AF92BF92CF92DF92EF92FF92D4
:102440000F931F93CF93DF93EC015B014A01690166
:10245000E881F9810284F385E02D099595012C0D21
:102460003D1D21503109E881F9810488F589E02D6D
:1024700078018401A401B501CE010995E881F981B3
:102480000688F789E02DCE01DF91CF911F910F9142
:10249000FF90EF90DF90CF90BF90AF909F908F9084
:1024A00009948F929F92AF92BF92CF92DF92EF9258
:1024B000FF920F931F93CF93DF93EC015B014A01CF
:1024C00069017801E881F9810284F385E02D09959D
:1024D000C80CD91C860101501109E881F9810488D2
:1024E000F589E02D9501A401B501CE010995E8819A
:1024F000F9810688F789E02DCE01DF91CF911F91F8
:102500000F91FF90EF90DF90CF90BF90AF909F9092
:102510008F900994EF92FF920F931F93DC01ED913E
:10252000FC9100A0F1A1E02D09951F910F91FF9062
:10253000EF9008950F931F93DC01ED91FC91068CB1
:10254000F78DE02D09951F910F9108950F931F931B
:10255000DC01ED91FC91048CF58DE02D09951F9126
:102560000F910895DC01ED91FC910084F185E02D3F
:1025700009942F923F924F925F926F927F928F9227
:102580009F92AF92BF92CF92DF92EF92FF920F9302
:102590001F93CF93DF9300D000D000D0CDB7DEB72C
:1025A0003C016A013E832D83FC82EB825801A41A10
:1025B000B50AB7FE03C0B194A194B1088D809E8086
:1025C000861A970A97FE03C09194819491088A1401
:1025D0009B045CF0902F812F0D811E819D838E8343
:1025E0009C2D8D2D6B01692F782F0C151D055CF02E
:1025F0009D818E817E836D83692F782F902F812F0F
:102600008601C92ED82E1601201A310A2B012D81E0
:102610003E81421A530A57FE03C051944194510817
:10262000710137FE03C03FEFE31AF30AF594E79414
:102630008D819E81861797075CF5A1E0B0E0BA8393
:10264000A983C016D1064CF1D301ED91FC9104840D
:10265000F585E02D2B813C81A8016D817E818A1456
:102660009B041CF04D815E81B801C3010995E418FB
:10267000F508F7FE0AC02D813E8189819A81280FD5
:10268000391F3E832D83E20CF31C0F5F1F4FD9CF00
:102690002FEF3FEF3A832983D4CF26960FB6F894D5
:1026A000DEBF0FBECDBFDF91CF911F910F91FF9085
:1026B000EF90DF90CF90BF90AF909F908F907F90E2
:1026C0006F905F904F903F902F900895089590E005
:1026D00080E008950E94CB22FB0101900020E9F7E1
:1026E0003197AF01461B570BDC01ED91FC91028045
:1026F000F381E02D09948F929F92AF92BF92EF9257
:10270000FF920F931F93CF93DF93CDB7DEB7A197BF
:102710000FB6F894DEBF0FBECDBF7C01FA01CB012E
:1027200019A2223008F42AE08E010F5D1F4F822E7D
:10273000912CB12CA12CBF01A50194010E9466220D
:10274000F901CA016A300CF5605DD8016E938D0104
:10275000232B242B252B79F790E080E0109721F094
:10276000BD01C7010E946C13A1960FB6F894DEBF9D
:102770000FBECDBFDF91CF911F910F91FF90EF90D2
:10278000BF90AF909F908F900895695CDECF0F93BC
:102790001F93CF93DF93EC010E947B138C0162E4C3
:1027A00071E0CE010E946C13800F911FDF91CF91D9
:1027B0001F910F9108950F931F93CF93DF93EC0117
:1027C0000E946C138C0162E471E0CE010E946C13D4
:1027D000800F911FDF91CF911F910F9108951F934B
:1027E000CF93DF9385ED8093BC0080911E02909182
:1027F0001F02A0912002B09121020796A11DB11DD8
:1028000023E0B695A795979587952A95D1F72091BE
:10281000BC0024FD03C01092660252C040911E020B
:1028200050911F026091200270912102452B462B8E
:10283000472B69F30097A105B10541F025E32A95DF
:10284000F1F700000197A109B109E1CF80911D02C4
:10285000C1E0C0931C02882399F1D091B800109177
:10286000BA008091BC008A7B8093BC0060E082E16A
:102870000E941C0560E083E10E941C051092660224
:10288000C09368021092670261E082E10E941C0519
:1028900061E083E10E941C058091B9008E7F8093E6
:1028A000B9008091B9008D7F8093B90088E480934E
:1028B000B80085E48093BC001093BA00D093B800B0
:1028C000DF91CF911F910895CF92DF92EF92FF9207
:1028D0000F931F93CF93DF93EC016A017B01C11427
:1028E000D104E104F10431F4C12C42E1D42E4AE7D1
:1028F000E42EF12C8FA987FD07C061E00E946805D6
:1029000061E08FA90E941C0561E088AD0E94680506
:1029100061E088AD0E941C058DA98111A3C040E033
:1029200052E16AE770E0C416D506E606F70640F401
:1029300076956795579547958F5F8630A1F787E025
:10294000982F906A969599A3809581708AA31BA26F
:102950001CA21DA21EA21FB7F89480911A02811119
:1029600027C0E8E8F7E08491EAE6F7E09491E82FE1
:10297000F0E0EE0FFF1FE952FA4FA591B491EC91F0
:10298000E92321F461E08AE00E941C0561E08AE00D
:102990000E9468058CB580618CBD8CB580648CBD4F
:1029A00061E08DE00E94680561E08BE00E946805AF
:1029B00080911A028F5F80931A021FBF8EA987FD34
:1029C00021C061E00E94680561E08EA90E941C059B
:1029D00064E670E080E090E00E94BE0560E08EA9B1
:1029E0000E941C0564E670E080E090E00E94BE0555
:1029F00061E08EA90E941C0568EC70E080E090E028
:102A00000E94BE058EA987FF0DC020E050E040E087
:102A100061E0CE010E94910C66E970E080E090E0F8
:102A20000E94BE0508E615E0C8010196F801649110
:102A3000662309F463C00E5F1F4FFC01F490EF2C76
:102A4000E894E7F82E2DA801CE010E94910C0E0DFE
:102A5000111DF7FEE9CF66E970E080E090E00E948A
:102A6000BE05E2CF0EE717E0F12C8130B9F461E04A
:102A70008AA50E94680560E08AA50E941C0561E0A5
:102A80008CA50E94680560E08CA50E941C058BA5A2
:102A900087FD94CF60E00E94680590CFF801849193
:102AA000E82FF0E0EE0FFF1FEC58F84F859194915E
:102AB0002F8D38A12817390741F461E08F2D0E942E
:102AC000680560E08F2D0E941C05F3940F5F1F4F77
:102AD000F4E1FF12E3CF61E08EA50E94680561E09A
:102AE0008EA50E941C058FA587FD68CF61E00E941E
:102AF000680561E08FA50E941C0560CF80EF90E023
:102B00009987888780E491E09B878A87DF91CF91BE
:102B10001F910F91FF90EF90DF90CF9008951F923B
:102B20000F920FB60F9211242F933F934F935F9301
:102B30006F937F938F939F93AF93BF93EF93FF9385
:102B400085E992E00E947204FF91EF91BF91AF91ED
:102B50009F918F917F916F915F914F913F912F91B5
:102B60000F900FBE0F901F9018951F920F920FB6E7
:102B70000F9211242F938F939F93EF93FF93E091E4
:102B8000A502F091A6028081E091AB02F091AC0227
:102B900082FD1BC090818091AE028F5F8F73209168
:102BA000AF02821741F0E091AE02F0E0EB56FD4F2C
:102BB000958F8093AE02FF91EF919F918F912F910E
:102BC0000F900FBE0F901F9018958081F4CF1F9229
:102BD0000F920FB60F9211242F933F938F939F93D1
:102BE000AF93BF9380918D0290918E02A0918F023E
:102BF000B091900230918C0223E0230F2D3758F5CD
:102C00000196A11DB11D20938C0280938D0290939B
:102C10008E02A0938F02B0939002809191029091C6
:102C20009202A0919302B09194020196A11DB11D50
:102C30008093910290939202A0939302B093940296
:102C4000BF91AF919F918F913F912F910F900FBEA8
:102C50000F901F90189526E8230F0296A11DB11D15
:102C6000D2CF1F920F920FB60F9211242F933F9342
:102C70004F935F936F937F938F939F93AF93BF9384
:102C8000EF93FF938091B900887F803609F44AC0A2
:102C9000F0F5883209F4A5C018F5803109F499C01F
:102CA000B8F4882309F4F5C0883009F492C0FF9184
:102CB000EF91BF91AF919F918F917F916F915F91B4
:102CC0004F913F912F910F900FBE0F901F9018952D
:102CD000883109F486C0803251F78093650214C0B0
:102CE000803409F49BC040F48033B9F38833F9F69B
:102CF0008093650285ECAEC0803509F483C08835C9
:102D000009F494C0883499F60E94EF13D0CF883923
:102D100009F48AC038F5883729F050F4883611F064
:102D2000803729F683E0809366021092640255C0D2
:102D3000883809F479C0803919F0803809F0B7CFA4
:102D400080916402803208F06FC0E091640281E0FB
:102D50008E0F809364028091BB00F0E0EC5BFD4F2E
:102D600080833BC0803B39F0D0F4803A09F477C0CF
:102D7000883A09F09CCF84E0809366021092430267
:102D800010924202F0E0E0E0099580914202811148
:102D90000FC081E0809342021092220209C0803C61
:102DA00009F4A8CF883C09F4A5CF883B09F07FCF70
:102DB000E091430281E08E0F80934302F0E0EE5DEC
:102DC000FD4F80818093BB0090914302809142022D
:102DD00029C080918B028093BB0085EC8093BC005E
:102DE00066CF90918A0280918902981758F5E091F8
:102DF0008A0281E08E0F80938A02F0E0E759FD4F4E
:102E00008081E9CFE0918A0281E08E0F80938A026F
:102E10008091BB00F0E0E759FD4F808390918A02DA
:102E2000809189029817C8F285E8D8CFE0918A028C
:102E300081E08E0F80938A028091BB00F0E0E75919
:102E4000FD4F80838091680281115ECF81E0809385
:102E5000670284EA8093BC001092660228CF85EC5A
:102E60008093BC001092660280916402803230F43C
:102E7000E0916402F0E0EC5BFD4F1082609164022F
:102E800070E084E492E0F0E0E0E0099510926402E2
:102E90000ECF1092650238CFE5E9F2E0138212827C
:102EA00088EE93E0A0E0B0E084839583A683B783A7
:102EB00084E091E09183808385EC90E0958784871E
:102EC00084EC90E09787868780EC90E0918B808BF4
:102ED00081EC90E0938B828B82EC90E0958B848BDD
:102EE00086EC90E0978B868B118E128E138E148E4B
:102EF000A3E3B3E013961C921E92129720EF30E0EA
:102F000015963C932E93149780E491E017969C932A
:102F10008E93169719963C932E9318971B969C9315
:102F20008E931A9756961C9256971D961C921E9237
:102F30001C971F961C921E921E9781E055968C93AB
:102F4000559754968C9354972FEF3FEF53963C939D
:102F50002E93529751963C932E93509757968C935D
:102F6000579758961C9258975A961C921E925997AA
:102F7000D5961C92D59789E0D6968C93D69788E003
:102F8000D7968C93D7978AE0D8968C93D897DA9671
:102F90001C921E92D997DC961C921E92DB97DD96AE
:102FA0001C92DD97DE961C92DE97109272031092AF
:102FB0007303109274031092750382E393E090966A
:102FC0009C938E935F97E8E8F7E0E491F0E0EE0FD2
:102FD000FF1FEC58F84F859194915E969C938E93C9
:102FE0005D97EAE6F7E08491D3968C93D397E6E871
:102FF000F7E0E491F0E0EE0FFF1FEC58F84F259159
:1030000034915C963C932E935B97E8E6F7E0E4916D
:10301000D196EC93D197E095D296EC93D297E82F86
:10302000E095D496EC93D49786E191E08D939C93B0
:103030000895CF93DF93CDB7DEB7CC54D1090FB647
:10304000F894DEBF0FBECDBF789484B5826084BD96
:1030500084B5816084BD85B5826085BD85B581609C
:1030600085BD80916E00816080936E00109281001A
:1030700080918100826080938100809181008160D5
:103080008093810080918000816080938000809196
:10309000B10084608093B1008091B0008160809322
:1030A000B00080917A00846080937A0080917A00E9
:1030B000826080937A0080917A00816080937A00A8
:1030C00080917A00806880937A001092C100E0912C
:1030D000A502F091A60202E00083E091A102F09126
:1030E000A2021082E091A302F091A4028FEC8083EF
:1030F0001092AD02E091A902F091AA0286E08083CD
:10310000E091A702F091A802808180618083E09124
:10311000A702F091A802808188608083E091A702D5
:10312000F091A802808180688083E091A702F091ED
:10313000A80280818F7D808365E471E085E992E05B
:103140000E94DB1340E050E0BA0183E393E00E9469
:1031500064146FE170E083E393E00E94B61183E3AF
:1031600097E00E94E10462E471E085E992E00E9448
:103170006C136AE070E080E090E00E94BE0589E197
:1031800097E00E94E1040E9499056B017C0170E0C8
:1031900060E083E393E00E94B61160E078EF83E3A0
:1031A00093E00E94B61160EE77E083E393E00E9423
:1031B000B6116FE170E083E393E00E94B61170E016
:1031C00060E083E393E00E94B6110E949905AB0191
:1031D000BC014C195D096E097F092AE030E085E9E0
:1031E00092E00E94C71364EF71E080E090E00E94DB
:1031F000BE058FEF96E00E94E1040E9499056B01E5
:103200007C011092400310923F03109242031092EF
:1032100041038FEF9FEF9093460380934503909374
:1032200044038093430311E0109347031093480332
:1032300063E571E083E393E00E94DB1380EE9FEF90
:1032400090934603809345039093440380934303F4
:1032500000934703009348032AE042ED54E060E006
:1032600070E083E393E00E947B136EE283E393E0DC
:103270000E94C90F2AE045E050E060E070E083E37F
:1032800093E00E947B132AE046E050E060E070E0AB
:1032900083E393E00E947B1362E471E083E393E0B5
:1032A0000E946C1380E098EF90934603809345034F
:1032B000909344038093430383E080934703809378
:1032C000480320E130E04FEE5EEB6DEA7EED83E3F4
:1032D00093E00E94C71362E471E083E393E00E94ED
:1032E0006C1380EE97E09093460380934503909390
:1032F00044038093430385E080934703809348030E
:1033000060E671E083E393E00E94DB1300934703E0
:103310000093480366E671E083E393E00E94DB13C9
:10332000109347031093480366E771E083E393E04B
:103330000E94DB1361E971E083E393E00E94DB13F9
:103340006CEA71E083E393E00E94DB1368EC71E0C8
:1033500083E393E00E94DB136CED71E083E393E081
:103360000E94DB136FEE71E083E393E00E94DB13B6
:1033700069E072E083E393E00E94DB130E94990509
:10338000AB01BC014C195D096E097F092AE030E0F0
:1033900085E992E00E94C71368EB7BE080E090E053
:1033A0000E94BE0585EE96E00E94E10480903B03FA
:1033B00090903C0320903D0330903E0370E060E02D
:1033C00083E393E00E94B611610121E0C21AD108A3
:1033D0000E9499051A82198249815A814815590516
:1033E000ACF4EE24EA9467E0F62E86019A0150E0F0
:1033F00040E070E060E083E393E00E94FA106981AE
:103400007A816A5F7F4F7A836983E6CFC40101972F
:103410009A838983B12CA12CA214B3049CF4EE24CA
:10342000EA9437E0F32E850129813A8150E040E0AB
:1034300070E060E083E393E00E94FA1096E0A90E4A
:10344000B11CEACF0E94990570E060E083E393E04D
:103450000E94B6110E949905B12CA12CA814B904A0
:1034600094F4EE24EA9427E0F22E8601950150E0D0
:1034700040E069817A8183E393E00E94FA10A6E03C
:10348000AA0EB11CEBCFB12CA12CA214B3049CF456
:10349000EE24EA9497E0F92E850130E020E050E038
:1034A00040E069817A8183E393E00E94FA10B6E0FC
:1034B000AB0EB11CEACF0E94990570E060E083E397
:1034C00093E00E94B6110E949905B12CA12CA8147A
:1034D000B90494F4EE24EA9487E0F82E10E000E0BA
:1034E0009501A60170E060E083E393E00E94FA108A
:1034F00006E0A00EB11CEBCFB12CA12CA214B3049A
:1035000094F4EE24EA9407E0F02E850129813A81B3
:10351000A60170E060E083E393E00E94FA1016E0F9
:10352000A10EB11CEBCF0E94990570E060E083E32F
:1035300093E00E94B6110E9499052B013C01B12C29
:10354000A12CA814B90494F4EE24EA9417E0F12E07
:1035500010E000E09501A60169817A8183E393E0A0
:103560000E94FA1026E0A20EB11CEBCFB12CA12CC8
:10357000A214B30494F4EE24EA94B7E0FB2E850180
:1035800030E020E0A60169817A8183E393E00E9424
:10359000FA1036E0A30EB11CEBCF0E949905AB01E7
:1035A000BC0144195509660977092AE030E085E92C
:1035B00092E00E94C71364EF71E080E090E00E9407
:1035C000BE058BEC96E00E94E104C0903B03D090D6
:1035D0003C03E0903D03F0903E0370E060E083E345
:1035E00093E00E94B6110E9499054B015C011A827A
:1035F000198249815A814E155F0584F400E018EF65
:10360000960170E060E083E393E00E94B608698170
:103610007A816B5F7F4F7A836983EBCF1A8219823D
:1036200089819A818C159D0584F40FE110E0970142
:1036300050E040E0BC0183E393E00E944508A9818B
:10364000BA811596BA83A983EBCF0E949905AB0185
:10365000BC01481959096A097B092AE030E085E96B
:1036600092E00E94C71364EF71E080E090E00E9456
:10367000BE0581EB96E00E94E10480903B039090B0
:103680003C0397FE03C0BFEF8B1A9B0A9594879467
:10369000C0903D03D0903E03D7FE03C00FEFC01A89
:1036A000D00AD594C79470E060E083E393E00E9471
:1036B000B61180913D0390913E03A0903B03B090E2
:1036C0003C038A159B050CF45C010E9499052B01B3
:1036D0003C0122E030E03A83298349815A814A152E
:1036E0005B05DCF4CA0196958795A601481B590B2A
:1036F000B401681B790BE0EEEE2EE7E0FE2E0981A7
:103700001A81980183E393E00E949B1069817A817A
:103710006A5F7F4F7A836983E0CF0E949905AB018E
:10372000BC0144195509660977092AE030E085E9AA
:1037300092E00E94C71364EF71E080E090E00E9485
:10374000BE0587E996E00E94E10480913B039091D9
:103750003C0397FD019695958795DC011197BA83F7
:10376000A98380913D0390913E0397FD0196959525
:1037700087958C01015011091C830B8370E060E078
:1037800083E393E00E94B61180913D0390913E0344
:1037900020913B0330913C033E832D838217930796
:1037A00014F49E838D83812C912C54014D815E8174
:1037B00014161506CCF56A01D594C7940E94990594
:1037C0002B013C012B803C802C183D0869817A81BB
:1037D0006C197D096B0190EEE92EFF24FA940D819E
:1037E0001E819801A10183E393E00E9427090E94B2
:1037F00099056419750986099709860E971EA81EF2
:10380000B91E2FE1E22E28EFF22E0D811E819801C4
:10381000A101B60183E393E00E949B108D819E81FC
:1038200006979E838D83C2CF2AE030E0B501A401C4
:1038300085E992E00E94C71364EF71E080E090E0B8
:103840000E94BE058DE796E00E94E104A0903B0334
:10385000B0903C0380903D0390903E0370E060E0A8
:1038600083E393E00E94B6110E9499052B013C016D
:10387000AAE0B0E0BA83A98309811A810A151B0561
:10388000A4F50AE0C02ED12CC814D9043CF583E37A
:1038900093E00E947F0CA6014A5051090FE118EFF6
:1038A00025E130E069817A8183E393E00E94B309E6
:1038B0001FE1E12E18EFF12E10E000E023E04AE0D6
:1038C00050E0B60189819A810E94F40983E393E074
:1038D0000E94830D14E1C10ED11CD6CF29813A81FB
:1038E0002C5E3F4F3A832983C7CF0E949905AB01D5
:1038F000BC0144195509660977092AE030E085E9D9
:1039000092E00E94C71383E696E00E94E104809152
:103910003B0390913C038C01065F1F4F18870F8378
:1039200080913D0390913E038C01065F1F4F1A87E3
:1039300009870E949905698B7A8B8B8B9C8B06EF8C
:103940001FEF1E830D830AE010E01C830B83712C94
:10395000612C0F811885601671060CF0D5C0D12C32
:10396000C12C09851A85C016D1060CF0BDC083E3B1
:1039700093E00E947F0C2FEF3FEFA601465F5F4F61
:10398000B30183E393E00E94780B2FEF3FEFA60192
:103990004A505109B30183E393E00E94780B2FEF63
:1039A0003FEFA6016B817C8183E393E00E94780B5B
:1039B0002FEF3FEFA6016D817E8183E393E00E94AC
:1039C000780B512C412C88248394912CAAE02A2E28
:1039D000312C0CEE1FEF1A830983B7EFAB2EBB24FB
:1039E000BA941FEF411A510A22E0820E911CA80CD2
:1039F000B91C7301E40CF51C2FEF3FEF8601020D9B
:103A0000131D1E870D87A801B70183E393E00E9471
:103A1000780B8301041915092FEF3FEF4D855E8563
:103A2000B80183E393E00E94780B2FEF3FEFA601EC
:103A3000421953095E874D87B70183E393E00E94E3
:103A4000780B2FEF3FEF4D855E85B80183E393E060
:103A50000E94780B82010C0D1D1D1E870D872FEF14
:103A60003FEFA8018301020D131DB80183E393E02A
:103A70000E94780B2FEF3FEF4D855E85B3016219F1
:103A800073097E876D8783E393E00E94780B76014C
:103A9000E418F5082FEF3FEFA701B80183E393E0A7
:103AA0000E94780B2FEF3FEFA7016D857E8583E3A2
:103AB00093E00E94780B4214530444F083E393E0B4
:103AC0000E94830D74E1C70ED11C4BCFB7FC89CF88
:103AD00011E0211A310809811A810E5F1F4F1A83E4
:103AE0000983A00EB11E7DCF84E1680E711C0B818D
:103AF0001C810C5E1F4F1C830B830D811E810C5E8D
:103B00001F4F1E830D8325CF0E949905AB01BC0179
:103B100009891A892B893C89401B510B620B730B55
:103B20002AE030E085E992E00E94C71364EF71E07B
:103B300080E090E00E94BE0589E496E00E94E104E6
:103B4000C0903B03D0903C03D7FE03C01FEFC11AC7
:103B5000D10AD594C7949601215031093A8329831B
:103B600040913D0350913E035C834B8357FF04C05B
:103B70004F5F5F4F5C834B830B811C8115950795CD
:103B800018870F83480111E0811A910870E060E006
:103B900083E393E00E94B61129813A813E832D830D
:103BA0008216930614F49E828D820E9499052B0141
:103BB0003C0114011C821B82B12CA12CA6010F8197
:103BC0001885401B510B58874F832D813E81A216CB
:103BD000B306BCF5650153E0D594C7945A95E1F757
:103BE0003FE1C322DD248B819C818827987FC82AEE
:103BF000D92AC50163E0880F991F6A95E1F7807E95
:103C00009770C82AD92A0F811885020D131D4F817C
:103C10005885480D591D71019101B40189819A811E
:103C20000E94721145E0A40EB11C6B817C817B5F08
:103C30007C836B8375E0871A910885E0280E311C20
:103C4000C4CF0E949905AB01BC014419550966090E
:103C500077092AE030E085E992E00E94C71364EF1B
:103C600071E080E090E00E94BE058FE296E00E9445
:103C7000E10400913B0310913C0317FF02C00F5F6A
:103C80001F4F15950795D8011197BA8BA98B2091D5
:103C90003D0330913E033A83298337FF04C02F5FF1
:103CA0003F4F3A83298349815A81559547955C83D3
:103CB0004B837A0151E0E51AF10870E060E083E39C
:103CC00093E00E94B6110E94990569897A897A83E6
:103CD0006983E616F70614F4FA82E982C701A9811E
:103CE000BA818A1B9B0B9A878987198E1A8E1B8E25
:103CF0001C8E2B813C812150310925963FAF2EAF80
:103D00002597A8014150510927965FAF4EAF2797DD
:103D1000B8018B819C81681B790B29967FAF6EAFB0
:103D2000299702972B969FAF8EAF2B97A981BA81C7
:103D30001B970CF4EFC10E9499056BAB7CAB8DAB6C
:103D40009EABB9810AE0B09FC02C11242C2D30E02D
:103D500038A32F8F690183E0CC0CDD1C8A95E1F735
:103D6000A601407E57705EA74DA7C90123E0959537
:103D700087952A95E1F7482B592B5AA349A32596F5
:103D80006EAD7FAD259789819A81680F791F7C83FD
:103D90006B832796AEADBFAD2797A80FB91FBCA305
:103DA000ABA329960EAD1FAD299729853A85020F41
:103DB000131F1E8F0D8F621773070CF476C389884B
:103DC0009A8838872F837E836D83BE8BAD8B580195
:103DD00083E393E00E947F0C4D815E816F81788543
:103DE0004617570709F064C0A814B90454F0982D79
:103DF000892D8A149B0414F49A2D8B2D5401892E3D
:103E0000982E4D895E894A155B0534F08416950617
:103E10000CF44A01BE8AAD8A94016D897E89261B05
:103E2000370B2F5F3F4F09A11AA14F81588583E3BC
:103E300093E00E94CF0A83E393E00E94830D0E94E7
:103E400099050BA91CA92DA93EA9601B710B820B1A
:103E5000930B298D3A8D4B8D5C8D260F371F481F94
:103E6000591F298F3A8F4B8F5C8F4F8D58A1D42EBD
:103E7000CC24CC2458EFD5226DA57EA5C62AD72AFE
:103E8000EB80FC800BA11CA197014D8D5E8D698597
:103E90007A8589899A890E94721189819A81059708
:103EA0009A838983A985BA851596BA87A9873ECF53
:103EB000C501881999092B813C81AF81B8852A1BDE
:103EC0003B0B0D891E89081919091AA709A74D81ED
:103ED0005E814A1B5B0B5E874D876D897E896A19FF
:103EE0007B097CA76BA7AD81BE810B811C81A01BC8
:103EF000B10BBEA3ADA34D815E814017510709F4FC
:103F000089C02B966EAD7FAD2B97A981BA816A0FC0
:103F10007B1F7E8B6D8B2F803884412C512C32017E
:103F2000C12CD12C760149A55AA5052E000C660B93
:103F3000770B4FA758AB69AB7AABA901330F660B70
:103F4000770B4FAB58AF69AF7AAF0D851E85012E49
:103F5000000C220B330B0BAF1CAF2DAF3EAF9C01FF
:103F6000990F440B550B23962CAF3DAF4EAF5FAF6F
:103F700023974D895E89421553050CF450C0C70143
:103F8000B6012FA938AD49AD5AAD0E9488228401EF
:103F9000020F131F2D961FAF0EAF2D97C301B20155
:103FA0002BAD3CAD4DAD5EAD0E948822B401620FD9
:103FB000731F23962CAD3DAD4EAD5FAD2397C20E62
:103FC000D31EE41EF51E8FA598A9A9A9BAA9480E6B
:103FD000591E6A1E7B1E601771074CF0962F872FA3
:103FE000B8012C969FAF2C972D968FAF2D972D96BD
:103FF0002EAD3FAD2D97261B370B2F5F3F4F09A1ED
:104000001AA1A10183E393E00E94CF0A9FEF291A2E
:10401000390AAFCF0D811E811E8B0D8B7CCF0BA576
:104020001CA5012E000C220B330B0D8B1E8B2F8B2E
:10403000388F91014B815C81241B350BABA5BCA54E
:104040000E94A7226B017C0191016F817885261B5C
:10405000370BA9A5BAA50E94A7222B013C018DA16F
:104060009EA1092E000CAA0BBB0B8DA39EA3AFA390
:10407000B8A70D851E85012E000C220B330B0D8772
:104080001E872F87388B2D813E81221533050CF436
:10409000D2CEC701B6012DA13EA14FA158A50E94C5
:1040A00088228501020F131F18870F83C301B201F5
:1040B0002D853E854F8558890E948822B401620F64
:1040C000731F2D893E894F89588DC20ED31EE41E61
:1040D000F51E8FA598A9A9A9BAA9480E591E6A1E4E
:1040E0007B1E601771072CF0962F872FB8019F83D6
:1040F00088872F813885261B370B2F5F3F4F09A1FB
:104100001AA1A10183E393E00E94CF0A9FEF291A2D
:10411000390AB9CF2AE030E0498D5A8D6B8D7C8DFC
:1041200085E992E00E94C71364EF71E080E090E0BF
:104130000E94BE0585E196E00E94E10480913B0368
:1041400090913C0397FD0196959587958C010150C0
:1041500011091E830D8380913D0390913E0397FDCD
:104160000196959587959C012150310938872F83B9
:1041700070E060E083E393E00E94B61180913D031C
:1041800090913E0340903B0350903C03841595056D
:104190000CF42C010E94990569877A878B879C878C
:1041A0001A821982F12CE12CE414F5040CF092C06F
:1041B000C7019695879589809A80882438EF932245
:1041C0002F803884281A390ACD80DE80C81AD90A8F
:1041D000A701A3E056954795AA95E1F75E874D871D
:1041E0008417950714F49E878D8783E393E00E94DC
:1041F0007F0C8D859E85880F991F5701A81AB90AD3
:104200006D847E846C0C7D1C84019501A101B30139
:1042100083E393E00E94CF0AB701620D731D7C8394
:104220006B83AB01415051099501B30183E393E0E6
:104230000E94CF0A8D859E85280E391E9501A10109
:10424000B60183E393E00E94B309CE0CDF1CB601F4
:10425000615071099501A10183E393E00E94B309C4
:1042600021E04D855E85B101C3010E94AA0BAD8599
:10427000BE85CA1ADB0AB1E0CB1AD10822E04D850F
:104280005E85B101C6010E94AA0BAB80BC800D8582
:104290001E85A01AB10A11E0A11AB108840124E018
:1042A0004D855E85B501C6010E94AA0B28E04D85AB
:1042B0005E85B501C3010E94AA0B83E393E00E94CF
:1042C000830D26E0E20EF11C49815A815A5F5A8320
:1042D00049836ACF0E949905AB01BC0109851A8503
:1042E0002B853C85401B510B620B730B2AE030E0A1
:1042F00085E992E00E94C71364EF71E080E090E0EE
:104300000E94BE058BEF95E00E94E10480913B0383
:1043100090913C0397FD0196959587959C012150BE
:10432000310938872F8380913D0390913E0397FD9B
:10433000019695958795AC01415051095A87498757
:1043400070E060E083E393E00E94B6110E9499055B
:104350002B013C0180913D0390913E0360913B0312
:1043600070913C037E876D878617970714F49E87AC
:104370008D878D859E8553E0880F991F5A95E1F7AB
:104380009A838983AD85BE85A531B1050CF464C0DF
:10439000CD019595879529803A80B0EE2B22B7E024
:1043A0003B2289849A84881A990A0F811885081BF0
:1043B000190B1C830B83CD84DE8443E0D594C79412
:1043C0004A95E1F78C159D050CF46C0183E393E0AD
:1043D0000E947F0CC601880F991FAD84BE84A81A65
:1043E000B90A2B813C812C0D3D1D3E832D8371012B
:1043F0000D851E859501A4016D817E8183E393E087
:104400000E940F0B31E0A31AB1088C0C9D1C8B810C
:104410009C81800F911F8C199D09850121E0A601C7
:10442000B40101970E94F40922E0A601B4018D8134
:104430009E810E94F40983E393E00E94830D4D85E1
:104440005E85465051095E874D8769817A81605348
:1044500071097A83698396CF0E949905AB01BC01EB
:1044600044195509660977092AE030E085E992E0A8
:104470000E94C71364EF71E080E090E00E94BE05E7
:1044800085EF95E00E94E10462E471E085E992E045
:104490000E946C1380E090E0892BE1F30E945E049F
:1044A0008823C1F30E940000F5CF8D8C9E8CAB81D8
:1044B000BC81B887AF8309851A851E830D8329893E
:1044C0003A893E8B2D8BABA0BCA082CCA1E21A2EE8
:1044D000AA1BBB1BFD010DC0AA1FBB1FEE1FFF1FA8
:1044E000A217B307E407F50720F0A21BB30BE40BF8
:1044F000F50B661F771F881F991F1A9469F760953F
:104500007095809590959B01AC01BD01CF010895F8
:10451000052E97FB1EF400940E949F2257FD07D0A2
:104520000E94662207FC03D04EF40C949F22509503
:104530004095309521953F4F4F4F5F4F089590958F
:104540008095709561957F4F8F4F9F4F08950E9482
:10455000AF22332312F48A1B9B0B0C94C022A29F20
:10456000B001B39FC001A39F700D811D1124911D47
:10457000B29F700D811D1124911D08950E94AF22DC
:10458000B7FF0895821B930B0895EE0FFF1F059050
:10459000F491E02D099481E090E0F8940C94D022FD
:0445A000F894FFCFBD
:1045A400000000009404F4032104FC0452043004C9
:1045B400440400000000C90FF403671366133707AF
:1045C4007F0C780B0F0BB309CF0AB912830DFA0CC9
:1045D400F00C4508B6082709B611FA109B106414AC
:1045E400D6060D0A00494C493933343120546573D9
:1045F40074210048656C6C6F20576F726C642100E5
:1046040047726F6F70004920696D706C6F7265201E
:10461400746865652C006D7920666F6F6E74696EC1
:1046240067207475726C696E6764726F6D65732E42
:1046340000416E6420686F6F7074696F75736C7974
:10464400206472616E676C65206D650077697468BB
:10465400206372696E6B6C792062696E646C657735
:104664007572646C65732C004F7220492077696CF5
:104674006C2072656E64207468656500696E2074D0
:10468400686520676F626265727761727473007720
:10469400697468206D7920626C7572676C656372E9
:1046A400756E6368656F6E2C00736565206966209E
:0A46B4004920646F6E277421000096
:00000001FF
