:100000000C9458000C9480000C9480000C94800098
:100010000C9480000C9480000C9480000C94800060
:100020000C9480000C9480000C9480000C94800050
:100030000C9480000C9480000C9480000C94800040
:100040000C9449050C9480000C9417050C94F10451
:100050000C9480000C9480000C9480000C94800020
:100060000C9493050C9480000000000025002800EB
:100070002B00040404040404040402020202020229
:10008000030303030303010204081020408001025C
:1000900004081020010204081020000000080002DB
:1000A0000100000304070000000000000000B20689
:1000B00011241FBECFEFD8E0DEBFCDBF11E0A0E01E
:1000C000B1E0EEE7F1E102C005900D92A833B1076F
:1000D000D9F722E0A8E3B1E001C01D92A43AB2072B
:1000E000E1F710E0C8E5D0E004C02197FE010E94CE
:1000F000B708C735D107C9F70E94EB060C94BD08B5
:100100000C9400008091890190918A01891B990BC0
:10011000089508950895AF92BF92CF92DF92EF9223
:10012000FF920F931F93CF93DF936C017B018B01A1
:10013000040F151FEB015E01AE18BF08C017D107F1
:1001400059F06991D601ED91FC910190F081E02D7B
:10015000C6010995892B79F7C501DF91CF911F91D0
:100160000F91FF90EF90DF90CF90BF90AF900895E8
:10017000FC01538D448D252F30E0842F90E0821BAD
:10018000930B541710F0CF96089501970895FC0132
:10019000918D828D981761F0A28DAE0FBF2FB11D8A
:1001A0005D968C91928D9F5F9F73928F90E00895E2
:1001B0008FEF9FEF0895FC01918D828D981731F09C
:1001C000828DE80FF11D858D90E008958FEF9FEFF0
:1001D0000895FC01918D228D892F90E0805C9F4FC6
:1001E000821B91098F73992708958BEF91E00E94EC
:1001F000E90021E0892B09F420E0822F089580E0B6
:1002000090E0892B29F00E94F50081110C940000E8
:100210000895FC01A48DA80FB92FB11DA35ABF4F9B
:100220002C91848D90E001968F739927848FA689F5
:10023000B7892C93A089B1898C91837080648C9349
:10024000938D848D981306C00288F389E02D8081F8
:100250008F7D80830895EF92FF920F931F93CF932A
:10026000DF93EC0181E0888F9B8D8C8D98131AC0F1
:10027000E889F989808185FF15C09FB7F894EE89D8
:10028000FF896083E889F989808183708064808335
:100290009FBF81E090E0DF91CF911F910F91FF9080
:1002A000EF900895F62E0B8D10E00F5F1F4F0F7328
:1002B0001127E02E8C8D8E110CC00FB607FCFACFE3
:1002C000E889F989808185FFF5CFCE010E94090177
:1002D000F1CFEB8DEC0FFD2FF11DE35AFF4FF082B4
:1002E0009FB7F8940B8FEA89FB8980818062CFCF1A
:1002F000CF93DF93EC01888D8823B9F0AA89BB895D
:10030000E889F9898C9185FD03C0808186FD0DC047
:100310000FB607FCF7CF8C9185FFF2CF808185FF68
:10032000EDCFCE010E940901E9CFDF91CF91089571
:1003300090E0FC01E656FF4F2491FC01EA57FF4F85
:100340003491FC01EE58FF4FE491EE23C9F02223D3
:1003500039F0233001F1A8F4213019F1223029F1CC
:10036000F0E0EE0FFF1FE859FF4FA591B4918FB752
:10037000F894EC91611126C030953E233C938FBFD9
:1003800008952730A9F02830C9F0243049F780912A
:1003900080008F7D03C0809180008F7780938000E4
:1003A000DFCF84B58F7784BDDBCF84B58F7DFBCF66
:1003B0008091B0008F778093B000D2CF8091B00051
:1003C0008F7DF9CF3E2BDACF3FB7F8948091810132
:1003D00090918201A0918301B091840126B5A89BE0
:1003E00005C02F3F19F00196A11DB11D3FBFBA2FC7
:1003F000A92F982F8827BC01CD01620F711D811D87
:10040000911D42E0660F771F881F991F4A95D1F70B
:10041000089520915901260F3327331F21323105CA
:10042000ECF42091D101FC0190E080E0243069F0EF
:1004300082E00895A09159012191AC01475C5E4F83
:10044000A40FB52FB11D2C930196861798F38091B8
:100450005901680F6093590180E0089581E0089583
:100460001092D10181E08093D0011092AB0161E044
:1004700082E10E94980161E083E10E949801E9EB2A
:10048000F0E080818E7F808380818D7F808388E40F
:100490008093B80085E48093BC000895CF93DF93E8
:1004A00091E0909338018823B9F0C091B800D091C1
:1004B000BA008091BC008A7B8093BC0060E082E13E
:1004C0000E94980160E083E10E9498010E9430023E
:1004D000D093BA00C093B800DF91CF9108958F9266
:1004E0009F92AF92BF92CF92DF92EF92FF920F93C3
:1004F0001F93CF93DF93D091FA01D13208F0D7C088
:10050000182FC091F9010E94E4016B017C018091D8
:10051000D10181116BC082E08093D1011093D00191
:100520008FEF8093CF011092CE01D093CD01A9ED32
:10053000B1E0EDEAF1E080E0D81391C01092AC0197
:100540008091AC01CC0FC82BC093AC018091AB0162
:10055000813009F088C01092AB010E94E4016B0168
:100560007C018091AC018093BB008091D30190917C
:10057000D401A091D501B091D601892B8A2B8B2B68
:10058000A1F00E94E4010091D3011091D4012091C7
:10059000D5013091D6016C197D098E099F09061786
:1005A00017072807390708F442C08091BC0083FD73
:1005B000D8CF85EC8093BC000E94E4016B017C01E4
:1005C0008091D101823009F450C08091CF018F3FDA
:1005D00009F46FC08091CF01803209F46CC0809122
:1005E000CF01803309F469C084E026C08091D30133
:1005F0009091D401A091D501B091D601892B8A2B7D
:100600008B2B09F484CF0E94E4018090D301909059
:10061000D401A090D501B090D6016C197D098E0946
:100620009F0986169706A806B90608F070CF809134
:10063000D2010E944E0285E01092D8011092FA0178
:100640001092D701DF91CF911F910F91FF90EF9002
:10065000DF90CF90BF90AF909F908F9008959D9125
:1006600091938F5F69CF85EEA5CF8091D301909153
:10067000D401A091D501B091D601892B8A2B8B2B67
:1006800009F49ECF0E94E4010091D3011091D4019E
:100690002091D5013091D6016C197D098E099F09F1
:1006A000061717072807390708F08ACFC0CF81E05F
:1006B000C3CF80E0C1CF82E0BFCF83E0BDCF08953C
:1006C000E0918A0180918901E81730F4F0E0E55764
:1006D000FE4F808190E008958FEF9FEF08959091F5
:1006E0008A01809189012FEF3FEF981748F4E92F95
:1006F000F0E0E557FE4F208130E09F5F90938A0144
:10070000C9010895CF92DF92EF92FF920F931F934A
:10071000CF93DF937C01CB018A012091D701222363
:1007200089F0EB016B01C40ED51ECC15DD0569F017
:100730006991D701ED91FC910190F081E02DC70105
:100740000995F3CF642F0E940902C801DF91CF9170
:100750001F910F91FF90EF90DF90CF900895CF936E
:10076000DF931F92CDB7DEB769832091D701222393
:10077000F9F02091FA01203258F021E030E0FC013C
:100780003383228390E080E00F90DF91CF91089532
:100790008091D801E82FF0E0E752FE4F99819083D5
:1007A0008F5F8093D8018093FA0181E090E0ECCFD5
:1007B00061E0CE0101960E940902F7CF682F88E917
:1007C00092E00C94AF038F929F92AF92BF92CF9220
:1007D000DF92EF92FF926C01F62E81E08093D701B9
:1007E00080E58093F9011092D8011092FA0190E00F
:1007F00080E00E94DE03C6010E94DE036F2D88E9BF
:1008000092E00E94AF0381E00E946F020E94E40127
:100810004B015C0185E0C82ED12CE12CF12C0E940B
:10082000E401681979098A099B09683E73408105CA
:100830009105A8F321E0C21AD108E108F10888EE79
:10084000880E83E0981EA11CB11CC114D104E104E0
:10085000F10429F7FF90EF90DF90CF90BF90AF9019
:100860009F908F90089590E080E00895FC010190A2
:100870000020E9F73197AF01481B590BBC018BEF02
:1008800091E00C948B008F929F92AF92BF920F9346
:100890001F93CF93DF93CDB7DEB7A1970FB6F89430
:1008A000DEBF0FBECDBF19A2423008F44AE08E0170
:1008B0000F5D1F4F842E912CB12CA12CA50194010A
:1008C0000E949508E62FB901CA01EA30F4F4E05D10
:1008D000D801EE938D01232B242B252B79F790E063
:1008E00080E0109719F0CD010E943604A1960FB652
:1008F000F894DEBF0FBECDBFDF91CF911F910F9156
:10090000BF90AF909F908F900895E95CE1CFCF9218
:10091000DF92EF92FF92CF93DF936C01990FEE0875
:10092000FF08F7FE1FC06DE28BEF91E00E942B01E4
:10093000EC0166277727CB016C197D098E099F0989
:100940004AE00E944304C80FD91F84E291E00E944C
:1009500036048C0F9D1FDF91CF91FF90EF90DF90B9
:10096000CF9008954AE0C701B6010E944304EC010C
:10097000ECCF85ED8093BC008091D3019091D401A0
:10098000A091D501B091D6010796A11DB11D23E01C
:10099000B695A795979587952A95D1F72091BC0094
:1009A00024FD03C01092D10108954091D3015091CC
:1009B000D4016091D5017091D601452B462B472B70
:1009C00069F30097A105B10541F025E32A95F1F7F8
:1009D00000000197A109B109E1CF8091D2010C94E7
:1009E0004E021F920F920FB60F9211242F933F9336
:1009F0004F935F936F937F938F939F93AF93BF9327
:100A0000EF93FF938BEF91E00E940901FF91EF912B
:100A1000BF91AF919F918F917F916F915F914F9116
:100A20003F912F910F900FBE0F901F9018951F921E
:100A30000F920FB60F9211242F938F939F93EF93E2
:100A4000FF93E0910B02F0910C028081E091110282
:100A5000F091120282FD1BC09081809114028F5F81
:100A60008F7320911502821741F0E0911402F0E09B
:100A7000E550FE4F958F80931402FF91EF919F9167
:100A80008F912F910F900FBE0F901F90189580811E
:100A9000F4CF1F920F920FB60F9211242F933F9312
:100AA0008F939F93AF93BF9380917D0190917E012F
:100AB000A0917F01B091800130917C0123E0230F50
:100AC0002D3758F50196A11DB11D20937C0180930F
:100AD0007D0190937E01A0937F01B093800180916E
:100AE000810190918201A0918301B09184010196CE
:100AF000A11DB11D8093810190938201A093830178
:100B0000B0938401BF91AF919F918F913F912F91AD
:100B10000F900FBE0F901F90189526E8230F029696
:100B2000A11DB11DD2CF1F920F920FB60F921124AB
:100B30002F933F934F935F936F937F938F939F93E5
:100B4000AF93BF93EF93FF938091B900887F803676
:100B500009F44AC0F0F5883209F4A7C018F58031CD
:100B600009F49BC0B8F4882309F4F9C0883009F46B
:100B700094C0FF91EF91BF91AF919F918F917F9121
:100B80006F915F914F913F912F910F900FBE0F90FA
:100B90001F901895883109F488C0803251F78093EE
:100BA000CF0114C0803409F49DC040F48033B9F300
:100BB0008833F9F68093CF0185ECB0C0803509F415
:100BC00085C0883509F496C0883499F60E94B90426
:100BD000D0CF883909F48CC038F5883729F050F423
:100BE000883611F0803729F683E08093D101109286
:100BF0007B0157C0883809F47BC0803919F08038F0
:100C000009F0B7CF80917B01803208F071C0E0918C
:100C10007B0181E08E0F80937B018091BB00F0E02F
:100C2000E55AFE4F80833DC0803B39F0E0F4803AC6
:100C300009F479C0883A09F09CCF84E08093D1010F
:100C400010925A0110925901E0918701F0918801A8
:100C500009958091590181110FC081E0809359015C
:100C60001092390109C0803C09F4A6CF883C09F4F0
:100C7000A3CF883B09F07DCFE0915A0181E08E0F30
:100C800080935A01F0E0E75CFE4F80818093BB00C7
:100C900090915A018091590129C08091AC018093B3
:100CA000BB0085EC8093BC0064CF9091CE01809115
:100CB000CD01981758F5E091CE0181E08E0F809319
:100CC000CE01F0E0E355FE4F8081E9CFE091CE0107
:100CD00081E08E0F8093CE018091BB00F0E0E35560
:100CE000FE4F80839091CE018091CD019817C8F27C
:100CF00085E8D8CFE091CE0181E08E0F8093CE01C0
:100D00008091BB00F0E0E355FE4F80838091D001DD
:100D100081115CCF81E08093AB0184EA8093BC00B9
:100D20001092D10126CF85EC8093BC001092D101A6
:100D300080917B01803230F4E0917B01F0E0E55A54
:100D4000FE4F108260917B0170E0E0918501F0918F
:100D500086018BE591E0099510927B010ACF1092F4
:100D6000CF0134CFEBEFF1E01382128288EE93E0F3
:100D7000A0E0B0E084839583A683B78324E031E0CC
:100D80003183208325EC30E03587248724EC30E064
:100D90003787268720EC30E0318B208B21EC30E048
:100DA000338B228B22EC30E0358B248B26EC30E029
:100DB000378B268B118E128E138E148EE8E9F2E09B
:100DC0001382128284839583A683B78386E191E0A0
:100DD000918380830895789484B5826084BD84B5BE
:100DE000816084BD85B5826085BD85B5816085BD26
:100DF00080916E00816080936E00109281008091DE
:100E00008100826080938100809181008160809365
:100E10008100809180008160809380008091B1008A
:100E200084608093B1008091B00081608093B000B5
:100E300080917A00846080937A0080917A00826049
:100E400080937A0080917A00816080937A0080910B
:100E50007A00806880937A001092C100E0910B02C2
:100E6000F0910C0282E08083E0910702F091080289
:100E70001082E0910902F0910A028FEC80831092B7
:100E80001302E0910F02F091100286E08083E0915E
:100E90000D02F0910E02808180618083E0910D024D
:100EA000F0910E02808188608083E0910D02F091C4
:100EB0000E02808180688083E0910D02F0910E0225
:100EC00080818F7D808310928A0110928901109217
:100ED000D8011092FA010E94300289E890E09093C4
:100EE0008801809387018AE890E09093860180933F
:100EF000850165E090E080E00E94E30366E081E028
:100F000090E00E94E30367E082E090E00E94E30348
:100F100068E083E090E00E94E30381E08093D701E2
:100F200080E58093F9011092D8011092FA0190E0C7
:100F300080E00E94DE0390E080E00E94DE0381E01A
:100F40000E946F020E94E4016B017C018091D1013B
:100F5000811165C081E08093D1018093D0019FEF22
:100F60009093CF011092CE0193E09093CD018093A6
:100F7000AC018091AC01806A8093AC018091AB019F
:100F8000813009F0AEC01092AB010E94E4016B0108
:100F90007C018091AC018093BB008091D301909142
:100FA000D401A091D501B091D601892B8A2B8B2B2E
:100FB000A1F00E94E4010091D3011091D40120918D
:100FC000D5013091D6016C197D098E099F0906174C
:100FD00017072807390708F443C08091BC0083FD38
:100FE000D8CF85EC8093BC000E94E4016B017C01AA
:100FF0008091D101813009F476C08091CE01C4E0A6
:10100000843010F4C091CE01ADEAB1E0EBE8F1E03C
:1010100080E08C1751F19D9191938F5FFACF809171
:10102000D3019091D401A091D501B091D601892B23
:101030008A2B8B2B09F48ACF0E94E4010091D30103
:101040001091D4012091D5013091D6016C197D0900
:101050008E099F09061717072807390708F076CF6A
:101060008091D2010E944E02C0E010928A01C0938A
:10107000890187E291E00E9436046C2F70E090E0D5
:1010800080E04AE00E94430484E291E00E9436043A
:101090009091890180918A019817C1F088E992E0C6
:1010A0000E946F030E94870488E992E00E946F0308
:1010B0000E94870488E992E00E946F030E948704DF
:1010C00088E992E00E946F030E948704C0E0D0E0AC
:1010D0002097F1F30E94F5008823D1F30E940000CD
:1010E000F7CF85EE7FCF8091D3019091D401A0916D
:1010F000D501B091D601892B8A2B8B2B09F478CF9F
:101100000E94E4010091D3011091D4012091D501F6
:101110003091D6016C197D098E099F0906171707B2
:101120002807390708F064CF9BCFA1E21A2EAA1B2B
:10113000BB1BFD010DC0AA1FBB1FEE1FFF1FA21787
:10114000B307E407F50720F0A21BB30BE40BF50B84
:10115000661F771F881F991F1A9469F7609570950D
:10116000809590959B01AC01BD01CF010895EE0FD4
:0E117000FF1F0590F491E02D0994F894FFCF35
:10117E00000000002B018B00B8007801E900C700C9
:10118E00DB0000000000AF03820333045F03820024
:10119E006F0360030D0A00627974657320617661D6
:0811AE00696C61626C653A0096
:00000001FF
